{
  "contractName": "admin_manufacture",
  "abi": [
    {
      "inputs": [],
      "stateMutability": "nonpayable",
      "type": "constructor"
    },
    {
      "anonymous": false,
      "inputs": [
        {
          "indexed": true,
          "internalType": "address",
          "name": "_userAddress",
          "type": "address"
        },
        {
          "indexed": false,
          "internalType": "uint256",
          "name": "index",
          "type": "uint256"
        },
        {
          "indexed": false,
          "internalType": "string",
          "name": "name",
          "type": "string"
        },
        {
          "indexed": false,
          "internalType": "string",
          "name": "password",
          "type": "string"
        },
        {
          "indexed": false,
          "internalType": "string",
          "name": "email",
          "type": "string"
        },
        {
          "indexed": false,
          "internalType": "uint256",
          "name": "userrole",
          "type": "uint256"
        },
        {
          "indexed": false,
          "internalType": "bytes32",
          "name": "_hash",
          "type": "bytes32"
        }
      ],
      "name": "LogNewUser",
      "type": "event"
    },
    {
      "anonymous": false,
      "inputs": [
        {
          "indexed": true,
          "internalType": "address",
          "name": "_userAddress",
          "type": "address"
        },
        {
          "indexed": false,
          "internalType": "uint256",
          "name": "index",
          "type": "uint256"
        },
        {
          "indexed": false,
          "internalType": "string",
          "name": "email",
          "type": "string"
        },
        {
          "indexed": false,
          "internalType": "string",
          "name": "location",
          "type": "string"
        },
        {
          "indexed": false,
          "internalType": "string",
          "name": "password",
          "type": "string"
        }
      ],
      "name": "LogUpdateUser",
      "type": "event"
    },
    {
      "inputs": [],
      "name": "creationTime",
      "outputs": [
        {
          "internalType": "uint256",
          "name": "",
          "type": "uint256"
        }
      ],
      "stateMutability": "view",
      "type": "function"
    },
    {
      "inputs": [],
      "name": "owner",
      "outputs": [
        {
          "internalType": "address",
          "name": "",
          "type": "address"
        }
      ],
      "stateMutability": "view",
      "type": "function"
    },
    {
      "inputs": [
        {
          "internalType": "address",
          "name": "_userAddress",
          "type": "address"
        }
      ],
      "name": "isUser",
      "outputs": [
        {
          "internalType": "bool",
          "name": "isIndeed",
          "type": "bool"
        }
      ],
      "stateMutability": "view",
      "type": "function"
    },
    {
      "inputs": [
        {
          "internalType": "address",
          "name": "_userAddress",
          "type": "address"
        },
        {
          "internalType": "string",
          "name": "userName",
          "type": "string"
        },
        {
          "internalType": "string",
          "name": "password",
          "type": "string"
        },
        {
          "internalType": "string",
          "name": "email",
          "type": "string"
        },
        {
          "internalType": "string",
          "name": "location",
          "type": "string"
        },
        {
          "internalType": "uint256",
          "name": "_role",
          "type": "uint256"
        }
      ],
      "name": "setUser",
      "outputs": [
        {
          "internalType": "bytes32",
          "name": "_a",
          "type": "bytes32"
        },
        {
          "internalType": "uint256",
          "name": "index",
          "type": "uint256"
        }
      ],
      "stateMutability": "nonpayable",
      "type": "function"
    },
    {
      "inputs": [
        {
          "internalType": "address",
          "name": "_userAddress",
          "type": "address"
        },
        {
          "internalType": "string",
          "name": "email",
          "type": "string"
        },
        {
          "internalType": "string",
          "name": "location",
          "type": "string"
        },
        {
          "internalType": "string",
          "name": "password",
          "type": "string"
        }
      ],
      "name": "updateUser",
      "outputs": [
        {
          "internalType": "bool",
          "name": "success",
          "type": "bool"
        }
      ],
      "stateMutability": "nonpayable",
      "type": "function"
    },
    {
      "inputs": [
        {
          "internalType": "uint256",
          "name": "role",
          "type": "uint256"
        }
      ],
      "name": "showRole",
      "outputs": [
        {
          "internalType": "string",
          "name": "_role",
          "type": "string"
        }
      ],
      "stateMutability": "nonpayable",
      "type": "function"
    }
  ],
  "bytecode": "0x608060405260048054905060055534801561001957600080fd5b50336000806101000a81548173ffffffffffffffffffffffffffffffffffffffff021916908373ffffffffffffffffffffffffffffffffffffffff160217905550426001819055506112e5806100706000396000f3fe608060405234801561001057600080fd5b506004361061007f576000357c0100000000000000000000000000000000000000000000000000000000900480630da4578b146100845780634209fff1146100b45780638da5cb5b146100e4578063ae4739ca14610102578063b655006814610132578063d8270dce14610163575b600080fd5b61009e60048036038101906100999190610b1f565b610181565b6040516100ab9190610e9c565b60405180910390f35b6100ce60048036038101906100c99190610af6565b610343565b6040516100db9190610e9c565b60405180910390f35b6100ec610438565b6040516100f99190610e81565b60405180910390f35b61011c60048036038101906101179190610cdc565b61045c565b6040516101299190610ee0565b60405180910390f35b61014c60048036038101906101479190610bca565b6105a7565b60405161015a929190610eb7565b60405180910390f35b61016b6109a6565b6040516101789190610f02565b60405180910390f35b60006001151561019086610343565b15151461019c57600080fd5b83600360008773ffffffffffffffffffffffffffffffffffffffff1673ffffffffffffffffffffffffffffffffffffffff16815260200190815260200160002060070190805190602001906101f29291906109ac565b5082600360008773ffffffffffffffffffffffffffffffffffffffff1673ffffffffffffffffffffffffffffffffffffffff16815260200190815260200160002060050190805190602001906102499291906109ac565b5081600360008773ffffffffffffffffffffffffffffffffffffffff1673ffffffffffffffffffffffffffffffffffffffff16815260200190815260200160002060010190805190602001906102a09291906109ac565b508473ffffffffffffffffffffffffffffffffffffffff167f023f26309c8003051ddc866328d4e125ef45264482d40498f2a58a7015a335f7600360008873ffffffffffffffffffffffffffffffffffffffff1673ffffffffffffffffffffffffffffffffffffffff1681526020019081526020016000206006015486868660405161032f9493929190610f1d565b60405180910390a260019050949350505050565b600080600480549050141561035b5760009050610433565b8173ffffffffffffffffffffffffffffffffffffffff166004600360008573ffffffffffffffffffffffffffffffffffffffff1673ffffffffffffffffffffffffffffffffffffffff16815260200190815260200160002060060154815481106103ee577f4e487b7100000000000000000000000000000000000000000000000000000000600052603260045260246000fd5b9060005260206000200160009054906101000a900473ffffffffffffffffffffffffffffffffffffffff1673ffffffffffffffffffffffffffffffffffffffff161490505b919050565b60008054906101000a900473ffffffffffffffffffffffffffffffffffffffff1681565b60603373ffffffffffffffffffffffffffffffffffffffff1660036000735b38da6a701c568545dcfcb03fcb875f56beddc473ffffffffffffffffffffffffffffffffffffffff1673ffffffffffffffffffffffffffffffffffffffff16815260200190815260200160002060030160009054906101000a900473ffffffffffffffffffffffffffffffffffffffff1673ffffffffffffffffffffffffffffffffffffffff1614156105a157600160036000735b38da6a701c568545dcfcb03fcb875f56beddc473ffffffffffffffffffffffffffffffffffffffff1673ffffffffffffffffffffffffffffffffffffffff168152602001908152602001600020600001819055506040518060400160405280600b81526020017f6d6175666163747572657200000000000000000000000000000000000000000081525090506105a2565b5b919050565b600080600015156105b789610343565b1515146105c357600080fd5b33600360008a73ffffffffffffffffffffffffffffffffffffffff1673ffffffffffffffffffffffffffffffffffffffff16815260200190815260200160002060030160006101000a81548173ffffffffffffffffffffffffffffffffffffffff021916908373ffffffffffffffffffffffffffffffffffffffff16021790555042600360008a73ffffffffffffffffffffffffffffffffffffffff1673ffffffffffffffffffffffffffffffffffffffff1681526020019081526020016000206004018190555083600360008a73ffffffffffffffffffffffffffffffffffffffff1673ffffffffffffffffffffffffffffffffffffffff16815260200190815260200160002060050190805190602001906106e19291906109ac565b5082600360008a73ffffffffffffffffffffffffffffffffffffffff1673ffffffffffffffffffffffffffffffffffffffff1681526020019081526020016000206000018190555082600660008a73ffffffffffffffffffffffffffffffffffffffff1673ffffffffffffffffffffffffffffffffffffffff168152602001908152602001600020819055506004889080600181540180825580915050600190039060005260206000200160009091909190916101000a81548173ffffffffffffffffffffffffffffffffffffffff021916908373ffffffffffffffffffffffffffffffffffffffff16021790555060016004805490506107e2919061108b565b600360008a73ffffffffffffffffffffffffffffffffffffffff1673ffffffffffffffffffffffffffffffffffffffff16815260200190815260200160002060060181905550600288888689898860405160200161084596959493929190610e0a565b6040516020818303038152906040526040516108619190610e6a565b602060405180830381855afa15801561087e573d6000803e3d6000fd5b5050506040513d601f19601f820116820180604052508101906108a19190610cb3565b6002819055508773ffffffffffffffffffffffffffffffffffffffff167f140ebd35163a145904aac7e5f4b789d41e56d1a054e78a3786e3fcc1c92bced8600360008b73ffffffffffffffffffffffffffffffffffffffff1673ffffffffffffffffffffffffffffffffffffffff16815260200190815260200160002060060154898989600660008f73ffffffffffffffffffffffffffffffffffffffff1673ffffffffffffffffffffffffffffffffffffffff1681526020019081526020016000205460025460405161097a96959493929190610f77565b60405180910390a26002546001600480549050610997919061108b565b91509150965096945050505050565b60015481565b8280546109b890611153565b90600052602060002090601f0160209004810192826109da5760008555610a21565b82601f106109f357805160ff1916838001178555610a21565b82800160010185558215610a21579182015b82811115610a20578251825591602001919060010190610a05565b5b509050610a2e9190610a32565b5090565b5b80821115610a4b576000816000905550600101610a33565b5090565b6000610a62610a5d8461101e565b610fed565b905082815260208101848484011115610a7a57600080fd5b610a85848285611111565b509392505050565b600081359050610a9c8161126a565b92915050565b600081519050610ab181611281565b92915050565b600082601f830112610ac857600080fd5b8135610ad8848260208601610a4f565b91505092915050565b600081359050610af081611298565b92915050565b600060208284031215610b0857600080fd5b6000610b1684828501610a8d565b91505092915050565b60008060008060808587031215610b3557600080fd5b6000610b4387828801610a8d565b945050602085013567ffffffffffffffff811115610b6057600080fd5b610b6c87828801610ab7565b935050604085013567ffffffffffffffff811115610b8957600080fd5b610b9587828801610ab7565b925050606085013567ffffffffffffffff811115610bb257600080fd5b610bbe87828801610ab7565b91505092959194509250565b60008060008060008060c08789031215610be357600080fd5b6000610bf189828a01610a8d565b965050602087013567ffffffffffffffff811115610c0e57600080fd5b610c1a89828a01610ab7565b955050604087013567ffffffffffffffff811115610c3757600080fd5b610c4389828a01610ab7565b945050606087013567ffffffffffffffff811115610c6057600080fd5b610c6c89828a01610ab7565b935050608087013567ffffffffffffffff811115610c8957600080fd5b610c9589828a01610ab7565b92505060a0610ca689828a01610ae1565b9150509295509295509295565b600060208284031215610cc557600080fd5b6000610cd384828501610aa2565b91505092915050565b600060208284031215610cee57600080fd5b6000610cfc84828501610ae1565b91505092915050565b610d0e816110bf565b82525050565b610d25610d20826110bf565b611185565b82525050565b610d34816110d1565b82525050565b610d43816110dd565b82525050565b6000610d548261104e565b610d5e8185611064565b9350610d6e818560208601611120565b80840191505092915050565b6000610d8582611059565b610d8f818561106f565b9350610d9f818560208601611120565b610da881611240565b840191505092915050565b6000610dbe82611059565b610dc88185611080565b9350610dd8818560208601611120565b80840191505092915050565b610ded81611107565b82525050565b610e04610dff82611107565b6111a9565b82525050565b6000610e168289610d14565b601482019150610e268288610db3565b9150610e328287610db3565b9150610e3e8286610db3565b9150610e4a8285610db3565b9150610e568284610df3565b602082019150819050979650505050505050565b6000610e768284610d49565b915081905092915050565b6000602082019050610e966000830184610d05565b92915050565b6000602082019050610eb16000830184610d2b565b92915050565b6000604082019050610ecc6000830185610d3a565b610ed96020830184610de4565b9392505050565b60006020820190508181036000830152610efa8184610d7a565b905092915050565b6000602082019050610f176000830184610de4565b92915050565b6000608082019050610f326000830187610de4565b8181036020830152610f448186610d7a565b90508181036040830152610f588185610d7a565b90508181036060830152610f6c8184610d7a565b905095945050505050565b600060c082019050610f8c6000830189610de4565b8181036020830152610f9e8188610d7a565b90508181036040830152610fb28187610d7a565b90508181036060830152610fc68186610d7a565b9050610fd56080830185610de4565b610fe260a0830184610d3a565b979650505050505050565b6000604051905081810181811067ffffffffffffffff8211171561101457611013611211565b5b8060405250919050565b600067ffffffffffffffff82111561103957611038611211565b5b601f19601f8301169050602081019050919050565b600081519050919050565b600081519050919050565b600081905092915050565b600082825260208201905092915050565b600081905092915050565b600061109682611107565b91506110a183611107565b9250828210156110b4576110b36111b3565b5b828203905092915050565b60006110ca826110e7565b9050919050565b60008115159050919050565b6000819050919050565b600073ffffffffffffffffffffffffffffffffffffffff82169050919050565b6000819050919050565b82818337600083830152505050565b60005b8381101561113e578082015181840152602081019050611123565b8381111561114d576000848401525b50505050565b6000600282049050600182168061116b57607f821691505b6020821081141561117f5761117e6111e2565b5b50919050565b600061119082611197565b9050919050565b60006111a282611251565b9050919050565b6000819050919050565b7f4e487b7100000000000000000000000000000000000000000000000000000000600052601160045260246000fd5b7f4e487b7100000000000000000000000000000000000000000000000000000000600052602260045260246000fd5b7f4e487b7100000000000000000000000000000000000000000000000000000000600052604160045260246000fd5b6000601f19601f8301169050919050565b60006c0100000000000000000000000082029050919050565b611273816110bf565b811461127e57600080fd5b50565b61128a816110dd565b811461129557600080fd5b50565b6112a181611107565b81146112ac57600080fd5b5056fea2646970667358221220be24de09cc4725ac040a0d1281663c68c49f415a99e316cee47733d2f8792b2064736f6c63430008000033",
  "immutableReferences": {},
  "source": "// SPDX-License-Identifier: GPL-3.0\r\npragma solidity >=0.4.20;\r\n\r\ncontract admin_manufacture {\r\n  address public owner;\r\n  uint256 public creationTime;\r\n  bytes32 a;\r\n  // uint role;\r\n  // mapping(address=>uint) role_Id;\r\n  mapping(address => User) private usersdetail;\r\n  address[] private userarray; // array of address of all users\r\n  uint256 count = userarray.length;\r\n\r\n  constructor() {\r\n    owner = msg.sender;\r\n    creationTime = block.timestamp;\r\n    // usersdetail[0x5B38Da6a701c568545dCfcB03FcB875f56beddC4].userName='manager';\r\n    // usersdetail[0xAb8483F64d9C6d1EcF9b849Ae677dD3315835cb2].userName='supplier';\r\n    // usersdetail[0x4B20993Bc481177ec7E8f571ceCaE8A9e22C02db].userName='retailer';\r\n  }\r\n\r\n  function isUser(address _userAddress) public view returns (bool isIndeed) {\r\n    if (userarray.length == 0) return false;\r\n\r\n    return (userarray[usersdetail[_userAddress].index] == _userAddress);\r\n  }\r\n\r\n  // struct user_roles{\r\n  //    uint user_role;\r\n  // }\r\n  mapping(address => uint256) user_role;\r\n\r\n  struct User {\r\n    uint256 role; // store\r\n    string password;\r\n    string userName;\r\n    address createdBy; // store\r\n    uint256 creationTime;\r\n    string location;\r\n    uint256 index;\r\n    string email;\r\n  }\r\n  event LogUpdateUser(\r\n    address indexed _userAddress,\r\n    uint256 index,\r\n    string email,\r\n    string location,\r\n    string password\r\n  );\r\n  event LogNewUser(\r\n    address indexed _userAddress,\r\n    uint256 index,\r\n    string name,\r\n    string password,\r\n    string email,\r\n    uint256 userrole,\r\n    bytes32 _hash\r\n  );\r\n\r\n  function setUser(\r\n    address _userAddress,\r\n    string memory userName,\r\n    string memory password,\r\n    string memory email,\r\n    string memory location,\r\n    uint256 _role\r\n  ) public returns (bytes32 _a, uint256 index) {\r\n    require(isUser(_userAddress) == false);\r\n    usersdetail[_userAddress].createdBy = msg.sender;\r\n    usersdetail[_userAddress].creationTime = block.timestamp;\r\n    usersdetail[_userAddress].location = location;\r\n    usersdetail[_userAddress].role = _role;\r\n    user_role[_userAddress] = _role;\r\n    userarray.push(_userAddress);\r\n    usersdetail[_userAddress].index = userarray.length - 1;\r\n    a = sha256(\r\n      abi.encodePacked(_userAddress, userName, location, password, email, _role)\r\n    );\r\n\r\n    emit LogNewUser(\r\n      _userAddress,\r\n      usersdetail[_userAddress].index,\r\n      userName,\r\n      password,\r\n      email,\r\n      user_role[_userAddress],\r\n      a\r\n    );\r\n\r\n    return (a, userarray.length - 1);\r\n  }\r\n\r\n  function updateUser(\r\n    address _userAddress,\r\n    string memory email,\r\n    string memory location,\r\n    string memory password\r\n  ) public returns (bool success) {\r\n    require(isUser(_userAddress) == true);\r\n    usersdetail[_userAddress].email = email;\r\n    usersdetail[_userAddress].location = location;\r\n    usersdetail[_userAddress].password = password;\r\n\r\n    emit LogUpdateUser(\r\n      _userAddress,\r\n      usersdetail[_userAddress].index,\r\n      email,\r\n      location,\r\n      password\r\n    );\r\n    return true;\r\n  }\r\n\r\n  function showRole(uint256 role) public returns (string memory _role) {\r\n    if (\r\n      usersdetail[0x5B38Da6a701c568545dCfcB03FcB875f56beddC4].createdBy ==\r\n      msg.sender\r\n    ) {\r\n      usersdetail[0x5B38Da6a701c568545dCfcB03FcB875f56beddC4].role = 1;\r\n      return 'maufacturer';\r\n    }\r\n  }\r\n}\r\n",
  "sourcePath": "C:\\Users\\dell\\OneDrive\\Documents\\fyp\\mealProof_contract\\contracts\\admin_manufact.sol",
  "compiler": {
    "name": "solc",
    "version": "0.8.0+commit.c7dfd78e.Emscripten.clang"
  },
  "schemaVersion": "3.4.7",
  "updatedAt": "2022-07-01T19:57:36.147Z",
  "devdoc": {
    "kind": "dev",
    "methods": {},
    "version": 1
  },
  "userdoc": {
    "kind": "user",
    "methods": {},
    "version": 1
  }
}