{
  "contractName": "token",
  "abi": [
    {
      "inputs": [],
      "stateMutability": "nonpayable",
      "type": "constructor"
    },
    {
      "anonymous": false,
      "inputs": [
        {
          "indexed": true,
          "internalType": "address",
          "name": "owner",
          "type": "address"
        },
        {
          "indexed": true,
          "internalType": "address",
          "name": "approved",
          "type": "address"
        },
        {
          "indexed": true,
          "internalType": "uint256",
          "name": "tokenId",
          "type": "uint256"
        }
      ],
      "name": "Approval",
      "type": "event"
    },
    {
      "anonymous": false,
      "inputs": [
        {
          "indexed": true,
          "internalType": "address",
          "name": "owner",
          "type": "address"
        },
        {
          "indexed": true,
          "internalType": "address",
          "name": "operator",
          "type": "address"
        },
        {
          "indexed": false,
          "internalType": "bool",
          "name": "approved",
          "type": "bool"
        }
      ],
      "name": "ApprovalForAll",
      "type": "event"
    },
    {
      "anonymous": false,
      "inputs": [
        {
          "indexed": true,
          "internalType": "address",
          "name": "from",
          "type": "address"
        },
        {
          "indexed": true,
          "internalType": "address",
          "name": "to",
          "type": "address"
        },
        {
          "indexed": true,
          "internalType": "uint256",
          "name": "tokenId",
          "type": "uint256"
        }
      ],
      "name": "Transfer",
      "type": "event"
    },
    {
      "anonymous": false,
      "inputs": [
        {
          "indexed": false,
          "internalType": "bytes32",
          "name": "tokenID",
          "type": "bytes32"
        },
        {
          "indexed": false,
          "internalType": "string",
          "name": "_mystring",
          "type": "string"
        },
        {
          "indexed": false,
          "internalType": "uint256",
          "name": "createdAt",
          "type": "uint256"
        }
      ],
      "name": "_purchasedByManufacturer",
      "type": "event"
    },
    {
      "anonymous": false,
      "inputs": [
        {
          "indexed": false,
          "internalType": "bytes32",
          "name": "tokenID",
          "type": "bytes32"
        },
        {
          "indexed": false,
          "internalType": "string",
          "name": "_mystring",
          "type": "string"
        },
        {
          "indexed": false,
          "internalType": "uint256",
          "name": "createdAt",
          "type": "uint256"
        },
        {
          "indexed": false,
          "internalType": "bytes32[]",
          "name": "recipe",
          "type": "bytes32[]"
        }
      ],
      "name": "_purchasedByRetailer",
      "type": "event"
    },
    {
      "anonymous": false,
      "inputs": [
        {
          "indexed": false,
          "internalType": "bytes32",
          "name": "tokenID",
          "type": "bytes32"
        },
        {
          "indexed": false,
          "internalType": "string",
          "name": "_mystring",
          "type": "string"
        },
        {
          "indexed": false,
          "internalType": "uint256",
          "name": "createdAt",
          "type": "uint256"
        }
      ],
      "name": "lognewItem",
      "type": "event"
    },
    {
      "anonymous": false,
      "inputs": [
        {
          "indexed": false,
          "internalType": "bytes32",
          "name": "tokenID",
          "type": "bytes32"
        },
        {
          "indexed": false,
          "internalType": "string",
          "name": "_mystring",
          "type": "string"
        },
        {
          "indexed": false,
          "internalType": "uint256",
          "name": "createdAt",
          "type": "uint256"
        }
      ],
      "name": "lognewNugget",
      "type": "event"
    },
    {
      "anonymous": false,
      "inputs": [
        {
          "indexed": false,
          "internalType": "bytes32[]",
          "name": "recipe",
          "type": "bytes32[]"
        }
      ],
      "name": "newnugget",
      "type": "event"
    },
    {
      "inputs": [
        {
          "internalType": "address",
          "name": "to",
          "type": "address"
        },
        {
          "internalType": "uint256",
          "name": "tokenId",
          "type": "uint256"
        }
      ],
      "name": "approve",
      "outputs": [],
      "stateMutability": "nonpayable",
      "type": "function"
    },
    {
      "inputs": [
        {
          "internalType": "address",
          "name": "owner",
          "type": "address"
        }
      ],
      "name": "balanceOf",
      "outputs": [
        {
          "internalType": "uint256",
          "name": "",
          "type": "uint256"
        }
      ],
      "stateMutability": "view",
      "type": "function"
    },
    {
      "inputs": [
        {
          "internalType": "uint256",
          "name": "tokenId",
          "type": "uint256"
        }
      ],
      "name": "getApproved",
      "outputs": [
        {
          "internalType": "address",
          "name": "",
          "type": "address"
        }
      ],
      "stateMutability": "view",
      "type": "function"
    },
    {
      "inputs": [
        {
          "internalType": "address",
          "name": "owner",
          "type": "address"
        },
        {
          "internalType": "address",
          "name": "operator",
          "type": "address"
        }
      ],
      "name": "isApprovedForAll",
      "outputs": [
        {
          "internalType": "bool",
          "name": "",
          "type": "bool"
        }
      ],
      "stateMutability": "view",
      "type": "function"
    },
    {
      "inputs": [],
      "name": "name",
      "outputs": [
        {
          "internalType": "string",
          "name": "",
          "type": "string"
        }
      ],
      "stateMutability": "view",
      "type": "function"
    },
    {
      "inputs": [
        {
          "internalType": "uint256",
          "name": "tokenId",
          "type": "uint256"
        }
      ],
      "name": "ownerOf",
      "outputs": [
        {
          "internalType": "address",
          "name": "",
          "type": "address"
        }
      ],
      "stateMutability": "view",
      "type": "function"
    },
    {
      "inputs": [
        {
          "internalType": "address",
          "name": "from",
          "type": "address"
        },
        {
          "internalType": "address",
          "name": "to",
          "type": "address"
        },
        {
          "internalType": "uint256",
          "name": "tokenId",
          "type": "uint256"
        }
      ],
      "name": "safeTransferFrom",
      "outputs": [],
      "stateMutability": "nonpayable",
      "type": "function"
    },
    {
      "inputs": [
        {
          "internalType": "address",
          "name": "from",
          "type": "address"
        },
        {
          "internalType": "address",
          "name": "to",
          "type": "address"
        },
        {
          "internalType": "uint256",
          "name": "tokenId",
          "type": "uint256"
        },
        {
          "internalType": "bytes",
          "name": "_data",
          "type": "bytes"
        }
      ],
      "name": "safeTransferFrom",
      "outputs": [],
      "stateMutability": "nonpayable",
      "type": "function"
    },
    {
      "inputs": [
        {
          "internalType": "address",
          "name": "operator",
          "type": "address"
        },
        {
          "internalType": "bool",
          "name": "approved",
          "type": "bool"
        }
      ],
      "name": "setApprovalForAll",
      "outputs": [],
      "stateMutability": "nonpayable",
      "type": "function"
    },
    {
      "inputs": [
        {
          "internalType": "bytes4",
          "name": "interfaceId",
          "type": "bytes4"
        }
      ],
      "name": "supportsInterface",
      "outputs": [
        {
          "internalType": "bool",
          "name": "",
          "type": "bool"
        }
      ],
      "stateMutability": "view",
      "type": "function"
    },
    {
      "inputs": [],
      "name": "symbol",
      "outputs": [
        {
          "internalType": "string",
          "name": "",
          "type": "string"
        }
      ],
      "stateMutability": "view",
      "type": "function"
    },
    {
      "inputs": [
        {
          "internalType": "uint256",
          "name": "tokenId",
          "type": "uint256"
        }
      ],
      "name": "tokenURI",
      "outputs": [
        {
          "internalType": "string",
          "name": "",
          "type": "string"
        }
      ],
      "stateMutability": "view",
      "type": "function"
    },
    {
      "inputs": [
        {
          "internalType": "address",
          "name": "from",
          "type": "address"
        },
        {
          "internalType": "address",
          "name": "to",
          "type": "address"
        },
        {
          "internalType": "uint256",
          "name": "tokenId",
          "type": "uint256"
        }
      ],
      "name": "transferFrom",
      "outputs": [],
      "stateMutability": "nonpayable",
      "type": "function"
    },
    {
      "inputs": [
        {
          "internalType": "bytes32",
          "name": "productHash",
          "type": "bytes32"
        }
      ],
      "name": "itemBySupplier",
      "outputs": [
        {
          "internalType": "uint256",
          "name": "",
          "type": "uint256"
        }
      ],
      "stateMutability": "nonpayable",
      "type": "function"
    },
    {
      "inputs": [
        {
          "internalType": "uint256",
          "name": "_tokenId",
          "type": "uint256"
        },
        {
          "internalType": "uint256",
          "name": "_price",
          "type": "uint256"
        }
      ],
      "name": "itemForSale",
      "outputs": [],
      "stateMutability": "nonpayable",
      "type": "function"
    },
    {
      "inputs": [
        {
          "internalType": "address",
          "name": "from",
          "type": "address"
        },
        {
          "internalType": "address",
          "name": "to",
          "type": "address"
        },
        {
          "internalType": "bytes32",
          "name": "productHash",
          "type": "bytes32"
        }
      ],
      "name": "purchasedByManufacturer",
      "outputs": [],
      "stateMutability": "nonpayable",
      "type": "function"
    },
    {
      "inputs": [
        {
          "internalType": "uint256",
          "name": "int_tokenID",
          "type": "uint256"
        }
      ],
      "name": "shippedBySupplier",
      "outputs": [],
      "stateMutability": "nonpayable",
      "type": "function"
    },
    {
      "inputs": [
        {
          "internalType": "bytes32",
          "name": "recipeHash",
          "type": "bytes32"
        },
        {
          "internalType": "bytes32",
          "name": "fproductHash",
          "type": "bytes32"
        }
      ],
      "name": "packagedByManufacturer",
      "outputs": [
        {
          "internalType": "uint256",
          "name": "",
          "type": "uint256"
        }
      ],
      "stateMutability": "nonpayable",
      "type": "function"
    },
    {
      "inputs": [
        {
          "internalType": "address",
          "name": "from",
          "type": "address"
        },
        {
          "internalType": "address",
          "name": "to",
          "type": "address"
        },
        {
          "internalType": "bytes32",
          "name": "fproductHash",
          "type": "bytes32"
        }
      ],
      "name": "purchasedByRetailer",
      "outputs": [],
      "stateMutability": "nonpayable",
      "type": "function"
    },
    {
      "inputs": [
        {
          "internalType": "address",
          "name": "sender",
          "type": "address"
        },
        {
          "internalType": "address",
          "name": "receiver",
          "type": "address"
        },
        {
          "internalType": "uint256",
          "name": "date",
          "type": "uint256"
        },
        {
          "internalType": "uint256",
          "name": "txn",
          "type": "uint256"
        }
      ],
      "name": "validate",
      "outputs": [
        {
          "internalType": "bool",
          "name": "valid",
          "type": "bool"
        }
      ],
      "stateMutability": "view",
      "type": "function"
    }
  ],
  "bytecode": "0x60806040523480156200001157600080fd5b506040518060400160405280600b81526020017f737570706c79636861696e0000000000000000000000000000000000000000008152506040518060400160405280600381526020017f5343500000000000000000000000000000000000000000000000000000000000815250816000908051906020019062000096929190620000f9565b508060019080519060200190620000af929190620000f9565b50505033600660006101000a81548173ffffffffffffffffffffffffffffffffffffffff021916908373ffffffffffffffffffffffffffffffffffffffff1602179055506200020e565b8280546200010790620001a9565b90600052602060002090601f0160209004810192826200012b576000855562000177565b82601f106200014657805160ff191683800117855562000177565b8280016001018555821562000177579182015b828111156200017657825182559160200191906001019062000159565b5b5090506200018691906200018a565b5090565b5b80821115620001a55760008160009055506001016200018b565b5090565b60006002820490506001821680620001c257607f821691505b60208210811415620001d957620001d8620001df565b5b50919050565b7f4e487b7100000000000000000000000000000000000000000000000000000000600052602260045260246000fd5b6136f6806200021e6000396000f3fe608060405234801561001057600080fd5b5060043610610149576000357c01000000000000000000000000000000000000000000000000000000009004806370a08231116100ca578063c87b56dd1161008e578063c87b56dd14610346578063cd85916514610376578063e67a508e146103a6578063e985e9c5146103d6578063faf3e6d41461040657610149565b806370a08231146102a4578063762e24be146102d457806395d89b41146102f0578063a22cb4651461030e578063b88d4fde1461032a57610149565b80631dddd834116101115780631dddd8341461020457806323b872dd1461022057806342842e0e1461023c5780636352211e14610258578063709235501461028857610149565b806301ffc9a71461014e57806305b631131461017e57806306fdde031461019a578063081812fc146101b8578063095ea7b3146101e8575b600080fd5b6101686004803603810190610163919061249a565b610436565b6040516101759190612ea4565b60405180910390f35b610198600480360381019061019391906124ec565b610518565b005b6101a2610580565b6040516101af9190612fc4565b60405180910390f35b6101d260048036038101906101cd91906124ec565b610612565b6040516101df9190612e1b565b60405180910390f35b61020260048036038101906101fd91906123d0565b610697565b005b61021e60048036038101906102199190612515565b6107af565b005b61023a60048036038101906102359190612267565b610844565b005b61025660048036038101906102519190612267565b6108a4565b005b610272600480360381019061026d91906124ec565b6108c4565b60405161027f9190612e1b565b60405180910390f35b6102a2600480360381019061029d9190612218565b610976565b005b6102be60048036038101906102b991906121b3565b610aed565b6040516102cb91906131c6565b60405180910390f35b6102ee60048036038101906102e99190612218565b610ba5565b005b6102f8610d05565b6040516103059190612fc4565b60405180910390f35b61032860048036038101906103239190612394565b610d97565b005b610344600480360381019061033f91906122b6565b610dad565b005b610360600480360381019061035b91906124ec565b610e0f565b60405161036d9190612fc4565b60405180910390f35b610390600480360381019061038b9190612331565b610eb6565b60405161039d9190612ea4565b60405180910390f35b6103c060048036038101906103bb919061245e565b610f8e565b6040516103cd91906131c6565b60405180910390f35b6103f060048036038101906103eb91906121dc565b6111d8565b6040516103fd9190612ea4565b60405180910390f35b610420600480360381019061041b919061240c565b61126c565b60405161042d91906131c6565b60405180910390f35b60007f80ac58cd000000000000000000000000000000000000000000000000000000007bffffffffffffffffffffffffffffffffffffffffffffffffffffffff1916827bffffffffffffffffffffffffffffffffffffffffffffffffffffffff1916148061050157507f5b5e139f000000000000000000000000000000000000000000000000000000007bffffffffffffffffffffffffffffffffffffffffffffffffffffffff1916827bffffffffffffffffffffffffffffffffffffffffffffffffffffffff1916145b8061051157506105108261143e565b5b9050919050565b6003600b600083815260200190815260200160002060010160146101000a81548160ff02191690836009811115610578577f4e487b7100000000000000000000000000000000000000000000000000000000600052602160045260246000fd5b021790555050565b60606000805461058f90613453565b80601f01602080910402602001604051908101604052809291908181526020018280546105bb90613453565b80156106085780601f106105dd57610100808354040283529160200191610608565b820191906000526020600020905b8154815290600101906020018083116105eb57829003601f168201915b5050505050905090565b600061061d826114a8565b61065c576040517f08c379a000000000000000000000000000000000000000000000000000000000815260040161065390613126565b60405180910390fd5b6004600083815260200190815260200160002060009054906101000a900473ffffffffffffffffffffffffffffffffffffffff169050919050565b60006106a2826108c4565b90508073ffffffffffffffffffffffffffffffffffffffff168373ffffffffffffffffffffffffffffffffffffffff161415610713576040517f08c379a000000000000000000000000000000000000000000000000000000000815260040161070a90613186565b60405180910390fd5b8073ffffffffffffffffffffffffffffffffffffffff16610732611514565b73ffffffffffffffffffffffffffffffffffffffff16148061076157506107608161075b611514565b6111d8565b5b6107a0576040517f08c379a0000000000000000000000000000000000000000000000000000000008152600401610797906130a6565b60405180910390fd5b6107aa838361151c565b505050565b3373ffffffffffffffffffffffffffffffffffffffff166107cf836108c4565b73ffffffffffffffffffffffffffffffffffffffff1614610825576040517f08c379a000000000000000000000000000000000000000000000000000000000815260040161081c90613146565b60405180910390fd5b80600b6000848152602001908152602001600020600201819055505050565b61085561084f611514565b826115d5565b610894576040517f08c379a000000000000000000000000000000000000000000000000000000000815260040161088b906131a6565b60405180910390fd5b61089f8383836116b3565b505050565b6108bf83838360405180602001604052806000815250610dad565b505050565b6000806002600084815260200190815260200160002060009054906101000a900473ffffffffffffffffffffffffffffffffffffffff169050600073ffffffffffffffffffffffffffffffffffffffff168173ffffffffffffffffffffffffffffffffffffffff16141561096d576040517f08c379a0000000000000000000000000000000000000000000000000000000008152600401610964906130e6565b60405180910390fd5b80915050919050565b338242600283838360405160200161099093929190612da3565b6040516020818303038152906040526040516109ac9190612de0565b602060405180830381855afa1580156109c9573d6000803e3d6000fd5b5050506040513d601f19601f820116820180604052508101906109ec9190612435565b60088190555060076008549080600181540180825580915050600190039060005260206000200160009091909190915055610a2c868686600190046108a4565b6007600b60008660019004815260200190815260200160002060010160146101000a81548160ff02191690836009811115610a90577f4e487b7100000000000000000000000000000000000000000000000000000000600052602160045260246000fd5b02179055507f8d7d1a5ff22cccbf31c2651a4f62d3dd235d9398bdbea645fe1d30325cdb81e98442600c6000888152602001908152602001600020600201604051610add93929190612ebf565b60405180910390a1505050505050565b60008073ffffffffffffffffffffffffffffffffffffffff168273ffffffffffffffffffffffffffffffffffffffff161415610b5e576040517f08c379a0000000000000000000000000000000000000000000000000000000008152600401610b55906130c6565b60405180910390fd5b600360008373ffffffffffffffffffffffffffffffffffffffff1673ffffffffffffffffffffffffffffffffffffffff168152602001908152602001600020549050919050565b3382426002838383604051602001610bbf93929190612da3565b604051602081830303815290604052604051610bdb9190612de0565b602060405180830381855afa158015610bf8573d6000803e3d6000fd5b5050506040513d601f19601f82011682018060405250810190610c1b9190612435565b60088190555060076008549080600181540180825580915050600190039060005260206000200160009091909190915055610c5b868686600190046108a4565b6002600b60008660019004815260200190815260200160002060010160146101000a81548160ff02191690836009811115610cbf577f4e487b7100000000000000000000000000000000000000000000000000000000600052602160045260246000fd5b02179055507fbd3aa759a6a523ef7910710ba79249972a56fb4af683c390e1ed384853f830478442604051610cf5929190612f4c565b60405180910390a1505050505050565b606060018054610d1490613453565b80601f0160208091040260200160405190810160405280929190818152602001828054610d4090613453565b8015610d8d5780601f10610d6257610100808354040283529160200191610d8d565b820191906000526020600020905b815481529060010190602001808311610d7057829003601f168201915b5050505050905090565b610da9610da2611514565b838361191a565b5050565b610dbe610db8611514565b836115d5565b610dfd576040517f08c379a0000000000000000000000000000000000000000000000000000000008152600401610df4906131a6565b60405180910390fd5b610e0984848484611a87565b50505050565b6060610e1a826114a8565b610e59576040517f08c379a0000000000000000000000000000000000000000000000000000000008152600401610e5090613166565b60405180910390fd5b6000610e63611ae3565b90506000815111610e835760405180602001604052806000815250610eae565b80610e8d84611afa565b604051602001610e9e929190612df7565b6040516020818303038152906040525b915050919050565b6000806002868686604051602001610ed093929190612da3565b604051602081830303815290604052604051610eec9190612de0565b602060405180830381855afa158015610f09573d6000803e3d6000fd5b5050506040513d601f19601f82011682018060405250810190610f2c9190612435565b90508060078481548110610f69577f4e487b7100000000000000000000000000000000000000000000000000000000600052603260045260246000fd5b90600052602060002001541415610f84576001915050610f86565b505b949350505050565b60008083600190049050600083600190049050600060405180608001604052808681526020013373ffffffffffffffffffffffffffffffffffffffff1681526020016005600981111561100a577f4e487b7100000000000000000000000000000000000000000000000000000000600052602160045260246000fd5b8152602001600980548060200260200160405190810160405280929190818152602001828054801561105b57602002820191906000526020600020905b815481526020019060010190808311611047575b50505050508152509050600c60008681526020019081526020016000206002018690806001815401808255809150506001900390600052602060002001600090919091909150556110ac3383611cc6565b7ffb4bc4a46680a838b08e912e2892eeac0b06b4ceb2a33119cd60ec28664f122785426040516110dd929190612f88565b60405180910390a17fdb790bb06312a8d4c00a4c9418c6923dd4b146260a7da8819e02cce770e77438600c60008781526020019081526020016000206002016040516111299190612e82565b60405180910390a16005600c600087815260200190815260200160002060010160146101000a81548160ff02191690836009811115611191577f4e487b7100000000000000000000000000000000000000000000000000000000600052602160045260246000fd5b0217905560098111156111cd577f4e487b7100000000000000000000000000000000000000000000000000000000600052602160045260246000fd5b935050505092915050565b6000600560008473ffffffffffffffffffffffffffffffffffffffff1673ffffffffffffffffffffffffffffffffffffffff16815260200190815260200160002060008373ffffffffffffffffffffffffffffffffffffffff1673ffffffffffffffffffffffffffffffffffffffff16815260200190815260200160002060009054906101000a900460ff16905092915050565b6000803342600283838360405160200161128893929190612da3565b6040516020818303038152906040526040516112a49190612de0565b602060405180830381855afa1580156112c1573d6000803e3d6000fd5b5050506040513d601f19601f820116820180604052508101906112e49190612435565b60088190555060076008549080600181540180825580915050600190039060005260206000200160009091909190915055600085600190049050600060405180608001604052808881526020013373ffffffffffffffffffffffffffffffffffffffff16815260200160006009811115611387577f4e487b7100000000000000000000000000000000000000000000000000000000600052602160045260246000fd5b81526020016000815250905061139d3383611cc6565b7f53ce4e5c48847bc49cddc1f235ad79eab803a96f48b8502e7a45f34ccff246b187426040516113ce929190612f10565b60405180910390a1600b600083815260200190815260200160002060010160149054906101000a900460ff166009811115611432577f4e487b7100000000000000000000000000000000000000000000000000000000600052602160045260246000fd5b95505050505050919050565b60007f01ffc9a7000000000000000000000000000000000000000000000000000000007bffffffffffffffffffffffffffffffffffffffffffffffffffffffff1916827bffffffffffffffffffffffffffffffffffffffffffffffffffffffff1916149050919050565b60008073ffffffffffffffffffffffffffffffffffffffff166002600084815260200190815260200160002060009054906101000a900473ffffffffffffffffffffffffffffffffffffffff1673ffffffffffffffffffffffffffffffffffffffff1614159050919050565b600033905090565b816004600083815260200190815260200160002060006101000a81548173ffffffffffffffffffffffffffffffffffffffff021916908373ffffffffffffffffffffffffffffffffffffffff160217905550808273ffffffffffffffffffffffffffffffffffffffff1661158f836108c4565b73ffffffffffffffffffffffffffffffffffffffff167f8c5be1e5ebec7d5bd14f71427d1e84f3dd0314c0f7b2291e5b200ac8c7c3b92560405160405180910390a45050565b60006115e0826114a8565b61161f576040517f08c379a000000000000000000000000000000000000000000000000000000000815260040161161690613086565b60405180910390fd5b600061162a836108c4565b90508073ffffffffffffffffffffffffffffffffffffffff168473ffffffffffffffffffffffffffffffffffffffff16148061169957508373ffffffffffffffffffffffffffffffffffffffff1661168184610612565b73ffffffffffffffffffffffffffffffffffffffff16145b806116aa57506116a981856111d8565b5b91505092915050565b8273ffffffffffffffffffffffffffffffffffffffff166116d3826108c4565b73ffffffffffffffffffffffffffffffffffffffff1614611729576040517f08c379a000000000000000000000000000000000000000000000000000000000815260040161172090613006565b60405180910390fd5b600073ffffffffffffffffffffffffffffffffffffffff168273ffffffffffffffffffffffffffffffffffffffff161415611799576040517f08c379a000000000000000000000000000000000000000000000000000000000815260040161179090613046565b60405180910390fd5b6117a4838383611ea0565b6117af60008261151c565b6001600360008573ffffffffffffffffffffffffffffffffffffffff1673ffffffffffffffffffffffffffffffffffffffff16815260200190815260200160002060008282546117ff9190613355565b925050819055506001600360008473ffffffffffffffffffffffffffffffffffffffff1673ffffffffffffffffffffffffffffffffffffffff168152602001908152602001600020600082825461185691906132ce565b92505081905550816002600083815260200190815260200160002060006101000a81548173ffffffffffffffffffffffffffffffffffffffff021916908373ffffffffffffffffffffffffffffffffffffffff160217905550808273ffffffffffffffffffffffffffffffffffffffff168473ffffffffffffffffffffffffffffffffffffffff167fddf252ad1be2c89b69c2b068fc378daa952ba7f163c4a11628f55a4df523b3ef60405160405180910390a4611915838383611ea5565b505050565b8173ffffffffffffffffffffffffffffffffffffffff168373ffffffffffffffffffffffffffffffffffffffff161415611989576040517f08c379a000000000000000000000000000000000000000000000000000000000815260040161198090613066565b60405180910390fd5b80600560008573ffffffffffffffffffffffffffffffffffffffff1673ffffffffffffffffffffffffffffffffffffffff16815260200190815260200160002060008473ffffffffffffffffffffffffffffffffffffffff1673ffffffffffffffffffffffffffffffffffffffff16815260200190815260200160002060006101000a81548160ff0219169083151502179055508173ffffffffffffffffffffffffffffffffffffffff168373ffffffffffffffffffffffffffffffffffffffff167f17307eab39ab6107e8899845ad3d59bd9653f200f220920489ca2b5937696c3183604051611a7a9190612ea4565b60405180910390a3505050565b611a928484846116b3565b611a9e84848484611eaa565b611add576040517f08c379a0000000000000000000000000000000000000000000000000000000008152600401611ad490612fe6565b60405180910390fd5b50505050565b606060405180602001604052806000815250905090565b60606000821415611b42576040518060400160405280600181526020017f30000000000000000000000000000000000000000000000000000000000000008152509050611cc1565b600082905060005b60008214611b74578080611b5d9061349f565b915050600a82611b6d9190613324565b9150611b4a565b60008167ffffffffffffffff811115611bb6577f4e487b7100000000000000000000000000000000000000000000000000000000600052604160045260246000fd5b6040519080825280601f01601f191660200182016040528015611be85781602001600182028036833780820191505090505b5090505b60008514611cba57600182611c019190613355565b9150600a85611c109190613516565b6030611c1c91906132ce565b7f010000000000000000000000000000000000000000000000000000000000000002818381518110611c77577f4e487b7100000000000000000000000000000000000000000000000000000000600052603260045260246000fd5b60200101907effffffffffffffffffffffffffffffffffffffffffffffffffffffffffffff1916908160001a905350600a85611cb39190613324565b9450611bec565b8093505050505b919050565b600073ffffffffffffffffffffffffffffffffffffffff168273ffffffffffffffffffffffffffffffffffffffff161415611d36576040517f08c379a0000000000000000000000000000000000000000000000000000000008152600401611d2d90613106565b60405180910390fd5b611d3f816114a8565b15611d7f576040517f08c379a0000000000000000000000000000000000000000000000000000000008152600401611d7690613026565b60405180910390fd5b611d8b60008383611ea0565b6001600360008473ffffffffffffffffffffffffffffffffffffffff1673ffffffffffffffffffffffffffffffffffffffff1681526020019081526020016000206000828254611ddb91906132ce565b92505081905550816002600083815260200190815260200160002060006101000a81548173ffffffffffffffffffffffffffffffffffffffff021916908373ffffffffffffffffffffffffffffffffffffffff160217905550808273ffffffffffffffffffffffffffffffffffffffff16600073ffffffffffffffffffffffffffffffffffffffff167fddf252ad1be2c89b69c2b068fc378daa952ba7f163c4a11628f55a4df523b3ef60405160405180910390a4611e9c60008383611ea5565b5050565b505050565b505050565b6000611ecb8473ffffffffffffffffffffffffffffffffffffffff16612079565b1561206c578373ffffffffffffffffffffffffffffffffffffffff1663150b7a02611ef4611514565b8786866040518563ffffffff167c0100000000000000000000000000000000000000000000000000000000028152600401611f329493929190612e36565b602060405180830381600087803b158015611f4c57600080fd5b505af1925050508015611f7d57506040513d601f19601f82011682018060405250810190611f7a91906124c3565b60015b612000573d8060008114611fad576040519150601f19603f3d011682016040523d82523d6000602084013e611fb2565b606091505b50600081511415611ff8576040517f08c379a0000000000000000000000000000000000000000000000000000000008152600401611fef90612fe6565b60405180910390fd5b805181602001fd5b63150b7a027c0100000000000000000000000000000000000000000000000000000000027bffffffffffffffffffffffffffffffffffffffffffffffffffffffff1916817bffffffffffffffffffffffffffffffffffffffffffffffffffffffff191614915050612071565b600190505b949350505050565b6000808273ffffffffffffffffffffffffffffffffffffffff16803b806020016040519081016040528181526000908060200190933c51119050919050565b60006120cb6120c684613212565b6131e1565b9050828152602081018484840111156120e357600080fd5b6120ee848285613411565b509392505050565b6000813590506121058161364d565b92915050565b60008135905061211a81613664565b92915050565b60008135905061212f8161367b565b92915050565b6000815190506121448161367b565b92915050565b60008135905061215981613692565b92915050565b60008151905061216e81613692565b92915050565b600082601f83011261218557600080fd5b81356121958482602086016120b8565b91505092915050565b6000813590506121ad816136a9565b92915050565b6000602082840312156121c557600080fd5b60006121d3848285016120f6565b91505092915050565b600080604083850312156121ef57600080fd5b60006121fd858286016120f6565b925050602061220e858286016120f6565b9150509250929050565b60008060006060848603121561222d57600080fd5b600061223b868287016120f6565b935050602061224c868287016120f6565b925050604061225d86828701612120565b9150509250925092565b60008060006060848603121561227c57600080fd5b600061228a868287016120f6565b935050602061229b868287016120f6565b92505060406122ac8682870161219e565b9150509250925092565b600080600080608085870312156122cc57600080fd5b60006122da878288016120f6565b94505060206122eb878288016120f6565b93505060406122fc8782880161219e565b925050606085013567ffffffffffffffff81111561231957600080fd5b61232587828801612174565b91505092959194509250565b6000806000806080858703121561234757600080fd5b6000612355878288016120f6565b9450506020612366878288016120f6565b93505060406123778782880161219e565b92505060606123888782880161219e565b91505092959194509250565b600080604083850312156123a757600080fd5b60006123b5858286016120f6565b92505060206123c68582860161210b565b9150509250929050565b600080604083850312156123e357600080fd5b60006123f1858286016120f6565b92505060206124028582860161219e565b9150509250929050565b60006020828403121561241e57600080fd5b600061242c84828501612120565b91505092915050565b60006020828403121561244757600080fd5b600061245584828501612135565b91505092915050565b6000806040838503121561247157600080fd5b600061247f85828601612120565b925050602061249085828601612120565b9150509250929050565b6000602082840312156124ac57600080fd5b60006124ba8482850161214a565b91505092915050565b6000602082840312156124d557600080fd5b60006124e38482850161215f565b91505092915050565b6000602082840312156124fe57600080fd5b600061250c8482850161219e565b91505092915050565b6000806040838503121561252857600080fd5b60006125368582860161219e565b92505060206125478582860161219e565b9150509250929050565b600061255d8383612603565b60208301905092915050565b61257281613393565b82525050565b61258961258482613393565b6134e8565b82525050565b600061259a82613257565b6125a48185613285565b93506125af83613242565b8060005b838110156125e7576125c482613603565b6125ce8882612551565b97506125d983613278565b9250506001810190506125b3565b5085935050505092915050565b6125fd816133a5565b82525050565b61260c816133b1565b82525050565b61261b816133b1565b82525050565b600061262c82613262565b6126368185613296565b9350612646818560208601613420565b61264f81613616565b840191505092915050565b600061266582613262565b61266f81856132a7565b935061267f818560208601613420565b80840191505092915050565b60006126968261326d565b6126a081856132b2565b93506126b0818560208601613420565b6126b981613616565b840191505092915050565b60006126cf8261326d565b6126d981856132c3565b93506126e9818560208601613420565b80840191505092915050565b60006127026032836132b2565b91507f4552433732313a207472616e7366657220746f206e6f6e20455243373231526560008301527f63656976657220696d706c656d656e74657200000000000000000000000000006020830152604082019050919050565b60006127686025836132b2565b91507f4552433732313a207472616e736665722066726f6d20696e636f72726563742060008301527f6f776e65720000000000000000000000000000000000000000000000000000006020830152604082019050919050565b60006127ce601c836132b2565b91507f4552433732313a20746f6b656e20616c7265616479206d696e746564000000006000830152602082019050919050565b600061280e601a836132b2565b91507f4974656d207075726368617365642062792052657461696c65720000000000006000830152602082019050919050565b600061284e6024836132b2565b91507f4552433732313a207472616e7366657220746f20746865207a65726f2061646460008301527f72657373000000000000000000000000000000000000000000000000000000006020830152604082019050919050565b60006128b46019836132b2565b91507f4552433732313a20617070726f766520746f2063616c6c6572000000000000006000830152602082019050919050565b60006128f4602c836132b2565b91507f4552433732313a206f70657261746f7220717565727920666f72206e6f6e657860008301527f697374656e7420746f6b656e00000000000000000000000000000000000000006020830152604082019050919050565b600061295a6038836132b2565b91507f4552433732313a20617070726f76652063616c6c6572206973206e6f74206f7760008301527f6e6572206e6f7220617070726f76656420666f7220616c6c00000000000000006020830152604082019050919050565b60006129c0602a836132b2565b91507f4552433732313a2062616c616e636520717565727920666f7220746865207a6560008301527f726f2061646472657373000000000000000000000000000000000000000000006020830152604082019050919050565b6000612a266029836132b2565b91507f4552433732313a206f776e657220717565727920666f72206e6f6e657869737460008301527f656e7420746f6b656e00000000000000000000000000000000000000000000006020830152604082019050919050565b6000612a8c6018836132b2565b91507f4974656d206372656174656420627920737570706c69657200000000000000006000830152602082019050919050565b6000612acc6020836132b2565b91507f4552433732313a206d696e7420746f20746865207a65726f20616464726573736000830152602082019050919050565b6000612b0c602c836132b2565b91507f4552433732313a20617070726f76656420717565727920666f72206e6f6e657860008301527f697374656e7420746f6b656e00000000000000000000000000000000000000006020830152604082019050919050565b6000612b726027836132b2565b91507f596f752063616e27742073616c6520746865206974656d20796f7520646f6e2760008301527f74206f776e6564000000000000000000000000000000000000000000000000006020830152604082019050919050565b6000612bd8602f836132b2565b91507f4552433732314d657461646174613a2055524920717565727920666f72206e6f60008301527f6e6578697374656e7420746f6b656e00000000000000000000000000000000006020830152604082019050919050565b6000612c3e6021836132b2565b91507f4552433732313a20617070726f76616c20746f2063757272656e74206f776e6560008301527f72000000000000000000000000000000000000000000000000000000000000006020830152604082019050919050565b6000612ca4601e836132b2565b91507f4974656d20707572636861736564206279204d616e75666163747572657200006000830152602082019050919050565b6000612ce46031836132b2565b91507f4552433732313a207472616e736665722063616c6c6572206973206e6f74206f60008301527f776e6572206e6f7220617070726f7665640000000000000000000000000000006020830152604082019050919050565b6000612d4a601d836132b2565b91507f4974656d207061636b61676564206279204d616e7566616374757265720000006000830152602082019050919050565b612d8681613407565b82525050565b612d9d612d9882613407565b61350c565b82525050565b6000612daf8286612578565b601482019150612dbf8285612578565b601482019150612dcf8284612d8c565b602082019150819050949350505050565b6000612dec828461265a565b915081905092915050565b6000612e0382856126c4565b9150612e0f82846126c4565b91508190509392505050565b6000602082019050612e306000830184612569565b92915050565b6000608082019050612e4b6000830187612569565b612e586020830186612569565b612e656040830185612d7d565b8181036060830152612e778184612621565b905095945050505050565b60006020820190508181036000830152612e9c818461258f565b905092915050565b6000602082019050612eb960008301846125f4565b92915050565b6000608082019050612ed46000830186612612565b8181036020830152612ee581612801565b9050612ef46040830185612d7d565b8181036060830152612f06818461258f565b9050949350505050565b6000606082019050612f256000830185612612565b8181036020830152612f3681612a7f565b9050612f456040830184612d7d565b9392505050565b6000606082019050612f616000830185612612565b8181036020830152612f7281612c97565b9050612f816040830184612d7d565b9392505050565b6000606082019050612f9d6000830185612612565b8181036020830152612fae81612d3d565b9050612fbd6040830184612d7d565b9392505050565b60006020820190508181036000830152612fde818461268b565b905092915050565b60006020820190508181036000830152612fff816126f5565b9050919050565b6000602082019050818103600083015261301f8161275b565b9050919050565b6000602082019050818103600083015261303f816127c1565b9050919050565b6000602082019050818103600083015261305f81612841565b9050919050565b6000602082019050818103600083015261307f816128a7565b9050919050565b6000602082019050818103600083015261309f816128e7565b9050919050565b600060208201905081810360008301526130bf8161294d565b9050919050565b600060208201905081810360008301526130df816129b3565b9050919050565b600060208201905081810360008301526130ff81612a19565b9050919050565b6000602082019050818103600083015261311f81612abf565b9050919050565b6000602082019050818103600083015261313f81612aff565b9050919050565b6000602082019050818103600083015261315f81612b65565b9050919050565b6000602082019050818103600083015261317f81612bcb565b9050919050565b6000602082019050818103600083015261319f81612c31565b9050919050565b600060208201905081810360008301526131bf81612cd7565b9050919050565b60006020820190506131db6000830184612d7d565b92915050565b6000604051905081810181811067ffffffffffffffff82111715613208576132076135d4565b5b8060405250919050565b600067ffffffffffffffff82111561322d5761322c6135d4565b5b601f19601f8301169050602081019050919050565b60008190508160005260206000209050919050565b600081549050919050565b600081519050919050565b600081519050919050565b6000600182019050919050565b600082825260208201905092915050565b600082825260208201905092915050565b600081905092915050565b600082825260208201905092915050565b600081905092915050565b60006132d982613407565b91506132e483613407565b9250827fffffffffffffffffffffffffffffffffffffffffffffffffffffffffffffffff0382111561331957613318613547565b5b828201905092915050565b600061332f82613407565b915061333a83613407565b92508261334a57613349613576565b5b828204905092915050565b600061336082613407565b915061336b83613407565b92508282101561337e5761337d613547565b5b828203905092915050565b6000819050919050565b600061339e826133e7565b9050919050565b60008115159050919050565b6000819050919050565b60007fffffffff0000000000000000000000000000000000000000000000000000000082169050919050565b600073ffffffffffffffffffffffffffffffffffffffff82169050919050565b6000819050919050565b82818337600083830152505050565b60005b8381101561343e578082015181840152602081019050613423565b8381111561344d576000848401525b50505050565b6000600282049050600182168061346b57607f821691505b6020821081141561347f5761347e6135a5565b5b50919050565b600061349861349383613640565b613389565b9050919050565b60006134aa82613407565b91507fffffffffffffffffffffffffffffffffffffffffffffffffffffffffffffffff8214156134dd576134dc613547565b5b600182019050919050565b60006134f3826134fa565b9050919050565b600061350582613627565b9050919050565b6000819050919050565b600061352182613407565b915061352c83613407565b92508261353c5761353b613576565b5b828206905092915050565b7f4e487b7100000000000000000000000000000000000000000000000000000000600052601160045260246000fd5b7f4e487b7100000000000000000000000000000000000000000000000000000000600052601260045260246000fd5b7f4e487b7100000000000000000000000000000000000000000000000000000000600052602260045260246000fd5b7f4e487b7100000000000000000000000000000000000000000000000000000000600052604160045260246000fd5b600061360f8254613485565b9050919050565b6000601f19601f8301169050919050565b60006c0100000000000000000000000082029050919050565b6000600182049050919050565b61365681613393565b811461366157600080fd5b50565b61366d816133a5565b811461367857600080fd5b50565b613684816133b1565b811461368f57600080fd5b50565b61369b816133bb565b81146136a657600080fd5b50565b6136b281613407565b81146136bd57600080fd5b5056fea264697066735822122027dfd2980fca5271eacb950899e0a8f1f5018bce81fcdbb1b4db1f5087f9935064736f6c63430008000033",
  "immutableReferences": {},
  "source": "// SPDX-License-Identifier: GPL-3.0\r\npragma solidity >=0.4.20;\r\nimport '@openzeppelin/contracts/token/ERC721/ERC721.sol';\r\n\r\n// import '@openzeppelin/contracts/token/ERC721/extensions/IERC721Metadata.sol';\r\n\r\ncontract token is ERC721 {\r\n  address contractOwner;\r\n  bytes32[] array_proof;\r\n  bytes32 hash;\r\n  bytes32[] rawItems;\r\n\r\n  constructor() public ERC721('supplychain', 'SCP') {\r\n    contractOwner = msg.sender;\r\n  }\r\n\r\n  bytes32 tokenID;\r\n  enum State {\r\n    producedBySupplier,\r\n    forSaleBySupplier,\r\n    purchasedByManufacturer,\r\n    shippedBySupplier,\r\n    receivedByManufacturer,\r\n    packagedByManufacturer,\r\n    forSaleByManufacturer,\r\n    purchasedByRetailer,\r\n    shippedByManufacturer,\r\n    receivedByRetailer\r\n  }\r\n  struct Item {\r\n    bytes32 product_code;\r\n    address ownerID;\r\n    State itemState;\r\n    uint256 price;\r\n  }\r\n  struct Nugget {\r\n    bytes32 product_code;\r\n    address ownerID;\r\n    State NuggetState;\r\n    bytes32[] items;\r\n  }\r\n\r\n  //hashtable----------------------------------\r\n  mapping(uint256 => Item) itemInfo;\r\n\r\n  // mapping(uint => Item) itemforSale;\r\n  mapping(bytes32 => Nugget) nuggetInfo;\r\n  mapping(uint256 => uint256) nuggetMap;\r\n\r\n  //events--------------------------------\r\n  event lognewItem(bytes32 tokenID, string _mystring, uint256 createdAt); //create new item by supplier\r\n  event lognewNugget(bytes32 tokenID, string _mystring, uint256 createdAt);\r\n  event _purchasedByManufacturer(\r\n    bytes32 tokenID,\r\n    string _mystring,\r\n    uint256 createdAt\r\n  );\r\n  event _purchasedByRetailer(\r\n    bytes32 tokenID,\r\n    string _mystring,\r\n    uint256 createdAt,\r\n    bytes32[] recipe\r\n  );\r\n  event newnugget(bytes32[] recipe);\r\n  //modiifer --------------------\r\n  modifier arrayproof(\r\n    address sender,\r\n    address receiver,\r\n    uint256 createdAt\r\n  ) {\r\n    hash = sha256(abi.encodePacked(sender, receiver, createdAt));\r\n    array_proof.push(hash);\r\n    _;\r\n  }\r\n\r\n  function itemBySupplier(bytes32 productHash)\r\n    public\r\n    arrayproof(address(0), msg.sender, block.timestamp)\r\n    returns (uint256)\r\n  {\r\n    // uint i;\r\n\r\n    // tokenID = sha256(abi.encodePacked(weight, flavor, qty, productType)); // in hash\r\n    uint256 productHash_int = uint256(productHash); // convert hash to integer\r\n    Item memory newItem = Item(\r\n      productHash, //typecast hash into uint256\r\n      msg.sender,\r\n      State.producedBySupplier,\r\n      uint256(0)\r\n    );\r\n    _mint(msg.sender, productHash_int);\r\n    emit lognewItem(productHash, 'Item created by supplier', block.timestamp);\r\n    return (uint256(itemInfo[productHash_int].itemState));\r\n  }\r\n\r\n  // sha256 is not bytes32 need to convert\r\n  function itemForSale(uint256 _tokenId, uint256 _price) public {\r\n    require(\r\n      ownerOf(_tokenId) == msg.sender,\r\n      \"You can't sale the item you don't owned\"\r\n    );\r\n\r\n    itemInfo[uint256(_tokenId)].price = _price; //assigning price to that item\r\n  }\r\n\r\n  function purchasedByManufacturer(\r\n    address from,\r\n    address to,\r\n    bytes32 productHash\r\n  ) public arrayproof(msg.sender, to, block.timestamp) {\r\n    safeTransferFrom(from, to, uint256(productHash));\r\n    itemInfo[uint256(productHash)].itemState = State.purchasedByManufacturer;\r\n    emit _purchasedByManufacturer(\r\n      productHash,\r\n      'Item purchased by Manufacturer',\r\n      block.timestamp\r\n    );\r\n  }\r\n\r\n  function shippedBySupplier(uint256 int_tokenID) public {\r\n    //to be seen again based on states\r\n    itemInfo[(int_tokenID)].itemState = State.shippedBySupplier;\r\n  }\r\n\r\n  function packagedByManufacturer(bytes32 recipeHash, bytes32 fproductHash)\r\n    public\r\n    returns (uint256)\r\n  {\r\n    // require(ownerOf(int_tokenID) == msg.sender);\r\n    // bytes32  recipeHash = sha256(abi.encodePacked(weight, flavor, qty, productType));\r\n    uint256 recipeHash_int = uint256(recipeHash);\r\n    uint256 fproductHash_int = uint256(fproductHash);\r\n    //  rawItems =items.push(itemInfo[_rawTokenID]);\r\n    Nugget memory newNugget = Nugget(\r\n      fproductHash,\r\n      msg.sender,\r\n      State.packagedByManufacturer,\r\n      rawItems\r\n    );\r\n    nuggetInfo[fproductHash].items.push(recipeHash); // use hash of raw items in nugget\r\n    _mint(msg.sender, fproductHash_int);\r\n    emit lognewNugget(\r\n      fproductHash,\r\n      'Item packaged by Manufacturer',\r\n      block.timestamp\r\n    );\r\n    emit newnugget(nuggetInfo[fproductHash].items);\r\n\r\n    return (\r\n      uint256(\r\n        nuggetInfo[fproductHash].NuggetState = State.packagedByManufacturer\r\n      )\r\n    );\r\n  }\r\n\r\n  function purchasedByRetailer(\r\n    address from,\r\n    address to,\r\n    bytes32 fproductHash\r\n  ) public arrayproof(msg.sender, to, block.timestamp) {\r\n    // (\r\n    //   (uint256(itemInfo[int_tokenID].price)) > 0,\r\n    //   'The item should be up for sale'\r\n    // );\r\n    safeTransferFrom(from, to, uint256(fproductHash));\r\n    itemInfo[uint256(fproductHash)].itemState = State.purchasedByRetailer;\r\n    emit _purchasedByRetailer(\r\n      fproductHash,\r\n      'Item purchased by Retailer',\r\n      block.timestamp,\r\n      nuggetInfo[fproductHash].items\r\n    );\r\n  }\r\n\r\n  function validate(\r\n    address sender,\r\n    address receiver,\r\n    uint256 date,\r\n    uint256 txn\r\n  ) public view returns (bool valid) {\r\n    bytes32 hash_new = (sha256(abi.encodePacked(sender, receiver, date)));\r\n    if (array_proof[txn] == hash_new) {\r\n      return (true);\r\n    }\r\n\r\n    // forsale by supplier will be used for sale by manufacturer\r\n  }\r\n}\r\n",
  "sourcePath": "C:\\Users\\dell\\OneDrive\\Documents\\fyp\\mealProof_contract\\contracts\\midyear.sol",
  "compiler": {
    "name": "solc",
    "version": "0.8.0+commit.c7dfd78e.Emscripten.clang"
  },
  "schemaVersion": "3.4.7",
  "updatedAt": "2022-07-31T14:16:19.053Z",
  "devdoc": {
    "kind": "dev",
    "methods": {
      "approve(address,uint256)": {
        "details": "See {IERC721-approve}."
      },
      "balanceOf(address)": {
        "details": "See {IERC721-balanceOf}."
      },
      "getApproved(uint256)": {
        "details": "See {IERC721-getApproved}."
      },
      "isApprovedForAll(address,address)": {
        "details": "See {IERC721-isApprovedForAll}."
      },
      "name()": {
        "details": "See {IERC721Metadata-name}."
      },
      "ownerOf(uint256)": {
        "details": "See {IERC721-ownerOf}."
      },
      "safeTransferFrom(address,address,uint256)": {
        "details": "See {IERC721-safeTransferFrom}."
      },
      "safeTransferFrom(address,address,uint256,bytes)": {
        "details": "See {IERC721-safeTransferFrom}."
      },
      "setApprovalForAll(address,bool)": {
        "details": "See {IERC721-setApprovalForAll}."
      },
      "supportsInterface(bytes4)": {
        "details": "See {IERC165-supportsInterface}."
      },
      "symbol()": {
        "details": "See {IERC721Metadata-symbol}."
      },
      "tokenURI(uint256)": {
        "details": "See {IERC721Metadata-tokenURI}."
      },
      "transferFrom(address,address,uint256)": {
        "details": "See {IERC721-transferFrom}."
      }
    },
    "version": 1
  },
  "userdoc": {
    "kind": "user",
    "methods": {},
    "version": 1
  }
}