{
  "contractName": "token",
  "abi": [
    {
      "inputs": [],
      "stateMutability": "nonpayable",
      "type": "constructor"
    },
    {
      "anonymous": false,
      "inputs": [
        {
          "indexed": true,
          "internalType": "address",
          "name": "owner",
          "type": "address"
        },
        {
          "indexed": true,
          "internalType": "address",
          "name": "approved",
          "type": "address"
        },
        {
          "indexed": true,
          "internalType": "uint256",
          "name": "tokenId",
          "type": "uint256"
        }
      ],
      "name": "Approval",
      "type": "event"
    },
    {
      "anonymous": false,
      "inputs": [
        {
          "indexed": true,
          "internalType": "address",
          "name": "owner",
          "type": "address"
        },
        {
          "indexed": true,
          "internalType": "address",
          "name": "operator",
          "type": "address"
        },
        {
          "indexed": false,
          "internalType": "bool",
          "name": "approved",
          "type": "bool"
        }
      ],
      "name": "ApprovalForAll",
      "type": "event"
    },
    {
      "anonymous": false,
      "inputs": [
        {
          "indexed": true,
          "internalType": "address",
          "name": "from",
          "type": "address"
        },
        {
          "indexed": true,
          "internalType": "address",
          "name": "to",
          "type": "address"
        },
        {
          "indexed": true,
          "internalType": "uint256",
          "name": "tokenId",
          "type": "uint256"
        }
      ],
      "name": "Transfer",
      "type": "event"
    },
    {
      "anonymous": false,
      "inputs": [
        {
          "indexed": false,
          "internalType": "uint256",
          "name": "tokenID",
          "type": "uint256"
        },
        {
          "indexed": false,
          "internalType": "string",
          "name": "_mystring",
          "type": "string"
        },
        {
          "indexed": false,
          "internalType": "uint256",
          "name": "createdAt",
          "type": "uint256"
        }
      ],
      "name": "_purchasedByManufacturer",
      "type": "event"
    },
    {
      "anonymous": false,
      "inputs": [
        {
          "indexed": false,
          "internalType": "uint256",
          "name": "tokenID",
          "type": "uint256"
        },
        {
          "indexed": false,
          "internalType": "string",
          "name": "_mystring",
          "type": "string"
        },
        {
          "indexed": false,
          "internalType": "uint256",
          "name": "createdAt",
          "type": "uint256"
        }
      ],
      "name": "lognewItem",
      "type": "event"
    },
    {
      "anonymous": false,
      "inputs": [
        {
          "indexed": false,
          "internalType": "uint256",
          "name": "tokenID",
          "type": "uint256"
        },
        {
          "indexed": false,
          "internalType": "string",
          "name": "_mystring",
          "type": "string"
        },
        {
          "indexed": false,
          "internalType": "uint256",
          "name": "createdAt",
          "type": "uint256"
        }
      ],
      "name": "lognewNugget",
      "type": "event"
    },
    {
      "anonymous": false,
      "inputs": [
        {
          "indexed": false,
          "internalType": "bytes32[]",
          "name": "tokenId",
          "type": "bytes32[]"
        }
      ],
      "name": "newnugget",
      "type": "event"
    },
    {
      "inputs": [
        {
          "internalType": "address",
          "name": "to",
          "type": "address"
        },
        {
          "internalType": "uint256",
          "name": "tokenId",
          "type": "uint256"
        }
      ],
      "name": "approve",
      "outputs": [],
      "stateMutability": "nonpayable",
      "type": "function"
    },
    {
      "inputs": [
        {
          "internalType": "address",
          "name": "owner",
          "type": "address"
        }
      ],
      "name": "balanceOf",
      "outputs": [
        {
          "internalType": "uint256",
          "name": "",
          "type": "uint256"
        }
      ],
      "stateMutability": "view",
      "type": "function",
      "constant": true
    },
    {
      "inputs": [
        {
          "internalType": "uint256",
          "name": "tokenId",
          "type": "uint256"
        }
      ],
      "name": "getApproved",
      "outputs": [
        {
          "internalType": "address",
          "name": "",
          "type": "address"
        }
      ],
      "stateMutability": "view",
      "type": "function",
      "constant": true
    },
    {
      "inputs": [
        {
          "internalType": "address",
          "name": "owner",
          "type": "address"
        },
        {
          "internalType": "address",
          "name": "operator",
          "type": "address"
        }
      ],
      "name": "isApprovedForAll",
      "outputs": [
        {
          "internalType": "bool",
          "name": "",
          "type": "bool"
        }
      ],
      "stateMutability": "view",
      "type": "function",
      "constant": true
    },
    {
      "inputs": [],
      "name": "name",
      "outputs": [
        {
          "internalType": "string",
          "name": "",
          "type": "string"
        }
      ],
      "stateMutability": "view",
      "type": "function",
      "constant": true
    },
    {
      "inputs": [
        {
          "internalType": "uint256",
          "name": "tokenId",
          "type": "uint256"
        }
      ],
      "name": "ownerOf",
      "outputs": [
        {
          "internalType": "address",
          "name": "",
          "type": "address"
        }
      ],
      "stateMutability": "view",
      "type": "function",
      "constant": true
    },
    {
      "inputs": [
        {
          "internalType": "address",
          "name": "from",
          "type": "address"
        },
        {
          "internalType": "address",
          "name": "to",
          "type": "address"
        },
        {
          "internalType": "uint256",
          "name": "tokenId",
          "type": "uint256"
        }
      ],
      "name": "safeTransferFrom",
      "outputs": [],
      "stateMutability": "nonpayable",
      "type": "function"
    },
    {
      "inputs": [
        {
          "internalType": "address",
          "name": "from",
          "type": "address"
        },
        {
          "internalType": "address",
          "name": "to",
          "type": "address"
        },
        {
          "internalType": "uint256",
          "name": "tokenId",
          "type": "uint256"
        },
        {
          "internalType": "bytes",
          "name": "_data",
          "type": "bytes"
        }
      ],
      "name": "safeTransferFrom",
      "outputs": [],
      "stateMutability": "nonpayable",
      "type": "function"
    },
    {
      "inputs": [
        {
          "internalType": "address",
          "name": "operator",
          "type": "address"
        },
        {
          "internalType": "bool",
          "name": "approved",
          "type": "bool"
        }
      ],
      "name": "setApprovalForAll",
      "outputs": [],
      "stateMutability": "nonpayable",
      "type": "function"
    },
    {
      "inputs": [
        {
          "internalType": "bytes4",
          "name": "interfaceId",
          "type": "bytes4"
        }
      ],
      "name": "supportsInterface",
      "outputs": [
        {
          "internalType": "bool",
          "name": "",
          "type": "bool"
        }
      ],
      "stateMutability": "view",
      "type": "function",
      "constant": true
    },
    {
      "inputs": [],
      "name": "symbol",
      "outputs": [
        {
          "internalType": "string",
          "name": "",
          "type": "string"
        }
      ],
      "stateMutability": "view",
      "type": "function",
      "constant": true
    },
    {
      "inputs": [
        {
          "internalType": "uint256",
          "name": "tokenId",
          "type": "uint256"
        }
      ],
      "name": "tokenURI",
      "outputs": [
        {
          "internalType": "string",
          "name": "",
          "type": "string"
        }
      ],
      "stateMutability": "view",
      "type": "function",
      "constant": true
    },
    {
      "inputs": [
        {
          "internalType": "address",
          "name": "from",
          "type": "address"
        },
        {
          "internalType": "address",
          "name": "to",
          "type": "address"
        },
        {
          "internalType": "uint256",
          "name": "tokenId",
          "type": "uint256"
        }
      ],
      "name": "transferFrom",
      "outputs": [],
      "stateMutability": "nonpayable",
      "type": "function"
    },
    {
      "inputs": [
        {
          "internalType": "uint256",
          "name": "weight",
          "type": "uint256"
        },
        {
          "internalType": "uint256",
          "name": "flavor",
          "type": "uint256"
        },
        {
          "internalType": "uint256",
          "name": "qty",
          "type": "uint256"
        },
        {
          "internalType": "uint256",
          "name": "productType",
          "type": "uint256"
        }
      ],
      "name": "itemBySupplier",
      "outputs": [
        {
          "internalType": "uint256",
          "name": "",
          "type": "uint256"
        }
      ],
      "stateMutability": "nonpayable",
      "type": "function"
    },
    {
      "inputs": [
        {
          "internalType": "uint256",
          "name": "_tokenId",
          "type": "uint256"
        },
        {
          "internalType": "uint256",
          "name": "_price",
          "type": "uint256"
        }
      ],
      "name": "itemForSale",
      "outputs": [],
      "stateMutability": "nonpayable",
      "type": "function"
    },
    {
      "inputs": [
        {
          "internalType": "address",
          "name": "from",
          "type": "address"
        },
        {
          "internalType": "address",
          "name": "to",
          "type": "address"
        },
        {
          "internalType": "uint256",
          "name": "int_tokenID",
          "type": "uint256"
        }
      ],
      "name": "purchasedByManufacturer",
      "outputs": [],
      "stateMutability": "nonpayable",
      "type": "function"
    },
    {
      "inputs": [
        {
          "internalType": "uint256",
          "name": "int_tokenID",
          "type": "uint256"
        }
      ],
      "name": "shippedBySupplier",
      "outputs": [],
      "stateMutability": "nonpayable",
      "type": "function"
    },
    {
      "inputs": [
        {
          "internalType": "uint256",
          "name": "weight",
          "type": "uint256"
        },
        {
          "internalType": "uint256",
          "name": "flavor",
          "type": "uint256"
        },
        {
          "internalType": "uint256",
          "name": "qty",
          "type": "uint256"
        },
        {
          "internalType": "uint256",
          "name": "productType",
          "type": "uint256"
        },
        {
          "internalType": "uint256",
          "name": "int_tokenID",
          "type": "uint256"
        }
      ],
      "name": "packagedByManufacturer",
      "outputs": [
        {
          "internalType": "uint256",
          "name": "",
          "type": "uint256"
        }
      ],
      "stateMutability": "nonpayable",
      "type": "function"
    },
    {
      "inputs": [
        {
          "internalType": "address",
          "name": "sender",
          "type": "address"
        },
        {
          "internalType": "address",
          "name": "receiver",
          "type": "address"
        },
        {
          "internalType": "uint256",
          "name": "date",
          "type": "uint256"
        },
        {
          "internalType": "uint256",
          "name": "txn",
          "type": "uint256"
        }
      ],
      "name": "validate",
      "outputs": [
        {
          "internalType": "bool",
          "name": "valid",
          "type": "bool"
        }
      ],
      "stateMutability": "view",
      "type": "function",
      "constant": true
    }
  ],
  "bytecode": "0x60806040523480156200001157600080fd5b506040518060400160405280600b81526020017f737570706c79636861696e0000000000000000000000000000000000000000008152506040518060400160405280600381526020017f5343500000000000000000000000000000000000000000000000000000000000815250816000908051906020019062000096929190620000f9565b508060019080519060200190620000af929190620000f9565b50505033600660006101000a81548173ffffffffffffffffffffffffffffffffffffffff021916908373ffffffffffffffffffffffffffffffffffffffff1602179055506200020e565b8280546200010790620001a9565b90600052602060002090601f0160209004810192826200012b576000855562000177565b82601f106200014657805160ff191683800117855562000177565b8280016001018555821562000177579182015b828111156200017657825182559160200191906001019062000159565b5b5090506200018691906200018a565b5090565b5b80821115620001a55760008160009055506001016200018b565b5090565b60006002820490506001821680620001c257607f821691505b60208210811415620001d957620001d8620001df565b5b50919050565b7f4e487b7100000000000000000000000000000000000000000000000000000000600052602260045260246000fd5b613620806200021e6000396000f3fe608060405234801561001057600080fd5b506004361061013e576000357c0100000000000000000000000000000000000000000000000000000000900480636352211e116100ca578063a22cb4651161008e578063a22cb46514610347578063b88d4fde14610363578063c87b56dd1461037f578063cd859165146103af578063e985e9c5146103df5761013e565b80636352211e1461027d57806370a08231146102ad5780637e469f0f146102dd57806395d89b41146102f957806397ce40c6146103175761013e565b8063095ea7b311610111578063095ea7b3146101dd5780631dddd834146101f957806323b872dd14610215578063255053a01461023157806342842e0e146102615761013e565b806301ffc9a71461014357806305b631131461017357806306fdde031461018f578063081812fc146101ad575b600080fd5b61015d6004803603810190610158919061233c565b61040f565b60405161016a9190612e1f565b60405180910390f35b61018d6004803603810190610188919061238e565b6104f1565b005b610197610559565b6040516101a49190612e3a565b60405180910390f35b6101c760048036038101906101c2919061238e565b6105eb565b6040516101d49190612d96565b60405180910390f35b6101f760048036038101906101f291906122d7565b610670565b005b610213600480360381019061020e91906123b7565b610788565b005b61022f600480360381019061022a919061216e565b61081d565b005b61024b60048036038101906102469190612456565b61087d565b604051610258919061303c565b60405180910390f35b61027b6004803603810190610276919061216e565b610b41565b005b6102976004803603810190610292919061238e565b610b61565b6040516102a49190612d96565b60405180910390f35b6102c760048036038101906102c29190612109565b610c13565b6040516102d4919061303c565b60405180910390f35b6102f760048036038101906102f2919061216e565b610ccb565b005b610301610e3a565b60405161030e9190612e3a565b60405180910390f35b610331600480360381019061032c91906123f3565b610ecc565b60405161033e919061303c565b60405180910390f35b610361600480360381019061035c919061229b565b61111e565b005b61037d600480360381019061037891906121bd565b611134565b005b6103996004803603810190610394919061238e565b611196565b6040516103a69190612e3a565b60405180910390f35b6103c960048036038101906103c49190612238565b61123d565b6040516103d69190612e1f565b60405180910390f35b6103f960048036038101906103f49190612132565b611315565b6040516104069190612e1f565b60405180910390f35b60007f80ac58cd000000000000000000000000000000000000000000000000000000007bffffffffffffffffffffffffffffffffffffffffffffffffffffffff1916827bffffffffffffffffffffffffffffffffffffffffffffffffffffffff191614806104da57507f5b5e139f000000000000000000000000000000000000000000000000000000007bffffffffffffffffffffffffffffffffffffffffffffffffffffffff1916827bffffffffffffffffffffffffffffffffffffffffffffffffffffffff1916145b806104ea57506104e9826113a9565b5b9050919050565b6003600b600083815260200190815260200160002060010160146101000a81548160ff02191690836009811115610551577f4e487b7100000000000000000000000000000000000000000000000000000000600052602160045260246000fd5b021790555050565b6060600080546105689061337d565b80601f01602080910402602001604051908101604052809291908181526020018280546105949061337d565b80156105e15780601f106105b6576101008083540402835291602001916105e1565b820191906000526020600020905b8154815290600101906020018083116105c457829003601f168201915b5050505050905090565b60006105f682611413565b610635576040517f08c379a000000000000000000000000000000000000000000000000000000000815260040161062c90612f9c565b60405180910390fd5b6004600083815260200190815260200160002060009054906101000a900473ffffffffffffffffffffffffffffffffffffffff169050919050565b600061067b82610b61565b90508073ffffffffffffffffffffffffffffffffffffffff168373ffffffffffffffffffffffffffffffffffffffff1614156106ec576040517f08c379a00000000000000000000000000000000000000000000000000000000081526004016106e390612ffc565b60405180910390fd5b8073ffffffffffffffffffffffffffffffffffffffff1661070b61147f565b73ffffffffffffffffffffffffffffffffffffffff16148061073a57506107398161073461147f565b611315565b5b610779576040517f08c379a000000000000000000000000000000000000000000000000000000000815260040161077090612f1c565b60405180910390fd5b6107838383611487565b505050565b3373ffffffffffffffffffffffffffffffffffffffff166107a883610b61565b73ffffffffffffffffffffffffffffffffffffffff16146107fe576040517f08c379a00000000000000000000000000000000000000000000000000000000081526004016107f590612fbc565b60405180910390fd5b80600b6000848152602001908152602001600020600201819055505050565b61082e61082861147f565b82611540565b61086d576040517f08c379a00000000000000000000000000000000000000000000000000000000081526004016108649061301c565b60405180910390fd5b61087883838361161e565b505050565b60006002868686866040516020016108989493929190612d48565b6040516020818303038152906040526040516108b49190612d0d565b602060405180830381855afa1580156108d1573d6000803e3d6000fd5b5050506040513d601f19601f820116820180604052508101906108f49190612313565b600a8190555060006040518060800160405280600a546001900481526020013373ffffffffffffffffffffffffffffffffffffffff16815260200160056009811115610969577f4e487b7100000000000000000000000000000000000000000000000000000000600052602160045260246000fd5b815260200160098054806020026020016040519081016040528092919081815260200182805480156109ba57602002820191906000526020600020905b8154815260200190600101908083116109a6575b50505050508152509050600c6000848152602001908152602001600020600201836001029080600181540180825580915050600190039060005260206000200160009091909190915055610a1433600a5460019004611885565b7ff267f8421985ca820a7f7e6c52ddf9350f594d84b125f8529e294d75de82ed7c8342604051610a459291906130cf565b60405180910390a17fdb790bb06312a8d4c00a4c9418c6923dd4b146260a7da8819e02cce770e77438600c6000858152602001908152602001600020600201604051610a919190612dfd565b60405180910390a16005600c600085815260200190815260200160002060010160146101000a81548160ff02191690836009811115610af9577f4e487b7100000000000000000000000000000000000000000000000000000000600052602160045260246000fd5b021790556009811115610b35577f4e487b7100000000000000000000000000000000000000000000000000000000600052602160045260246000fd5b91505095945050505050565b610b5c83838360405180602001604052806000815250611134565b505050565b6000806002600084815260200190815260200160002060009054906101000a900473ffffffffffffffffffffffffffffffffffffffff169050600073ffffffffffffffffffffffffffffffffffffffff168173ffffffffffffffffffffffffffffffffffffffff161415610c0a576040517f08c379a0000000000000000000000000000000000000000000000000000000008152600401610c0190612f5c565b60405180910390fd5b80915050919050565b60008073ffffffffffffffffffffffffffffffffffffffff168273ffffffffffffffffffffffffffffffffffffffff161415610c84576040517f08c379a0000000000000000000000000000000000000000000000000000000008152600401610c7b90612f3c565b60405180910390fd5b600360008373ffffffffffffffffffffffffffffffffffffffff1673ffffffffffffffffffffffffffffffffffffffff168152602001908152602001600020549050919050565b3382426002838383604051602001610ce593929190612cd0565b604051602081830303815290604052604051610d019190612d0d565b602060405180830381855afa158015610d1e573d6000803e3d6000fd5b5050506040513d601f19601f82011682018060405250810190610d419190612313565b600881905550600760085490806001815401808255809150506001900390600052602060002001600090919091909150556000600b60008681526020019081526020016000205050610d94868686610b41565b6002600b600086815260200190815260200160002060010160146101000a81548160ff02191690836009811115610df4577f4e487b7100000000000000000000000000000000000000000000000000000000600052602160045260246000fd5b02179055507fff56859972adb406f42c06aebd001be276748f9e78d2b9ec198eb9de867a66108442604051610e2a929190613093565b60405180910390a1505050505050565b606060018054610e499061337d565b80601f0160208091040260200160405190810160405280929190818152602001828054610e759061337d565b8015610ec25780601f10610e9757610100808354040283529160200191610ec2565b820191906000526020600020905b815481529060010190602001808311610ea557829003601f168201915b5050505050905090565b60008033426002838383604051602001610ee893929190612cd0565b604051602081830303815290604052604051610f049190612d0d565b602060405180830381855afa158015610f21573d6000803e3d6000fd5b5050506040513d601f19601f82011682018060405250810190610f449190612313565b60088190555060076008549080600181540180825580915050600190039060005260206000200160009091909190915055600288888888604051602001610f8e9493929190612d48565b604051602081830303815290604052604051610faa9190612d0d565b602060405180830381855afa158015610fc7573d6000803e3d6000fd5b5050506040513d601f19601f82011682018060405250810190610fea9190612313565b600a819055506000600a54600190049050600060405180608001604052808381526020013373ffffffffffffffffffffffffffffffffffffffff16815260200160006009811115611064577f4e487b7100000000000000000000000000000000000000000000000000000000600052602160045260246000fd5b81526020016000815250905061107a3383611885565b7f468d023538269fccbc120aae017ba9d2c62ccb1253c1900b840bd8e2ae57d61a82426040516110ab929190613057565b60405180910390a1600b600083815260200190815260200160002060010160149054906101000a900460ff16600981111561110f577f4e487b7100000000000000000000000000000000000000000000000000000000600052602160045260246000fd5b95505050505050949350505050565b61113061112961147f565b8383611a5f565b5050565b61114561113f61147f565b83611540565b611184576040517f08c379a000000000000000000000000000000000000000000000000000000000815260040161117b9061301c565b60405180910390fd5b61119084848484611bcc565b50505050565b60606111a182611413565b6111e0576040517f08c379a00000000000000000000000000000000000000000000000000000000081526004016111d790612fdc565b60405180910390fd5b60006111ea611c28565b9050600081511161120a5760405180602001604052806000815250611235565b8061121484611c3f565b604051602001611225929190612d24565b6040516020818303038152906040525b915050919050565b600080600286868660405160200161125793929190612cd0565b6040516020818303038152906040526040516112739190612d0d565b602060405180830381855afa158015611290573d6000803e3d6000fd5b5050506040513d601f19601f820116820180604052508101906112b39190612313565b905080600784815481106112f0577f4e487b7100000000000000000000000000000000000000000000000000000000600052603260045260246000fd5b9060005260206000200154141561130b57600191505061130d565b505b949350505050565b6000600560008473ffffffffffffffffffffffffffffffffffffffff1673ffffffffffffffffffffffffffffffffffffffff16815260200190815260200160002060008373ffffffffffffffffffffffffffffffffffffffff1673ffffffffffffffffffffffffffffffffffffffff16815260200190815260200160002060009054906101000a900460ff16905092915050565b60007f01ffc9a7000000000000000000000000000000000000000000000000000000007bffffffffffffffffffffffffffffffffffffffffffffffffffffffff1916827bffffffffffffffffffffffffffffffffffffffffffffffffffffffff1916149050919050565b60008073ffffffffffffffffffffffffffffffffffffffff166002600084815260200190815260200160002060009054906101000a900473ffffffffffffffffffffffffffffffffffffffff1673ffffffffffffffffffffffffffffffffffffffff1614159050919050565b600033905090565b816004600083815260200190815260200160002060006101000a81548173ffffffffffffffffffffffffffffffffffffffff021916908373ffffffffffffffffffffffffffffffffffffffff160217905550808273ffffffffffffffffffffffffffffffffffffffff166114fa83610b61565b73ffffffffffffffffffffffffffffffffffffffff167f8c5be1e5ebec7d5bd14f71427d1e84f3dd0314c0f7b2291e5b200ac8c7c3b92560405160405180910390a45050565b600061154b82611413565b61158a576040517f08c379a000000000000000000000000000000000000000000000000000000000815260040161158190612efc565b60405180910390fd5b600061159583610b61565b90508073ffffffffffffffffffffffffffffffffffffffff168473ffffffffffffffffffffffffffffffffffffffff16148061160457508373ffffffffffffffffffffffffffffffffffffffff166115ec846105eb565b73ffffffffffffffffffffffffffffffffffffffff16145b8061161557506116148185611315565b5b91505092915050565b8273ffffffffffffffffffffffffffffffffffffffff1661163e82610b61565b73ffffffffffffffffffffffffffffffffffffffff1614611694576040517f08c379a000000000000000000000000000000000000000000000000000000000815260040161168b90612e7c565b60405180910390fd5b600073ffffffffffffffffffffffffffffffffffffffff168273ffffffffffffffffffffffffffffffffffffffff161415611704576040517f08c379a00000000000000000000000000000000000000000000000000000000081526004016116fb90612ebc565b60405180910390fd5b61170f838383611e0b565b61171a600082611487565b6001600360008573ffffffffffffffffffffffffffffffffffffffff1673ffffffffffffffffffffffffffffffffffffffff168152602001908152602001600020600082825461176a919061327f565b925050819055506001600360008473ffffffffffffffffffffffffffffffffffffffff1673ffffffffffffffffffffffffffffffffffffffff16815260200190815260200160002060008282546117c191906131f8565b92505081905550816002600083815260200190815260200160002060006101000a81548173ffffffffffffffffffffffffffffffffffffffff021916908373ffffffffffffffffffffffffffffffffffffffff160217905550808273ffffffffffffffffffffffffffffffffffffffff168473ffffffffffffffffffffffffffffffffffffffff167fddf252ad1be2c89b69c2b068fc378daa952ba7f163c4a11628f55a4df523b3ef60405160405180910390a4611880838383611e10565b505050565b600073ffffffffffffffffffffffffffffffffffffffff168273ffffffffffffffffffffffffffffffffffffffff1614156118f5576040517f08c379a00000000000000000000000000000000000000000000000000000000081526004016118ec90612f7c565b60405180910390fd5b6118fe81611413565b1561193e576040517f08c379a000000000000000000000000000000000000000000000000000000000815260040161193590612e9c565b60405180910390fd5b61194a60008383611e0b565b6001600360008473ffffffffffffffffffffffffffffffffffffffff1673ffffffffffffffffffffffffffffffffffffffff168152602001908152602001600020600082825461199a91906131f8565b92505081905550816002600083815260200190815260200160002060006101000a81548173ffffffffffffffffffffffffffffffffffffffff021916908373ffffffffffffffffffffffffffffffffffffffff160217905550808273ffffffffffffffffffffffffffffffffffffffff16600073ffffffffffffffffffffffffffffffffffffffff167fddf252ad1be2c89b69c2b068fc378daa952ba7f163c4a11628f55a4df523b3ef60405160405180910390a4611a5b60008383611e10565b5050565b8173ffffffffffffffffffffffffffffffffffffffff168373ffffffffffffffffffffffffffffffffffffffff161415611ace576040517f08c379a0000000000000000000000000000000000000000000000000000000008152600401611ac590612edc565b60405180910390fd5b80600560008573ffffffffffffffffffffffffffffffffffffffff1673ffffffffffffffffffffffffffffffffffffffff16815260200190815260200160002060008473ffffffffffffffffffffffffffffffffffffffff1673ffffffffffffffffffffffffffffffffffffffff16815260200190815260200160002060006101000a81548160ff0219169083151502179055508173ffffffffffffffffffffffffffffffffffffffff168373ffffffffffffffffffffffffffffffffffffffff167f17307eab39ab6107e8899845ad3d59bd9653f200f220920489ca2b5937696c3183604051611bbf9190612e1f565b60405180910390a3505050565b611bd784848461161e565b611be384848484611e15565b611c22576040517f08c379a0000000000000000000000000000000000000000000000000000000008152600401611c1990612e5c565b60405180910390fd5b50505050565b606060405180602001604052806000815250905090565b60606000821415611c87576040518060400160405280600181526020017f30000000000000000000000000000000000000000000000000000000000000008152509050611e06565b600082905060005b60008214611cb9578080611ca2906133c9565b915050600a82611cb2919061324e565b9150611c8f565b60008167ffffffffffffffff811115611cfb577f4e487b7100000000000000000000000000000000000000000000000000000000600052604160045260246000fd5b6040519080825280601f01601f191660200182016040528015611d2d5781602001600182028036833780820191505090505b5090505b60008514611dff57600182611d46919061327f565b9150600a85611d559190613440565b6030611d6191906131f8565b7f010000000000000000000000000000000000000000000000000000000000000002818381518110611dbc577f4e487b7100000000000000000000000000000000000000000000000000000000600052603260045260246000fd5b60200101907effffffffffffffffffffffffffffffffffffffffffffffffffffffffffffff1916908160001a905350600a85611df8919061324e565b9450611d31565b8093505050505b919050565b505050565b505050565b6000611e368473ffffffffffffffffffffffffffffffffffffffff16611fe4565b15611fd7578373ffffffffffffffffffffffffffffffffffffffff1663150b7a02611e5f61147f565b8786866040518563ffffffff167c0100000000000000000000000000000000000000000000000000000000028152600401611e9d9493929190612db1565b602060405180830381600087803b158015611eb757600080fd5b505af1925050508015611ee857506040513d601f19601f82011682018060405250810190611ee59190612365565b60015b611f6b573d8060008114611f18576040519150601f19603f3d011682016040523d82523d6000602084013e611f1d565b606091505b50600081511415611f63576040517f08c379a0000000000000000000000000000000000000000000000000000000008152600401611f5a90612e5c565b60405180910390fd5b805181602001fd5b63150b7a027c0100000000000000000000000000000000000000000000000000000000027bffffffffffffffffffffffffffffffffffffffffffffffffffffffff1916817bffffffffffffffffffffffffffffffffffffffffffffffffffffffff191614915050611fdc565b600190505b949350505050565b6000808273ffffffffffffffffffffffffffffffffffffffff16803b806020016040519081016040528181526000908060200190933c51119050919050565b60006120366120318461313c565b61310b565b90508281526020810184848401111561204e57600080fd5b61205984828561333b565b509392505050565b60008135905061207081613577565b92915050565b6000813590506120858161358e565b92915050565b60008151905061209a816135a5565b92915050565b6000813590506120af816135bc565b92915050565b6000815190506120c4816135bc565b92915050565b600082601f8301126120db57600080fd5b81356120eb848260208601612023565b91505092915050565b600081359050612103816135d3565b92915050565b60006020828403121561211b57600080fd5b600061212984828501612061565b91505092915050565b6000806040838503121561214557600080fd5b600061215385828601612061565b925050602061216485828601612061565b9150509250929050565b60008060006060848603121561218357600080fd5b600061219186828701612061565b93505060206121a286828701612061565b92505060406121b3868287016120f4565b9150509250925092565b600080600080608085870312156121d357600080fd5b60006121e187828801612061565b94505060206121f287828801612061565b9350506040612203878288016120f4565b925050606085013567ffffffffffffffff81111561222057600080fd5b61222c878288016120ca565b91505092959194509250565b6000806000806080858703121561224e57600080fd5b600061225c87828801612061565b945050602061226d87828801612061565b935050604061227e878288016120f4565b925050606061228f878288016120f4565b91505092959194509250565b600080604083850312156122ae57600080fd5b60006122bc85828601612061565b92505060206122cd85828601612076565b9150509250929050565b600080604083850312156122ea57600080fd5b60006122f885828601612061565b9250506020612309858286016120f4565b9150509250929050565b60006020828403121561232557600080fd5b60006123338482850161208b565b91505092915050565b60006020828403121561234e57600080fd5b600061235c848285016120a0565b91505092915050565b60006020828403121561237757600080fd5b6000612385848285016120b5565b91505092915050565b6000602082840312156123a057600080fd5b60006123ae848285016120f4565b91505092915050565b600080604083850312156123ca57600080fd5b60006123d8858286016120f4565b92505060206123e9858286016120f4565b9150509250929050565b6000806000806080858703121561240957600080fd5b6000612417878288016120f4565b9450506020612428878288016120f4565b9350506040612439878288016120f4565b925050606061244a878288016120f4565b91505092959194509250565b600080600080600060a0868803121561246e57600080fd5b600061247c888289016120f4565b955050602061248d888289016120f4565b945050604061249e888289016120f4565b93505060606124af888289016120f4565b92505060806124c0888289016120f4565b9150509295509295909350565b60006124d9838361257f565b60208301905092915050565b6124ee816132bd565b82525050565b612505612500826132bd565b613412565b82525050565b600061251682613181565b61252081856131af565b935061252b8361316c565b8060005b83811015612563576125408261352d565b61254a88826124cd565b9750612555836131a2565b92505060018101905061252f565b5085935050505092915050565b612579816132cf565b82525050565b612588816132db565b82525050565b60006125998261318c565b6125a381856131c0565b93506125b381856020860161334a565b6125bc81613540565b840191505092915050565b60006125d28261318c565b6125dc81856131d1565b93506125ec81856020860161334a565b80840191505092915050565b600061260382613197565b61260d81856131dc565b935061261d81856020860161334a565b61262681613540565b840191505092915050565b600061263c82613197565b61264681856131ed565b935061265681856020860161334a565b80840191505092915050565b600061266f6032836131dc565b91507f4552433732313a207472616e7366657220746f206e6f6e20455243373231526560008301527f63656976657220696d706c656d656e74657200000000000000000000000000006020830152604082019050919050565b60006126d56025836131dc565b91507f4552433732313a207472616e736665722066726f6d20696e636f72726563742060008301527f6f776e65720000000000000000000000000000000000000000000000000000006020830152604082019050919050565b600061273b601c836131dc565b91507f4552433732313a20746f6b656e20616c7265616479206d696e746564000000006000830152602082019050919050565b600061277b6024836131dc565b91507f4552433732313a207472616e7366657220746f20746865207a65726f2061646460008301527f72657373000000000000000000000000000000000000000000000000000000006020830152604082019050919050565b60006127e16019836131dc565b91507f4552433732313a20617070726f766520746f2063616c6c6572000000000000006000830152602082019050919050565b6000612821602c836131dc565b91507f4552433732313a206f70657261746f7220717565727920666f72206e6f6e657860008301527f697374656e7420746f6b656e00000000000000000000000000000000000000006020830152604082019050919050565b60006128876038836131dc565b91507f4552433732313a20617070726f76652063616c6c6572206973206e6f74206f7760008301527f6e6572206e6f7220617070726f76656420666f7220616c6c00000000000000006020830152604082019050919050565b60006128ed602a836131dc565b91507f4552433732313a2062616c616e636520717565727920666f7220746865207a6560008301527f726f2061646472657373000000000000000000000000000000000000000000006020830152604082019050919050565b60006129536029836131dc565b91507f4552433732313a206f776e657220717565727920666f72206e6f6e657869737460008301527f656e7420746f6b656e00000000000000000000000000000000000000000000006020830152604082019050919050565b60006129b96018836131dc565b91507f4974656d206372656174656420627920737570706c69657200000000000000006000830152602082019050919050565b60006129f96020836131dc565b91507f4552433732313a206d696e7420746f20746865207a65726f20616464726573736000830152602082019050919050565b6000612a39602c836131dc565b91507f4552433732313a20617070726f76656420717565727920666f72206e6f6e657860008301527f697374656e7420746f6b656e00000000000000000000000000000000000000006020830152604082019050919050565b6000612a9f6027836131dc565b91507f596f752063616e27742073616c6520746865206974656d20796f7520646f6e2760008301527f74206f776e6564000000000000000000000000000000000000000000000000006020830152604082019050919050565b6000612b05602f836131dc565b91507f4552433732314d657461646174613a2055524920717565727920666f72206e6f60008301527f6e6578697374656e7420746f6b656e00000000000000000000000000000000006020830152604082019050919050565b6000612b6b6021836131dc565b91507f4552433732313a20617070726f76616c20746f2063757272656e74206f776e6560008301527f72000000000000000000000000000000000000000000000000000000000000006020830152604082019050919050565b6000612bd1601e836131dc565b91507f4974656d20707572636861736564206279204d616e75666163747572657200006000830152602082019050919050565b6000612c116031836131dc565b91507f4552433732313a207472616e736665722063616c6c6572206973206e6f74206f60008301527f776e6572206e6f7220617070726f7665640000000000000000000000000000006020830152604082019050919050565b6000612c77601d836131dc565b91507f4974656d207061636b61676564206279204d616e7566616374757265720000006000830152602082019050919050565b612cb381613331565b82525050565b612cca612cc582613331565b613436565b82525050565b6000612cdc82866124f4565b601482019150612cec82856124f4565b601482019150612cfc8284612cb9565b602082019150819050949350505050565b6000612d1982846125c7565b915081905092915050565b6000612d308285612631565b9150612d3c8284612631565b91508190509392505050565b6000612d548287612cb9565b602082019150612d648286612cb9565b602082019150612d748285612cb9565b602082019150612d848284612cb9565b60208201915081905095945050505050565b6000602082019050612dab60008301846124e5565b92915050565b6000608082019050612dc660008301876124e5565b612dd360208301866124e5565b612de06040830185612caa565b8181036060830152612df2818461258e565b905095945050505050565b60006020820190508181036000830152612e17818461250b565b905092915050565b6000602082019050612e346000830184612570565b92915050565b60006020820190508181036000830152612e5481846125f8565b905092915050565b60006020820190508181036000830152612e7581612662565b9050919050565b60006020820190508181036000830152612e95816126c8565b9050919050565b60006020820190508181036000830152612eb58161272e565b9050919050565b60006020820190508181036000830152612ed58161276e565b9050919050565b60006020820190508181036000830152612ef5816127d4565b9050919050565b60006020820190508181036000830152612f1581612814565b9050919050565b60006020820190508181036000830152612f358161287a565b9050919050565b60006020820190508181036000830152612f55816128e0565b9050919050565b60006020820190508181036000830152612f7581612946565b9050919050565b60006020820190508181036000830152612f95816129ec565b9050919050565b60006020820190508181036000830152612fb581612a2c565b9050919050565b60006020820190508181036000830152612fd581612a92565b9050919050565b60006020820190508181036000830152612ff581612af8565b9050919050565b6000602082019050818103600083015261301581612b5e565b9050919050565b6000602082019050818103600083015261303581612c04565b9050919050565b60006020820190506130516000830184612caa565b92915050565b600060608201905061306c6000830185612caa565b818103602083015261307d816129ac565b905061308c6040830184612caa565b9392505050565b60006060820190506130a86000830185612caa565b81810360208301526130b981612bc4565b90506130c86040830184612caa565b9392505050565b60006060820190506130e46000830185612caa565b81810360208301526130f581612c6a565b90506131046040830184612caa565b9392505050565b6000604051905081810181811067ffffffffffffffff82111715613132576131316134fe565b5b8060405250919050565b600067ffffffffffffffff821115613157576131566134fe565b5b601f19601f8301169050602081019050919050565b60008190508160005260206000209050919050565b600081549050919050565b600081519050919050565b600081519050919050565b6000600182019050919050565b600082825260208201905092915050565b600082825260208201905092915050565b600081905092915050565b600082825260208201905092915050565b600081905092915050565b600061320382613331565b915061320e83613331565b9250827fffffffffffffffffffffffffffffffffffffffffffffffffffffffffffffffff0382111561324357613242613471565b5b828201905092915050565b600061325982613331565b915061326483613331565b925082613274576132736134a0565b5b828204905092915050565b600061328a82613331565b915061329583613331565b9250828210156132a8576132a7613471565b5b828203905092915050565b6000819050919050565b60006132c882613311565b9050919050565b60008115159050919050565b6000819050919050565b60007fffffffff0000000000000000000000000000000000000000000000000000000082169050919050565b600073ffffffffffffffffffffffffffffffffffffffff82169050919050565b6000819050919050565b82818337600083830152505050565b60005b8381101561336857808201518184015260208101905061334d565b83811115613377576000848401525b50505050565b6000600282049050600182168061339557607f821691505b602082108114156133a9576133a86134cf565b5b50919050565b60006133c26133bd8361356a565b6132b3565b9050919050565b60006133d482613331565b91507fffffffffffffffffffffffffffffffffffffffffffffffffffffffffffffffff82141561340757613406613471565b5b600182019050919050565b600061341d82613424565b9050919050565b600061342f82613551565b9050919050565b6000819050919050565b600061344b82613331565b915061345683613331565b925082613466576134656134a0565b5b828206905092915050565b7f4e487b7100000000000000000000000000000000000000000000000000000000600052601160045260246000fd5b7f4e487b7100000000000000000000000000000000000000000000000000000000600052601260045260246000fd5b7f4e487b7100000000000000000000000000000000000000000000000000000000600052602260045260246000fd5b7f4e487b7100000000000000000000000000000000000000000000000000000000600052604160045260246000fd5b600061353982546133af565b9050919050565b6000601f19601f8301169050919050565b60006c0100000000000000000000000082029050919050565b6000600182049050919050565b613580816132bd565b811461358b57600080fd5b50565b613597816132cf565b81146135a257600080fd5b50565b6135ae816132db565b81146135b957600080fd5b50565b6135c5816132e5565b81146135d057600080fd5b50565b6135dc81613331565b81146135e757600080fd5b5056fea26469706673582212205fdd99eb0810f185a177069adc83f65a46df57396d0a3d0a05539b996cc1104d64736f6c63430008000033",
  "immutableReferences": {},
  "source": "// SPDX-License-Identifier: GPL-3.0\r\npragma solidity >=0.4.20;\r\nimport '@openzeppelin/contracts/token/ERC721/ERC721.sol';\r\n\r\n// import '@openzeppelin/contracts/token/ERC721/extensions/IERC721Metadata.sol';\r\n\r\ncontract token is ERC721 {\r\n  address contractOwner;\r\n  bytes32[] array_proof;\r\n  bytes32 hash;\r\n  bytes32[] rawItems;\r\n\r\n  constructor() public ERC721('supplychain', 'SCP') {\r\n    contractOwner = msg.sender;\r\n  }\r\n\r\n  bytes32 tokenID;\r\n  enum State {\r\n    producedBySupplier,\r\n    forSaleBySupplier,\r\n    purchasedByManufacturer,\r\n    shippedBySupplier,\r\n    receivedByManufacturer,\r\n    packagedByManufacturer,\r\n    forSaleByManufacturer,\r\n    purchasedByRetailer,\r\n    shippedByManufacturer,\r\n    receivedByRetailer\r\n  }\r\n  struct Item {\r\n    uint256 product_code;\r\n    address ownerID;\r\n    State itemState;\r\n    uint256 price;\r\n  }\r\n  struct Nugget {\r\n    uint256 product_code;\r\n    address ownerID;\r\n    State NuggetState;\r\n    bytes32[] items;\r\n  }\r\n\r\n  //hashtable----------------------------------\r\n  mapping(uint256 => Item) itemInfo;\r\n\r\n  // mapping(uint => Item) itemforSale;\r\n  mapping(uint256 => Nugget) nuggetInfo;\r\n  mapping(uint256 => uint256) nuggetMap;\r\n\r\n  //events--------------------------------\r\n  event lognewItem(uint256 tokenID, string _mystring, uint256 createdAt); //create new item by supplier\r\n  event lognewNugget(uint256 tokenID, string _mystring, uint256 createdAt);\r\n  event _purchasedByManufacturer(\r\n    uint256 tokenID,\r\n    string _mystring,\r\n    uint256 createdAt\r\n  );\r\n  event newnugget(bytes32[] tokenId);\r\n  //modiifer --------------------\r\n  modifier arrayproof(\r\n    address sender,\r\n    address receiver,\r\n    uint256 createdAt\r\n  ) {\r\n    hash = sha256(abi.encodePacked(sender, receiver, createdAt));\r\n    array_proof.push(hash);\r\n    _;\r\n  }\r\n\r\n  function itemBySupplier(\r\n    uint256 weight,\r\n    uint256 flavor,\r\n    uint256 qty,\r\n    uint256 productType\r\n  )\r\n    public\r\n    arrayproof(address(0), msg.sender, block.timestamp)\r\n    returns (uint256)\r\n  {\r\n    // uint i;\r\n\r\n    tokenID = sha256(abi.encodePacked(weight, flavor, qty, productType)); // in hash\r\n    uint256 int_tokenID = uint256(tokenID); // convert hash to integer\r\n    Item memory newItem = Item(\r\n      int_tokenID, //typecast hash into uint256\r\n      msg.sender,\r\n      State.producedBySupplier,\r\n      uint256(0)\r\n    );\r\n    _mint(msg.sender, int_tokenID);\r\n    emit lognewItem(int_tokenID, 'Item created by supplier', block.timestamp);\r\n    return (uint256(itemInfo[int_tokenID].itemState));\r\n  }\r\n\r\n  // sha256 is not bytes32 need to convert\r\n  function itemForSale(uint256 _tokenId, uint256 _price) public {\r\n    require(\r\n      ownerOf(uint256(_tokenId)) == msg.sender,\r\n      \"You can't sale the item you don't owned\"\r\n    );\r\n\r\n    itemInfo[uint256(_tokenId)].price = _price; //assigning price to that item\r\n  }\r\n\r\n  function purchasedByManufacturer(\r\n    address from,\r\n    address to,\r\n    uint256 int_tokenID\r\n  ) public arrayproof(msg.sender, to, block.timestamp) {\r\n    (\r\n      (uint256(itemInfo[int_tokenID].price)) > 0,\r\n      'The item should be up for sale'\r\n    );\r\n    safeTransferFrom(from, to, int_tokenID);\r\n    itemInfo[int_tokenID].itemState = State.purchasedByManufacturer;\r\n    emit _purchasedByManufacturer(\r\n      int_tokenID,\r\n      'Item purchased by Manufacturer',\r\n      block.timestamp\r\n    );\r\n  }\r\n\r\n  function shippedBySupplier(uint256 int_tokenID) public {\r\n    //to be seen again based on states\r\n    itemInfo[(int_tokenID)].itemState = State.shippedBySupplier;\r\n  }\r\n\r\n  function packagedByManufacturer(\r\n    uint256 weight,\r\n    uint256 flavor,\r\n    uint256 qty,\r\n    uint256 productType,\r\n    uint256 int_tokenID\r\n  ) public returns (uint256) {\r\n    tokenID = sha256(abi.encodePacked(weight, flavor, qty, productType));\r\n    //  rawItems =items.push(itemInfo[_rawTokenID]);\r\n    Nugget memory newNugget = Nugget(\r\n      uint256(tokenID),\r\n      msg.sender,\r\n      State.packagedByManufacturer,\r\n      rawItems\r\n    );\r\n\r\n    nuggetInfo[int_tokenID].items.push(bytes32(int_tokenID));\r\n    _mint(msg.sender, uint256(tokenID));\r\n    emit lognewNugget(\r\n      int_tokenID,\r\n      'Item packaged by Manufacturer',\r\n      block.timestamp\r\n    );\r\n    emit newnugget(nuggetInfo[int_tokenID].items);\r\n\r\n    return (\r\n      uint256(\r\n        nuggetInfo[int_tokenID].NuggetState = State.packagedByManufacturer\r\n      )\r\n    );\r\n  }\r\n\r\n  function validate(\r\n    address sender,\r\n    address receiver,\r\n    uint256 date,\r\n    uint256 txn\r\n  ) public view returns (bool valid) {\r\n    bytes32 hash_new = (sha256(abi.encodePacked(sender, receiver, date)));\r\n    if (array_proof[txn] == hash_new) {\r\n      return (true);\r\n    }\r\n\r\n    // forsale by supplier will be used for sale by manufacturer\r\n  }\r\n}\r\n",
  "sourcePath": "C:\\Users\\dell\\OneDrive\\Documents\\fyp\\mealProof_contract\\contracts\\midyear.sol",
  "compiler": {
    "name": "solc",
    "version": "0.8.0+commit.c7dfd78e.Emscripten.clang"
  },
  "schemaVersion": "3.4.7",
  "updatedAt": "2022-07-01T21:53:17.792Z",
  "networkType": "ethereum",
  "devdoc": {
    "kind": "dev",
    "methods": {
      "approve(address,uint256)": {
        "details": "See {IERC721-approve}."
      },
      "balanceOf(address)": {
        "details": "See {IERC721-balanceOf}."
      },
      "getApproved(uint256)": {
        "details": "See {IERC721-getApproved}."
      },
      "isApprovedForAll(address,address)": {
        "details": "See {IERC721-isApprovedForAll}."
      },
      "name()": {
        "details": "See {IERC721Metadata-name}."
      },
      "ownerOf(uint256)": {
        "details": "See {IERC721-ownerOf}."
      },
      "safeTransferFrom(address,address,uint256)": {
        "details": "See {IERC721-safeTransferFrom}."
      },
      "safeTransferFrom(address,address,uint256,bytes)": {
        "details": "See {IERC721-safeTransferFrom}."
      },
      "setApprovalForAll(address,bool)": {
        "details": "See {IERC721-setApprovalForAll}."
      },
      "supportsInterface(bytes4)": {
        "details": "See {IERC165-supportsInterface}."
      },
      "symbol()": {
        "details": "See {IERC721Metadata-symbol}."
      },
      "tokenURI(uint256)": {
        "details": "See {IERC721Metadata-tokenURI}."
      },
      "transferFrom(address,address,uint256)": {
        "details": "See {IERC721-transferFrom}."
      }
    },
    "version": 1
  },
  "userdoc": {
    "kind": "user",
    "methods": {},
    "version": 1
  }
}