{
  "contractName": "token",
  "abi": [
    {
      "inputs": [],
      "stateMutability": "nonpayable",
      "type": "constructor"
    },
    {
      "anonymous": false,
      "inputs": [
        {
          "indexed": true,
          "internalType": "address",
          "name": "owner",
          "type": "address"
        },
        {
          "indexed": true,
          "internalType": "address",
          "name": "approved",
          "type": "address"
        },
        {
          "indexed": true,
          "internalType": "uint256",
          "name": "tokenId",
          "type": "uint256"
        }
      ],
      "name": "Approval",
      "type": "event"
    },
    {
      "anonymous": false,
      "inputs": [
        {
          "indexed": true,
          "internalType": "address",
          "name": "owner",
          "type": "address"
        },
        {
          "indexed": true,
          "internalType": "address",
          "name": "operator",
          "type": "address"
        },
        {
          "indexed": false,
          "internalType": "bool",
          "name": "approved",
          "type": "bool"
        }
      ],
      "name": "ApprovalForAll",
      "type": "event"
    },
    {
      "anonymous": false,
      "inputs": [
        {
          "indexed": true,
          "internalType": "address",
          "name": "from",
          "type": "address"
        },
        {
          "indexed": true,
          "internalType": "address",
          "name": "to",
          "type": "address"
        },
        {
          "indexed": true,
          "internalType": "uint256",
          "name": "tokenId",
          "type": "uint256"
        }
      ],
      "name": "Transfer",
      "type": "event"
    },
    {
      "anonymous": false,
      "inputs": [
        {
          "indexed": false,
          "internalType": "uint256",
          "name": "tokenID",
          "type": "uint256"
        },
        {
          "indexed": false,
          "internalType": "string",
          "name": "_mystring",
          "type": "string"
        },
        {
          "indexed": false,
          "internalType": "uint256",
          "name": "createdAt",
          "type": "uint256"
        }
      ],
      "name": "_purchasedByManufacturer",
      "type": "event"
    },
    {
      "anonymous": false,
      "inputs": [
        {
          "indexed": false,
          "internalType": "uint256",
          "name": "tokenID",
          "type": "uint256"
        },
        {
          "indexed": false,
          "internalType": "string",
          "name": "_mystring",
          "type": "string"
        },
        {
          "indexed": false,
          "internalType": "uint256",
          "name": "createdAt",
          "type": "uint256"
        },
        {
          "indexed": false,
          "internalType": "uint256[]",
          "name": "recipe",
          "type": "uint256[]"
        }
      ],
      "name": "_purchasedByRetailer",
      "type": "event"
    },
    {
      "anonymous": false,
      "inputs": [
        {
          "indexed": false,
          "internalType": "uint256",
          "name": "tokenID",
          "type": "uint256"
        },
        {
          "indexed": false,
          "internalType": "string",
          "name": "_mystring",
          "type": "string"
        },
        {
          "indexed": false,
          "internalType": "uint256",
          "name": "createdAt",
          "type": "uint256"
        }
      ],
      "name": "lognewItem",
      "type": "event"
    },
    {
      "anonymous": false,
      "inputs": [
        {
          "indexed": false,
          "internalType": "uint256",
          "name": "tokenID",
          "type": "uint256"
        },
        {
          "indexed": false,
          "internalType": "string",
          "name": "_mystring",
          "type": "string"
        },
        {
          "indexed": false,
          "internalType": "uint256",
          "name": "createdAt",
          "type": "uint256"
        }
      ],
      "name": "lognewNugget",
      "type": "event"
    },
    {
      "anonymous": false,
      "inputs": [
        {
          "indexed": false,
          "internalType": "uint256[]",
          "name": "tokenId",
          "type": "uint256[]"
        }
      ],
      "name": "newnugget",
      "type": "event"
    },
    {
      "inputs": [
        {
          "internalType": "address",
          "name": "to",
          "type": "address"
        },
        {
          "internalType": "uint256",
          "name": "tokenId",
          "type": "uint256"
        }
      ],
      "name": "approve",
      "outputs": [],
      "stateMutability": "nonpayable",
      "type": "function"
    },
    {
      "inputs": [
        {
          "internalType": "address",
          "name": "owner",
          "type": "address"
        }
      ],
      "name": "balanceOf",
      "outputs": [
        {
          "internalType": "uint256",
          "name": "",
          "type": "uint256"
        }
      ],
      "stateMutability": "view",
      "type": "function",
      "constant": true
    },
    {
      "inputs": [
        {
          "internalType": "uint256",
          "name": "tokenId",
          "type": "uint256"
        }
      ],
      "name": "getApproved",
      "outputs": [
        {
          "internalType": "address",
          "name": "",
          "type": "address"
        }
      ],
      "stateMutability": "view",
      "type": "function",
      "constant": true
    },
    {
      "inputs": [
        {
          "internalType": "address",
          "name": "owner",
          "type": "address"
        },
        {
          "internalType": "address",
          "name": "operator",
          "type": "address"
        }
      ],
      "name": "isApprovedForAll",
      "outputs": [
        {
          "internalType": "bool",
          "name": "",
          "type": "bool"
        }
      ],
      "stateMutability": "view",
      "type": "function",
      "constant": true
    },
    {
      "inputs": [],
      "name": "name",
      "outputs": [
        {
          "internalType": "string",
          "name": "",
          "type": "string"
        }
      ],
      "stateMutability": "view",
      "type": "function",
      "constant": true
    },
    {
      "inputs": [
        {
          "internalType": "uint256",
          "name": "tokenId",
          "type": "uint256"
        }
      ],
      "name": "ownerOf",
      "outputs": [
        {
          "internalType": "address",
          "name": "",
          "type": "address"
        }
      ],
      "stateMutability": "view",
      "type": "function",
      "constant": true
    },
    {
      "inputs": [
        {
          "internalType": "address",
          "name": "from",
          "type": "address"
        },
        {
          "internalType": "address",
          "name": "to",
          "type": "address"
        },
        {
          "internalType": "uint256",
          "name": "tokenId",
          "type": "uint256"
        }
      ],
      "name": "safeTransferFrom",
      "outputs": [],
      "stateMutability": "nonpayable",
      "type": "function"
    },
    {
      "inputs": [
        {
          "internalType": "address",
          "name": "from",
          "type": "address"
        },
        {
          "internalType": "address",
          "name": "to",
          "type": "address"
        },
        {
          "internalType": "uint256",
          "name": "tokenId",
          "type": "uint256"
        },
        {
          "internalType": "bytes",
          "name": "_data",
          "type": "bytes"
        }
      ],
      "name": "safeTransferFrom",
      "outputs": [],
      "stateMutability": "nonpayable",
      "type": "function"
    },
    {
      "inputs": [
        {
          "internalType": "address",
          "name": "operator",
          "type": "address"
        },
        {
          "internalType": "bool",
          "name": "approved",
          "type": "bool"
        }
      ],
      "name": "setApprovalForAll",
      "outputs": [],
      "stateMutability": "nonpayable",
      "type": "function"
    },
    {
      "inputs": [
        {
          "internalType": "bytes4",
          "name": "interfaceId",
          "type": "bytes4"
        }
      ],
      "name": "supportsInterface",
      "outputs": [
        {
          "internalType": "bool",
          "name": "",
          "type": "bool"
        }
      ],
      "stateMutability": "view",
      "type": "function",
      "constant": true
    },
    {
      "inputs": [],
      "name": "symbol",
      "outputs": [
        {
          "internalType": "string",
          "name": "",
          "type": "string"
        }
      ],
      "stateMutability": "view",
      "type": "function",
      "constant": true
    },
    {
      "inputs": [
        {
          "internalType": "uint256",
          "name": "tokenId",
          "type": "uint256"
        }
      ],
      "name": "tokenURI",
      "outputs": [
        {
          "internalType": "string",
          "name": "",
          "type": "string"
        }
      ],
      "stateMutability": "view",
      "type": "function",
      "constant": true
    },
    {
      "inputs": [
        {
          "internalType": "address",
          "name": "from",
          "type": "address"
        },
        {
          "internalType": "address",
          "name": "to",
          "type": "address"
        },
        {
          "internalType": "uint256",
          "name": "tokenId",
          "type": "uint256"
        }
      ],
      "name": "transferFrom",
      "outputs": [],
      "stateMutability": "nonpayable",
      "type": "function"
    },
    {
      "inputs": [
        {
          "internalType": "uint256",
          "name": "weight",
          "type": "uint256"
        },
        {
          "internalType": "uint256",
          "name": "flavor",
          "type": "uint256"
        },
        {
          "internalType": "uint256",
          "name": "qty",
          "type": "uint256"
        },
        {
          "internalType": "uint256",
          "name": "productType",
          "type": "uint256"
        }
      ],
      "name": "itemBySupplier",
      "outputs": [
        {
          "internalType": "uint256",
          "name": "",
          "type": "uint256"
        }
      ],
      "stateMutability": "nonpayable",
      "type": "function"
    },
    {
      "inputs": [
        {
          "internalType": "uint256",
          "name": "_tokenId",
          "type": "uint256"
        },
        {
          "internalType": "uint256",
          "name": "_price",
          "type": "uint256"
        }
      ],
      "name": "itemForSale",
      "outputs": [],
      "stateMutability": "nonpayable",
      "type": "function"
    },
    {
      "inputs": [
        {
          "internalType": "address",
          "name": "from",
          "type": "address"
        },
        {
          "internalType": "address",
          "name": "to",
          "type": "address"
        },
        {
          "internalType": "uint256",
          "name": "int_tokenID",
          "type": "uint256"
        }
      ],
      "name": "purchasedByManufacturer",
      "outputs": [],
      "stateMutability": "nonpayable",
      "type": "function"
    },
    {
      "inputs": [
        {
          "internalType": "uint256",
          "name": "int_tokenID",
          "type": "uint256"
        }
      ],
      "name": "shippedBySupplier",
      "outputs": [],
      "stateMutability": "nonpayable",
      "type": "function"
    },
    {
      "inputs": [
        {
          "internalType": "uint256",
          "name": "weight",
          "type": "uint256"
        },
        {
          "internalType": "uint256",
          "name": "flavor",
          "type": "uint256"
        },
        {
          "internalType": "uint256",
          "name": "qty",
          "type": "uint256"
        },
        {
          "internalType": "uint256",
          "name": "productType",
          "type": "uint256"
        },
        {
          "internalType": "uint256",
          "name": "int_tokenID",
          "type": "uint256"
        }
      ],
      "name": "packagedByManufacturer",
      "outputs": [
        {
          "internalType": "uint256",
          "name": "",
          "type": "uint256"
        }
      ],
      "stateMutability": "nonpayable",
      "type": "function"
    },
    {
      "inputs": [
        {
          "internalType": "address",
          "name": "from",
          "type": "address"
        },
        {
          "internalType": "address",
          "name": "to",
          "type": "address"
        },
        {
          "internalType": "uint256",
          "name": "int_tokenID",
          "type": "uint256"
        }
      ],
      "name": "purchasedByRetailer",
      "outputs": [],
      "stateMutability": "nonpayable",
      "type": "function"
    },
    {
      "inputs": [
        {
          "internalType": "address",
          "name": "sender",
          "type": "address"
        },
        {
          "internalType": "address",
          "name": "receiver",
          "type": "address"
        },
        {
          "internalType": "uint256",
          "name": "date",
          "type": "uint256"
        },
        {
          "internalType": "uint256",
          "name": "txn",
          "type": "uint256"
        }
      ],
      "name": "validate",
      "outputs": [
        {
          "internalType": "bool",
          "name": "valid",
          "type": "bool"
        }
      ],
      "stateMutability": "view",
      "type": "function",
      "constant": true
    }
  ],
  "bytecode": "0x60806040523480156200001157600080fd5b506040518060400160405280600b81526020017f737570706c79636861696e0000000000000000000000000000000000000000008152506040518060400160405280600381526020017f5343500000000000000000000000000000000000000000000000000000000000815250816000908051906020019062000096929190620000f9565b508060019080519060200190620000af929190620000f9565b50505033600660006101000a81548173ffffffffffffffffffffffffffffffffffffffff021916908373ffffffffffffffffffffffffffffffffffffffff1602179055506200020e565b8280546200010790620001a9565b90600052602060002090601f0160209004810192826200012b576000855562000177565b82601f106200014657805160ff191683800117855562000177565b8280016001018555821562000177579182015b828111156200017657825182559160200191906001019062000159565b5b5090506200018691906200018a565b5090565b5b80821115620001a55760008160009055506001016200018b565b5090565b60006002820490506001821680620001c257607f821691505b60208210811415620001d957620001d8620001df565b5b50919050565b7f4e487b7100000000000000000000000000000000000000000000000000000000600052602260045260246000fd5b61386d806200021e6000396000f3fe608060405234801561001057600080fd5b5060043610610149576000357c0100000000000000000000000000000000000000000000000000000000900480636352211e116100ca578063a22cb4651161008e578063a22cb4651461036e578063b88d4fde1461038a578063c87b56dd146103a6578063cd859165146103d6578063e985e9c51461040657610149565b80636352211e146102a457806370a08231146102d45780637e469f0f1461030457806395d89b411461032057806397ce40c61461033e57610149565b80631dddd834116101115780631dddd8341461020457806323b872dd14610220578063255053a01461023c57806342842e0e1461026c5780634980b9fd1461028857610149565b806301ffc9a71461014e57806305b631131461017e57806306fdde031461019a578063081812fc146101b8578063095ea7b3146101e8575b600080fd5b610168600480360381019061016391906124f8565b610436565b604051610175919061301b565b60405180910390f35b6101986004803603810190610193919061254a565b610518565b005b6101a2610580565b6040516101af9190613036565b60405180910390f35b6101d260048036038101906101cd919061254a565b610612565b6040516101df9190612f92565b60405180910390f35b61020260048036038101906101fd9190612493565b610697565b005b61021e60048036038101906102199190612573565b6107af565b005b61023a6004803603810190610235919061232a565b610844565b005b61025660048036038101906102519190612612565b6108a4565b6040516102639190613238565b60405180910390f35b6102866004803603810190610281919061232a565b610ba5565b005b6102a2600480360381019061029d919061232a565b610bc5565b005b6102be60048036038101906102b9919061254a565b610d34565b6040516102cb9190612f92565b60405180910390f35b6102ee60048036038101906102e991906122c5565b610de6565b6040516102fb9190613238565b60405180910390f35b61031e6004803603810190610319919061232a565b610e9e565b005b610328610ff6565b6040516103359190613036565b60405180910390f35b610358600480360381019061035391906125af565b611088565b6040516103659190613238565b60405180910390f35b61038860048036038101906103839190612457565b6112da565b005b6103a4600480360381019061039f9190612379565b6112f0565b005b6103c060048036038101906103bb919061254a565b611352565b6040516103cd9190613036565b60405180910390f35b6103f060048036038101906103eb91906123f4565b6113f9565b6040516103fd919061301b565b60405180910390f35b610420600480360381019061041b91906122ee565b6114d1565b60405161042d919061301b565b60405180910390f35b60007f80ac58cd000000000000000000000000000000000000000000000000000000007bffffffffffffffffffffffffffffffffffffffffffffffffffffffff1916827bffffffffffffffffffffffffffffffffffffffffffffffffffffffff1916148061050157507f5b5e139f000000000000000000000000000000000000000000000000000000007bffffffffffffffffffffffffffffffffffffffffffffffffffffffff1916827bffffffffffffffffffffffffffffffffffffffffffffffffffffffff1916145b80610511575061051082611565565b5b9050919050565b6003600b600083815260200190815260200160002060010160146101000a81548160ff02191690836009811115610578577f4e487b7100000000000000000000000000000000000000000000000000000000600052602160045260246000fd5b021790555050565b60606000805461058f906135ca565b80601f01602080910402602001604051908101604052809291908181526020018280546105bb906135ca565b80156106085780601f106105dd57610100808354040283529160200191610608565b820191906000526020600020905b8154815290600101906020018083116105eb57829003601f168201915b5050505050905090565b600061061d826115cf565b61065c576040517f08c379a000000000000000000000000000000000000000000000000000000000815260040161065390613198565b60405180910390fd5b6004600083815260200190815260200160002060009054906101000a900473ffffffffffffffffffffffffffffffffffffffff169050919050565b60006106a282610d34565b90508073ffffffffffffffffffffffffffffffffffffffff168373ffffffffffffffffffffffffffffffffffffffff161415610713576040517f08c379a000000000000000000000000000000000000000000000000000000000815260040161070a906131f8565b60405180910390fd5b8073ffffffffffffffffffffffffffffffffffffffff1661073261163b565b73ffffffffffffffffffffffffffffffffffffffff16148061076157506107608161075b61163b565b6114d1565b5b6107a0576040517f08c379a000000000000000000000000000000000000000000000000000000000815260040161079790613118565b60405180910390fd5b6107aa8383611643565b505050565b3373ffffffffffffffffffffffffffffffffffffffff166107cf83610d34565b73ffffffffffffffffffffffffffffffffffffffff1614610825576040517f08c379a000000000000000000000000000000000000000000000000000000000815260040161081c906131b8565b60405180910390fd5b80600b6000848152602001908152602001600020600201819055505050565b61085561084f61163b565b826116fc565b610894576040517f08c379a000000000000000000000000000000000000000000000000000000000815260040161088b90613218565b60405180910390fd5b61089f8383836117da565b505050565b60003373ffffffffffffffffffffffffffffffffffffffff166108c683610d34565b73ffffffffffffffffffffffffffffffffffffffff16146108e657600080fd5b6002868686866040516020016108ff9493929190612f44565b60405160208183030381529060405260405161091b9190612f09565b602060405180830381855afa158015610938573d6000803e3d6000fd5b5050506040513d601f19601f8201168201806040525081019061095b91906124cf565b600a819055506000600a54600190049050600060405180608001604052808381526020013373ffffffffffffffffffffffffffffffffffffffff168152602001600560098111156109d5577f4e487b7100000000000000000000000000000000000000000000000000000000600052602160045260246000fd5b81526020016009805480602002602001604051908101604052809291908181526020018280548015610a2657602002820191906000526020600020905b815481526020019060010190808311610a12575b50505050508152509050600c6000838152602001908152602001600020600201849080600181540180825580915050600190039060005260206000200160009091909190915055610a773383611a41565b7ff267f8421985ca820a7f7e6c52ddf9350f594d84b125f8529e294d75de82ed7c8242604051610aa892919061331c565b60405180910390a17fe1f68ca4e41fb5c6b51850453a6c5b549f7214372bd0b96899e6c621e8aea43d600c6000848152602001908152602001600020600201604051610af49190612ff9565b60405180910390a16005600c600084815260200190815260200160002060010160146101000a81548160ff02191690836009811115610b5c577f4e487b7100000000000000000000000000000000000000000000000000000000600052602160045260246000fd5b021790556009811115610b98577f4e487b7100000000000000000000000000000000000000000000000000000000600052602160045260246000fd5b9250505095945050505050565b610bc0838383604051806020016040528060008152506112f0565b505050565b3382426002838383604051602001610bdf93929190612ecc565b604051602081830303815290604052604051610bfb9190612f09565b602060405180830381855afa158015610c18573d6000803e3d6000fd5b5050506040513d601f19601f82011682018060405250810190610c3b91906124cf565b60088190555060076008549080600181540180825580915050600190039060005260206000200160009091909190915055610c77868686610ba5565b6007600b600086815260200190815260200160002060010160146101000a81548160ff02191690836009811115610cd7577f4e487b7100000000000000000000000000000000000000000000000000000000600052602160045260246000fd5b02179055507f48d8ae6972e9b4589d055c8c3b3444fd1d72ffb965e7aa7cb3cb30df5ec9418b8442600c6000888152602001908152602001600020600201604051610d2493929190613253565b60405180910390a1505050505050565b6000806002600084815260200190815260200160002060009054906101000a900473ffffffffffffffffffffffffffffffffffffffff169050600073ffffffffffffffffffffffffffffffffffffffff168173ffffffffffffffffffffffffffffffffffffffff161415610ddd576040517f08c379a0000000000000000000000000000000000000000000000000000000008152600401610dd490613158565b60405180910390fd5b80915050919050565b60008073ffffffffffffffffffffffffffffffffffffffff168273ffffffffffffffffffffffffffffffffffffffff161415610e57576040517f08c379a0000000000000000000000000000000000000000000000000000000008152600401610e4e90613138565b60405180910390fd5b600360008373ffffffffffffffffffffffffffffffffffffffff1673ffffffffffffffffffffffffffffffffffffffff168152602001908152602001600020549050919050565b3382426002838383604051602001610eb893929190612ecc565b604051602081830303815290604052604051610ed49190612f09565b602060405180830381855afa158015610ef1573d6000803e3d6000fd5b5050506040513d601f19601f82011682018060405250810190610f1491906124cf565b60088190555060076008549080600181540180825580915050600190039060005260206000200160009091909190915055610f50868686610ba5565b6002600b600086815260200190815260200160002060010160146101000a81548160ff02191690836009811115610fb0577f4e487b7100000000000000000000000000000000000000000000000000000000600052602160045260246000fd5b02179055507fff56859972adb406f42c06aebd001be276748f9e78d2b9ec198eb9de867a66108442604051610fe69291906132e0565b60405180910390a1505050505050565b606060018054611005906135ca565b80601f0160208091040260200160405190810160405280929190818152602001828054611031906135ca565b801561107e5780601f106110535761010080835404028352916020019161107e565b820191906000526020600020905b81548152906001019060200180831161106157829003601f168201915b5050505050905090565b600080334260028383836040516020016110a493929190612ecc565b6040516020818303038152906040526040516110c09190612f09565b602060405180830381855afa1580156110dd573d6000803e3d6000fd5b5050506040513d601f19601f8201168201806040525081019061110091906124cf565b6008819055506007600854908060018154018082558091505060019003906000526020600020016000909190919091505560028888888860405160200161114a9493929190612f44565b6040516020818303038152906040526040516111669190612f09565b602060405180830381855afa158015611183573d6000803e3d6000fd5b5050506040513d601f19601f820116820180604052508101906111a691906124cf565b600a819055506000600a54600190049050600060405180608001604052808381526020013373ffffffffffffffffffffffffffffffffffffffff16815260200160006009811115611220577f4e487b7100000000000000000000000000000000000000000000000000000000600052602160045260246000fd5b8152602001600081525090506112363383611a41565b7f468d023538269fccbc120aae017ba9d2c62ccb1253c1900b840bd8e2ae57d61a82426040516112679291906132a4565b60405180910390a1600b600083815260200190815260200160002060010160149054906101000a900460ff1660098111156112cb577f4e487b7100000000000000000000000000000000000000000000000000000000600052602160045260246000fd5b95505050505050949350505050565b6112ec6112e561163b565b8383611c1b565b5050565b6113016112fb61163b565b836116fc565b611340576040517f08c379a000000000000000000000000000000000000000000000000000000000815260040161133790613218565b60405180910390fd5b61134c84848484611d88565b50505050565b606061135d826115cf565b61139c576040517f08c379a0000000000000000000000000000000000000000000000000000000008152600401611393906131d8565b60405180910390fd5b60006113a6611de4565b905060008151116113c657604051806020016040528060008152506113f1565b806113d084611dfb565b6040516020016113e1929190612f20565b6040516020818303038152906040525b915050919050565b600080600286868660405160200161141393929190612ecc565b60405160208183030381529060405260405161142f9190612f09565b602060405180830381855afa15801561144c573d6000803e3d6000fd5b5050506040513d601f19601f8201168201806040525081019061146f91906124cf565b905080600784815481106114ac577f4e487b7100000000000000000000000000000000000000000000000000000000600052603260045260246000fd5b906000526020600020015414156114c75760019150506114c9565b505b949350505050565b6000600560008473ffffffffffffffffffffffffffffffffffffffff1673ffffffffffffffffffffffffffffffffffffffff16815260200190815260200160002060008373ffffffffffffffffffffffffffffffffffffffff1673ffffffffffffffffffffffffffffffffffffffff16815260200190815260200160002060009054906101000a900460ff16905092915050565b60007f01ffc9a7000000000000000000000000000000000000000000000000000000007bffffffffffffffffffffffffffffffffffffffffffffffffffffffff1916827bffffffffffffffffffffffffffffffffffffffffffffffffffffffff1916149050919050565b60008073ffffffffffffffffffffffffffffffffffffffff166002600084815260200190815260200160002060009054906101000a900473ffffffffffffffffffffffffffffffffffffffff1673ffffffffffffffffffffffffffffffffffffffff1614159050919050565b600033905090565b816004600083815260200190815260200160002060006101000a81548173ffffffffffffffffffffffffffffffffffffffff021916908373ffffffffffffffffffffffffffffffffffffffff160217905550808273ffffffffffffffffffffffffffffffffffffffff166116b683610d34565b73ffffffffffffffffffffffffffffffffffffffff167f8c5be1e5ebec7d5bd14f71427d1e84f3dd0314c0f7b2291e5b200ac8c7c3b92560405160405180910390a45050565b6000611707826115cf565b611746576040517f08c379a000000000000000000000000000000000000000000000000000000000815260040161173d906130f8565b60405180910390fd5b600061175183610d34565b90508073ffffffffffffffffffffffffffffffffffffffff168473ffffffffffffffffffffffffffffffffffffffff1614806117c057508373ffffffffffffffffffffffffffffffffffffffff166117a884610612565b73ffffffffffffffffffffffffffffffffffffffff16145b806117d157506117d081856114d1565b5b91505092915050565b8273ffffffffffffffffffffffffffffffffffffffff166117fa82610d34565b73ffffffffffffffffffffffffffffffffffffffff1614611850576040517f08c379a000000000000000000000000000000000000000000000000000000000815260040161184790613078565b60405180910390fd5b600073ffffffffffffffffffffffffffffffffffffffff168273ffffffffffffffffffffffffffffffffffffffff1614156118c0576040517f08c379a00000000000000000000000000000000000000000000000000000000081526004016118b7906130b8565b60405180910390fd5b6118cb838383611fc7565b6118d6600082611643565b6001600360008573ffffffffffffffffffffffffffffffffffffffff1673ffffffffffffffffffffffffffffffffffffffff168152602001908152602001600020600082825461192691906134cc565b925050819055506001600360008473ffffffffffffffffffffffffffffffffffffffff1673ffffffffffffffffffffffffffffffffffffffff168152602001908152602001600020600082825461197d9190613445565b92505081905550816002600083815260200190815260200160002060006101000a81548173ffffffffffffffffffffffffffffffffffffffff021916908373ffffffffffffffffffffffffffffffffffffffff160217905550808273ffffffffffffffffffffffffffffffffffffffff168473ffffffffffffffffffffffffffffffffffffffff167fddf252ad1be2c89b69c2b068fc378daa952ba7f163c4a11628f55a4df523b3ef60405160405180910390a4611a3c838383611fcc565b505050565b600073ffffffffffffffffffffffffffffffffffffffff168273ffffffffffffffffffffffffffffffffffffffff161415611ab1576040517f08c379a0000000000000000000000000000000000000000000000000000000008152600401611aa890613178565b60405180910390fd5b611aba816115cf565b15611afa576040517f08c379a0000000000000000000000000000000000000000000000000000000008152600401611af190613098565b60405180910390fd5b611b0660008383611fc7565b6001600360008473ffffffffffffffffffffffffffffffffffffffff1673ffffffffffffffffffffffffffffffffffffffff1681526020019081526020016000206000828254611b569190613445565b92505081905550816002600083815260200190815260200160002060006101000a81548173ffffffffffffffffffffffffffffffffffffffff021916908373ffffffffffffffffffffffffffffffffffffffff160217905550808273ffffffffffffffffffffffffffffffffffffffff16600073ffffffffffffffffffffffffffffffffffffffff167fddf252ad1be2c89b69c2b068fc378daa952ba7f163c4a11628f55a4df523b3ef60405160405180910390a4611c1760008383611fcc565b5050565b8173ffffffffffffffffffffffffffffffffffffffff168373ffffffffffffffffffffffffffffffffffffffff161415611c8a576040517f08c379a0000000000000000000000000000000000000000000000000000000008152600401611c81906130d8565b60405180910390fd5b80600560008573ffffffffffffffffffffffffffffffffffffffff1673ffffffffffffffffffffffffffffffffffffffff16815260200190815260200160002060008473ffffffffffffffffffffffffffffffffffffffff1673ffffffffffffffffffffffffffffffffffffffff16815260200190815260200160002060006101000a81548160ff0219169083151502179055508173ffffffffffffffffffffffffffffffffffffffff168373ffffffffffffffffffffffffffffffffffffffff167f17307eab39ab6107e8899845ad3d59bd9653f200f220920489ca2b5937696c3183604051611d7b919061301b565b60405180910390a3505050565b611d938484846117da565b611d9f84848484611fd1565b611dde576040517f08c379a0000000000000000000000000000000000000000000000000000000008152600401611dd590613058565b60405180910390fd5b50505050565b606060405180602001604052806000815250905090565b60606000821415611e43576040518060400160405280600181526020017f30000000000000000000000000000000000000000000000000000000000000008152509050611fc2565b600082905060005b60008214611e75578080611e5e90613616565b915050600a82611e6e919061349b565b9150611e4b565b60008167ffffffffffffffff811115611eb7577f4e487b7100000000000000000000000000000000000000000000000000000000600052604160045260246000fd5b6040519080825280601f01601f191660200182016040528015611ee95781602001600182028036833780820191505090505b5090505b60008514611fbb57600182611f0291906134cc565b9150600a85611f11919061368d565b6030611f1d9190613445565b7f010000000000000000000000000000000000000000000000000000000000000002818381518110611f78577f4e487b7100000000000000000000000000000000000000000000000000000000600052603260045260246000fd5b60200101907effffffffffffffffffffffffffffffffffffffffffffffffffffffffffffff1916908160001a905350600a85611fb4919061349b565b9450611eed565b8093505050505b919050565b505050565b505050565b6000611ff28473ffffffffffffffffffffffffffffffffffffffff166121a0565b15612193578373ffffffffffffffffffffffffffffffffffffffff1663150b7a0261201b61163b565b8786866040518563ffffffff167c01000000000000000000000000000000000000000000000000000000000281526004016120599493929190612fad565b602060405180830381600087803b15801561207357600080fd5b505af19250505080156120a457506040513d601f19601f820116820180604052508101906120a19190612521565b60015b612127573d80600081146120d4576040519150601f19603f3d011682016040523d82523d6000602084013e6120d9565b606091505b5060008151141561211f576040517f08c379a000000000000000000000000000000000000000000000000000000000815260040161211690613058565b60405180910390fd5b805181602001fd5b63150b7a027c0100000000000000000000000000000000000000000000000000000000027bffffffffffffffffffffffffffffffffffffffffffffffffffffffff1916817bffffffffffffffffffffffffffffffffffffffffffffffffffffffff191614915050612198565b600190505b949350505050565b6000808273ffffffffffffffffffffffffffffffffffffffff16803b806020016040519081016040528181526000908060200190933c51119050919050565b60006121f26121ed84613389565b613358565b90508281526020810184848401111561220a57600080fd5b612215848285613588565b509392505050565b60008135905061222c816137c4565b92915050565b600081359050612241816137db565b92915050565b600081519050612256816137f2565b92915050565b60008135905061226b81613809565b92915050565b60008151905061228081613809565b92915050565b600082601f83011261229757600080fd5b81356122a78482602086016121df565b91505092915050565b6000813590506122bf81613820565b92915050565b6000602082840312156122d757600080fd5b60006122e58482850161221d565b91505092915050565b6000806040838503121561230157600080fd5b600061230f8582860161221d565b92505060206123208582860161221d565b9150509250929050565b60008060006060848603121561233f57600080fd5b600061234d8682870161221d565b935050602061235e8682870161221d565b925050604061236f868287016122b0565b9150509250925092565b6000806000806080858703121561238f57600080fd5b600061239d8782880161221d565b94505060206123ae8782880161221d565b93505060406123bf878288016122b0565b925050606085013567ffffffffffffffff8111156123dc57600080fd5b6123e887828801612286565b91505092959194509250565b6000806000806080858703121561240a57600080fd5b60006124188782880161221d565b94505060206124298782880161221d565b935050604061243a878288016122b0565b925050606061244b878288016122b0565b91505092959194509250565b6000806040838503121561246a57600080fd5b60006124788582860161221d565b925050602061248985828601612232565b9150509250929050565b600080604083850312156124a657600080fd5b60006124b48582860161221d565b92505060206124c5858286016122b0565b9150509250929050565b6000602082840312156124e157600080fd5b60006124ef84828501612247565b91505092915050565b60006020828403121561250a57600080fd5b60006125188482850161225c565b91505092915050565b60006020828403121561253357600080fd5b600061254184828501612271565b91505092915050565b60006020828403121561255c57600080fd5b600061256a848285016122b0565b91505092915050565b6000806040838503121561258657600080fd5b6000612594858286016122b0565b92505060206125a5858286016122b0565b9150509250929050565b600080600080608085870312156125c557600080fd5b60006125d3878288016122b0565b94505060206125e4878288016122b0565b93505060406125f5878288016122b0565b9250506060612606878288016122b0565b91505092959194509250565b600080600080600060a0868803121561262a57600080fd5b6000612638888289016122b0565b9550506020612649888289016122b0565b945050604061265a888289016122b0565b935050606061266b888289016122b0565b925050608061267c888289016122b0565b9150509295509295909350565b60006126958383612e97565b60208301905092915050565b6126aa8161350a565b82525050565b6126c16126bc8261350a565b61365f565b82525050565b60006126d2826133ce565b6126dc81856133fc565b93506126e7836133b9565b8060005b8381101561271f576126fc8261377a565b6127068882612689565b9750612711836133ef565b9250506001810190506126eb565b5085935050505092915050565b6127358161351c565b82525050565b6000612746826133d9565b612750818561340d565b9350612760818560208601613597565b6127698161378d565b840191505092915050565b600061277f826133d9565b612789818561341e565b9350612799818560208601613597565b80840191505092915050565b60006127b0826133e4565b6127ba8185613429565b93506127ca818560208601613597565b6127d38161378d565b840191505092915050565b60006127e9826133e4565b6127f3818561343a565b9350612803818560208601613597565b80840191505092915050565b600061281c603283613429565b91507f4552433732313a207472616e7366657220746f206e6f6e20455243373231526560008301527f63656976657220696d706c656d656e74657200000000000000000000000000006020830152604082019050919050565b6000612882602583613429565b91507f4552433732313a207472616e736665722066726f6d20696e636f72726563742060008301527f6f776e65720000000000000000000000000000000000000000000000000000006020830152604082019050919050565b60006128e8601c83613429565b91507f4552433732313a20746f6b656e20616c7265616479206d696e746564000000006000830152602082019050919050565b6000612928601a83613429565b91507f4974656d207075726368617365642062792052657461696c65720000000000006000830152602082019050919050565b6000612968602483613429565b91507f4552433732313a207472616e7366657220746f20746865207a65726f2061646460008301527f72657373000000000000000000000000000000000000000000000000000000006020830152604082019050919050565b60006129ce601983613429565b91507f4552433732313a20617070726f766520746f2063616c6c6572000000000000006000830152602082019050919050565b6000612a0e602c83613429565b91507f4552433732313a206f70657261746f7220717565727920666f72206e6f6e657860008301527f697374656e7420746f6b656e00000000000000000000000000000000000000006020830152604082019050919050565b6000612a74603883613429565b91507f4552433732313a20617070726f76652063616c6c6572206973206e6f74206f7760008301527f6e6572206e6f7220617070726f76656420666f7220616c6c00000000000000006020830152604082019050919050565b6000612ada602a83613429565b91507f4552433732313a2062616c616e636520717565727920666f7220746865207a6560008301527f726f2061646472657373000000000000000000000000000000000000000000006020830152604082019050919050565b6000612b40602983613429565b91507f4552433732313a206f776e657220717565727920666f72206e6f6e657869737460008301527f656e7420746f6b656e00000000000000000000000000000000000000000000006020830152604082019050919050565b6000612ba6601883613429565b91507f4974656d206372656174656420627920737570706c69657200000000000000006000830152602082019050919050565b6000612be6602083613429565b91507f4552433732313a206d696e7420746f20746865207a65726f20616464726573736000830152602082019050919050565b6000612c26602c83613429565b91507f4552433732313a20617070726f76656420717565727920666f72206e6f6e657860008301527f697374656e7420746f6b656e00000000000000000000000000000000000000006020830152604082019050919050565b6000612c8c602783613429565b91507f596f752063616e27742073616c6520746865206974656d20796f7520646f6e2760008301527f74206f776e6564000000000000000000000000000000000000000000000000006020830152604082019050919050565b6000612cf2602f83613429565b91507f4552433732314d657461646174613a2055524920717565727920666f72206e6f60008301527f6e6578697374656e7420746f6b656e00000000000000000000000000000000006020830152604082019050919050565b6000612d58602183613429565b91507f4552433732313a20617070726f76616c20746f2063757272656e74206f776e6560008301527f72000000000000000000000000000000000000000000000000000000000000006020830152604082019050919050565b6000612dbe601e83613429565b91507f4974656d20707572636861736564206279204d616e75666163747572657200006000830152602082019050919050565b6000612dfe603183613429565b91507f4552433732313a207472616e736665722063616c6c6572206973206e6f74206f60008301527f776e6572206e6f7220617070726f7665640000000000000000000000000000006020830152604082019050919050565b6000612e64601d83613429565b91507f4974656d207061636b61676564206279204d616e7566616374757265720000006000830152602082019050919050565b612ea08161357e565b82525050565b612eaf8161357e565b82525050565b612ec6612ec18261357e565b613683565b82525050565b6000612ed882866126b0565b601482019150612ee882856126b0565b601482019150612ef88284612eb5565b602082019150819050949350505050565b6000612f158284612774565b915081905092915050565b6000612f2c82856127de565b9150612f3882846127de565b91508190509392505050565b6000612f508287612eb5565b602082019150612f608286612eb5565b602082019150612f708285612eb5565b602082019150612f808284612eb5565b60208201915081905095945050505050565b6000602082019050612fa760008301846126a1565b92915050565b6000608082019050612fc260008301876126a1565b612fcf60208301866126a1565b612fdc6040830185612ea6565b8181036060830152612fee818461273b565b905095945050505050565b6000602082019050818103600083015261301381846126c7565b905092915050565b6000602082019050613030600083018461272c565b92915050565b6000602082019050818103600083015261305081846127a5565b905092915050565b600060208201905081810360008301526130718161280f565b9050919050565b6000602082019050818103600083015261309181612875565b9050919050565b600060208201905081810360008301526130b1816128db565b9050919050565b600060208201905081810360008301526130d18161295b565b9050919050565b600060208201905081810360008301526130f1816129c1565b9050919050565b6000602082019050818103600083015261311181612a01565b9050919050565b6000602082019050818103600083015261313181612a67565b9050919050565b6000602082019050818103600083015261315181612acd565b9050919050565b6000602082019050818103600083015261317181612b33565b9050919050565b6000602082019050818103600083015261319181612bd9565b9050919050565b600060208201905081810360008301526131b181612c19565b9050919050565b600060208201905081810360008301526131d181612c7f565b9050919050565b600060208201905081810360008301526131f181612ce5565b9050919050565b6000602082019050818103600083015261321181612d4b565b9050919050565b6000602082019050818103600083015261323181612df1565b9050919050565b600060208201905061324d6000830184612ea6565b92915050565b60006080820190506132686000830186612ea6565b81810360208301526132798161291b565b90506132886040830185612ea6565b818103606083015261329a81846126c7565b9050949350505050565b60006060820190506132b96000830185612ea6565b81810360208301526132ca81612b99565b90506132d96040830184612ea6565b9392505050565b60006060820190506132f56000830185612ea6565b818103602083015261330681612db1565b90506133156040830184612ea6565b9392505050565b60006060820190506133316000830185612ea6565b818103602083015261334281612e57565b90506133516040830184612ea6565b9392505050565b6000604051905081810181811067ffffffffffffffff8211171561337f5761337e61374b565b5b8060405250919050565b600067ffffffffffffffff8211156133a4576133a361374b565b5b601f19601f8301169050602081019050919050565b60008190508160005260206000209050919050565b600081549050919050565b600081519050919050565b600081519050919050565b6000600182019050919050565b600082825260208201905092915050565b600082825260208201905092915050565b600081905092915050565b600082825260208201905092915050565b600081905092915050565b60006134508261357e565b915061345b8361357e565b9250827fffffffffffffffffffffffffffffffffffffffffffffffffffffffffffffffff038211156134905761348f6136be565b5b828201905092915050565b60006134a68261357e565b91506134b18361357e565b9250826134c1576134c06136ed565b5b828204905092915050565b60006134d78261357e565b91506134e28361357e565b9250828210156134f5576134f46136be565b5b828203905092915050565b6000819050919050565b60006135158261355e565b9050919050565b60008115159050919050565b6000819050919050565b60007fffffffff0000000000000000000000000000000000000000000000000000000082169050919050565b600073ffffffffffffffffffffffffffffffffffffffff82169050919050565b6000819050919050565b82818337600083830152505050565b60005b838110156135b557808201518184015260208101905061359a565b838111156135c4576000848401525b50505050565b600060028204905060018216806135e257607f821691505b602082108114156135f6576135f561371c565b5b50919050565b600061360f61360a836137b7565b613500565b9050919050565b60006136218261357e565b91507fffffffffffffffffffffffffffffffffffffffffffffffffffffffffffffffff821415613654576136536136be565b5b600182019050919050565b600061366a82613671565b9050919050565b600061367c8261379e565b9050919050565b6000819050919050565b60006136988261357e565b91506136a38361357e565b9250826136b3576136b26136ed565b5b828206905092915050565b7f4e487b7100000000000000000000000000000000000000000000000000000000600052601160045260246000fd5b7f4e487b7100000000000000000000000000000000000000000000000000000000600052601260045260246000fd5b7f4e487b7100000000000000000000000000000000000000000000000000000000600052602260045260246000fd5b7f4e487b7100000000000000000000000000000000000000000000000000000000600052604160045260246000fd5b600061378682546135fc565b9050919050565b6000601f19601f8301169050919050565b60006c0100000000000000000000000082029050919050565b6000600182049050919050565b6137cd8161350a565b81146137d857600080fd5b50565b6137e48161351c565b81146137ef57600080fd5b50565b6137fb81613528565b811461380657600080fd5b50565b61381281613532565b811461381d57600080fd5b50565b6138298161357e565b811461383457600080fd5b5056fea26469706673582212202799abecb36596365f9bd0420b4d7f38571866647a3a0ecf971a21a48c460b6964736f6c63430008000033",
  "immutableReferences": {},
  "source": "// SPDX-License-Identifier: GPL-3.0\r\npragma solidity >=0.4.20;\r\nimport '@openzeppelin/contracts/token/ERC721/ERC721.sol';\r\n\r\n// import '@openzeppelin/contracts/token/ERC721/extensions/IERC721Metadata.sol';\r\n\r\ncontract token is ERC721 {\r\n  address contractOwner;\r\n  bytes32[] array_proof;\r\n  bytes32 hash;\r\n  uint256[] rawItems;\r\n\r\n  constructor() public ERC721('supplychain', 'SCP') {\r\n    contractOwner = msg.sender;\r\n  }\r\n\r\n  bytes32 tokenID;\r\n  enum State {\r\n    producedBySupplier,\r\n    forSaleBySupplier,\r\n    purchasedByManufacturer,\r\n    shippedBySupplier,\r\n    receivedByManufacturer,\r\n    packagedByManufacturer,\r\n    forSaleByManufacturer,\r\n    purchasedByRetailer,\r\n    shippedByManufacturer,\r\n    receivedByRetailer\r\n  }\r\n  struct Item {\r\n    uint256 product_code;\r\n    address ownerID;\r\n    State itemState;\r\n    uint256 price;\r\n  }\r\n  struct Nugget {\r\n    uint256 product_code;\r\n    address ownerID;\r\n    State NuggetState;\r\n    uint256[] items;\r\n  }\r\n\r\n  //hashtable----------------------------------\r\n  mapping(uint256 => Item) itemInfo;\r\n\r\n  // mapping(uint => Item) itemforSale;\r\n  mapping(uint256 => Nugget) nuggetInfo;\r\n  mapping(uint256 => uint256) nuggetMap;\r\n\r\n  //events--------------------------------\r\n  event lognewItem(uint256 tokenID, string _mystring, uint256 createdAt); //create new item by supplier\r\n  event lognewNugget(uint256 tokenID, string _mystring, uint256 createdAt);\r\n  event _purchasedByManufacturer(\r\n    uint256 tokenID,\r\n    string _mystring,\r\n    uint256 createdAt\r\n  );\r\n  event _purchasedByRetailer(\r\n    uint256 tokenID,\r\n    string _mystring,\r\n    uint256 createdAt,\r\n    uint256[] recipe\r\n  );\r\n  event newnugget(uint256[] tokenId);\r\n  //modiifer --------------------\r\n  modifier arrayproof(\r\n    address sender,\r\n    address receiver,\r\n    uint256 createdAt\r\n  ) {\r\n    hash = sha256(abi.encodePacked(sender, receiver, createdAt));\r\n    array_proof.push(hash);\r\n    _;\r\n  }\r\n\r\n  function itemBySupplier(\r\n    uint256 weight,\r\n    uint256 flavor,\r\n    uint256 qty,\r\n    uint256 productType\r\n  )\r\n    public\r\n    arrayproof(address(0), msg.sender, block.timestamp)\r\n    returns (uint256)\r\n  {\r\n    // uint i;\r\n\r\n    tokenID = sha256(abi.encodePacked(weight, flavor, qty, productType)); // in hash\r\n    uint256 int_tokenID = uint256(tokenID); // convert hash to integer\r\n    Item memory newItem = Item(\r\n      int_tokenID, //typecast hash into uint256\r\n      msg.sender,\r\n      State.producedBySupplier,\r\n      uint256(0)\r\n    );\r\n    _mint(msg.sender, int_tokenID);\r\n    emit lognewItem(int_tokenID, 'Item created by supplier', block.timestamp);\r\n    return (uint256(itemInfo[int_tokenID].itemState));\r\n  }\r\n\r\n  // sha256 is not bytes32 need to convert\r\n  function itemForSale(uint256 _tokenId, uint256 _price) public {\r\n    require(\r\n      ownerOf(_tokenId) == msg.sender,\r\n      \"You can't sale the item you don't owned\"\r\n    );\r\n\r\n    itemInfo[uint256(_tokenId)].price = _price; //assigning price to that item\r\n  }\r\n\r\n  function purchasedByManufacturer(\r\n    address from,\r\n    address to,\r\n    uint256 int_tokenID\r\n  ) public arrayproof(msg.sender, to, block.timestamp) {\r\n    safeTransferFrom(from, to, int_tokenID);\r\n    itemInfo[int_tokenID].itemState = State.purchasedByManufacturer;\r\n    emit _purchasedByManufacturer(\r\n      int_tokenID,\r\n      'Item purchased by Manufacturer',\r\n      block.timestamp\r\n    );\r\n  }\r\n\r\n  function shippedBySupplier(uint256 int_tokenID) public {\r\n    //to be seen again based on states\r\n    itemInfo[(int_tokenID)].itemState = State.shippedBySupplier;\r\n  }\r\n\r\n  function packagedByManufacturer(\r\n    uint256 weight,\r\n    uint256 flavor,\r\n    uint256 qty,\r\n    uint256 productType,\r\n    uint256 int_tokenID\r\n  ) public returns (uint256) {\r\n    require(ownerOf(int_tokenID) == msg.sender);\r\n    tokenID = sha256(abi.encodePacked(weight, flavor, qty, productType));\r\n    uint256 uint_tokenID = uint256(tokenID);\r\n    //  rawItems =items.push(itemInfo[_rawTokenID]);\r\n    Nugget memory newNugget = Nugget(\r\n      uint256(uint_tokenID),\r\n      msg.sender,\r\n      State.packagedByManufacturer,\r\n      rawItems\r\n    );\r\n    nuggetInfo[uint_tokenID].items.push(int_tokenID); // use hash of raw items in nugget\r\n    _mint(msg.sender, uint_tokenID);\r\n    emit lognewNugget(\r\n      uint_tokenID,\r\n      'Item packaged by Manufacturer',\r\n      block.timestamp\r\n    );\r\n    emit newnugget(nuggetInfo[uint_tokenID].items);\r\n\r\n    return (\r\n      uint256(\r\n        nuggetInfo[uint_tokenID].NuggetState = State.packagedByManufacturer\r\n      )\r\n    );\r\n  }\r\n\r\n  function purchasedByRetailer(\r\n    address from,\r\n    address to,\r\n    uint256 int_tokenID\r\n  ) public arrayproof(msg.sender, to, block.timestamp) {\r\n    // (\r\n    //   (uint256(itemInfo[int_tokenID].price)) > 0,\r\n    //   'The item should be up for sale'\r\n    // );\r\n    safeTransferFrom(from, to, int_tokenID);\r\n    itemInfo[int_tokenID].itemState = State.purchasedByRetailer;\r\n    emit _purchasedByRetailer(\r\n      int_tokenID,\r\n      'Item purchased by Retailer',\r\n      block.timestamp,\r\n      nuggetInfo[int_tokenID].items\r\n    );\r\n  }\r\n\r\n  function validate(\r\n    address sender,\r\n    address receiver,\r\n    uint256 date,\r\n    uint256 txn\r\n  ) public view returns (bool valid) {\r\n    bytes32 hash_new = (sha256(abi.encodePacked(sender, receiver, date)));\r\n    if (array_proof[txn] == hash_new) {\r\n      return (true);\r\n    }\r\n\r\n    // forsale by supplier will be used for sale by manufacturer\r\n  }\r\n}\r\n",
  "sourcePath": "C:\\Users\\dell\\OneDrive\\Documents\\fyp\\mealProof_contract\\contracts\\midyear.sol",
  "compiler": {
    "name": "solc",
    "version": "0.8.0+commit.c7dfd78e.Emscripten.clang"
  },
  "schemaVersion": "3.4.7",
  "updatedAt": "2022-07-25T19:28:46.408Z",
  "networkType": "ethereum",
  "devdoc": {
    "kind": "dev",
    "methods": {
      "approve(address,uint256)": {
        "details": "See {IERC721-approve}."
      },
      "balanceOf(address)": {
        "details": "See {IERC721-balanceOf}."
      },
      "getApproved(uint256)": {
        "details": "See {IERC721-getApproved}."
      },
      "isApprovedForAll(address,address)": {
        "details": "See {IERC721-isApprovedForAll}."
      },
      "name()": {
        "details": "See {IERC721Metadata-name}."
      },
      "ownerOf(uint256)": {
        "details": "See {IERC721-ownerOf}."
      },
      "safeTransferFrom(address,address,uint256)": {
        "details": "See {IERC721-safeTransferFrom}."
      },
      "safeTransferFrom(address,address,uint256,bytes)": {
        "details": "See {IERC721-safeTransferFrom}."
      },
      "setApprovalForAll(address,bool)": {
        "details": "See {IERC721-setApprovalForAll}."
      },
      "supportsInterface(bytes4)": {
        "details": "See {IERC165-supportsInterface}."
      },
      "symbol()": {
        "details": "See {IERC721Metadata-symbol}."
      },
      "tokenURI(uint256)": {
        "details": "See {IERC721Metadata-tokenURI}."
      },
      "transferFrom(address,address,uint256)": {
        "details": "See {IERC721-transferFrom}."
      }
    },
    "version": 1
  },
  "userdoc": {
    "kind": "user",
    "methods": {},
    "version": 1
  }
}