{
  "contractName": "token",
  "abi": [
    {
      "inputs": [],
      "stateMutability": "nonpayable",
      "type": "constructor"
    },
    {
      "anonymous": false,
      "inputs": [
        {
          "indexed": true,
          "internalType": "address",
          "name": "owner",
          "type": "address"
        },
        {
          "indexed": true,
          "internalType": "address",
          "name": "approved",
          "type": "address"
        },
        {
          "indexed": true,
          "internalType": "uint256",
          "name": "tokenId",
          "type": "uint256"
        }
      ],
      "name": "Approval",
      "type": "event"
    },
    {
      "anonymous": false,
      "inputs": [
        {
          "indexed": true,
          "internalType": "address",
          "name": "owner",
          "type": "address"
        },
        {
          "indexed": true,
          "internalType": "address",
          "name": "operator",
          "type": "address"
        },
        {
          "indexed": false,
          "internalType": "bool",
          "name": "approved",
          "type": "bool"
        }
      ],
      "name": "ApprovalForAll",
      "type": "event"
    },
    {
      "anonymous": false,
      "inputs": [
        {
          "indexed": true,
          "internalType": "address",
          "name": "from",
          "type": "address"
        },
        {
          "indexed": true,
          "internalType": "address",
          "name": "to",
          "type": "address"
        },
        {
          "indexed": true,
          "internalType": "uint256",
          "name": "tokenId",
          "type": "uint256"
        }
      ],
      "name": "Transfer",
      "type": "event"
    },
    {
      "anonymous": false,
      "inputs": [
        {
          "indexed": false,
          "internalType": "bytes32",
          "name": "tokenID",
          "type": "bytes32"
        },
        {
          "indexed": false,
          "internalType": "uint256",
          "name": "createdAt",
          "type": "uint256"
        }
      ],
      "name": "_purchasedByManufacturer",
      "type": "event"
    },
    {
      "anonymous": false,
      "inputs": [
        {
          "indexed": false,
          "internalType": "bytes32",
          "name": "tokenID",
          "type": "bytes32"
        },
        {
          "indexed": false,
          "internalType": "uint256",
          "name": "createdAt",
          "type": "uint256"
        }
      ],
      "name": "lognewItem",
      "type": "event"
    },
    {
      "anonymous": false,
      "inputs": [
        {
          "indexed": false,
          "internalType": "bytes32",
          "name": "tokenID",
          "type": "bytes32"
        },
        {
          "indexed": false,
          "internalType": "uint256",
          "name": "createdAt",
          "type": "uint256"
        }
      ],
      "name": "lognewNugget",
      "type": "event"
    },
    {
      "anonymous": false,
      "inputs": [
        {
          "indexed": false,
          "internalType": "bytes32[]",
          "name": "tokenId",
          "type": "bytes32[]"
        }
      ],
      "name": "newnugget",
      "type": "event"
    },
    {
      "inputs": [
        {
          "internalType": "address",
          "name": "to",
          "type": "address"
        },
        {
          "internalType": "uint256",
          "name": "tokenId",
          "type": "uint256"
        }
      ],
      "name": "approve",
      "outputs": [],
      "stateMutability": "nonpayable",
      "type": "function"
    },
    {
      "inputs": [
        {
          "internalType": "address",
          "name": "owner",
          "type": "address"
        }
      ],
      "name": "balanceOf",
      "outputs": [
        {
          "internalType": "uint256",
          "name": "",
          "type": "uint256"
        }
      ],
      "stateMutability": "view",
      "type": "function",
      "constant": true
    },
    {
      "inputs": [
        {
          "internalType": "uint256",
          "name": "tokenId",
          "type": "uint256"
        }
      ],
      "name": "getApproved",
      "outputs": [
        {
          "internalType": "address",
          "name": "",
          "type": "address"
        }
      ],
      "stateMutability": "view",
      "type": "function",
      "constant": true
    },
    {
      "inputs": [
        {
          "internalType": "address",
          "name": "owner",
          "type": "address"
        },
        {
          "internalType": "address",
          "name": "operator",
          "type": "address"
        }
      ],
      "name": "isApprovedForAll",
      "outputs": [
        {
          "internalType": "bool",
          "name": "",
          "type": "bool"
        }
      ],
      "stateMutability": "view",
      "type": "function",
      "constant": true
    },
    {
      "inputs": [],
      "name": "name",
      "outputs": [
        {
          "internalType": "string",
          "name": "",
          "type": "string"
        }
      ],
      "stateMutability": "view",
      "type": "function",
      "constant": true
    },
    {
      "inputs": [
        {
          "internalType": "uint256",
          "name": "tokenId",
          "type": "uint256"
        }
      ],
      "name": "ownerOf",
      "outputs": [
        {
          "internalType": "address",
          "name": "",
          "type": "address"
        }
      ],
      "stateMutability": "view",
      "type": "function",
      "constant": true
    },
    {
      "inputs": [
        {
          "internalType": "address",
          "name": "from",
          "type": "address"
        },
        {
          "internalType": "address",
          "name": "to",
          "type": "address"
        },
        {
          "internalType": "uint256",
          "name": "tokenId",
          "type": "uint256"
        }
      ],
      "name": "safeTransferFrom",
      "outputs": [],
      "stateMutability": "nonpayable",
      "type": "function"
    },
    {
      "inputs": [
        {
          "internalType": "address",
          "name": "from",
          "type": "address"
        },
        {
          "internalType": "address",
          "name": "to",
          "type": "address"
        },
        {
          "internalType": "uint256",
          "name": "tokenId",
          "type": "uint256"
        },
        {
          "internalType": "bytes",
          "name": "_data",
          "type": "bytes"
        }
      ],
      "name": "safeTransferFrom",
      "outputs": [],
      "stateMutability": "nonpayable",
      "type": "function"
    },
    {
      "inputs": [
        {
          "internalType": "address",
          "name": "operator",
          "type": "address"
        },
        {
          "internalType": "bool",
          "name": "approved",
          "type": "bool"
        }
      ],
      "name": "setApprovalForAll",
      "outputs": [],
      "stateMutability": "nonpayable",
      "type": "function"
    },
    {
      "inputs": [
        {
          "internalType": "bytes4",
          "name": "interfaceId",
          "type": "bytes4"
        }
      ],
      "name": "supportsInterface",
      "outputs": [
        {
          "internalType": "bool",
          "name": "",
          "type": "bool"
        }
      ],
      "stateMutability": "view",
      "type": "function",
      "constant": true
    },
    {
      "inputs": [],
      "name": "symbol",
      "outputs": [
        {
          "internalType": "string",
          "name": "",
          "type": "string"
        }
      ],
      "stateMutability": "view",
      "type": "function",
      "constant": true
    },
    {
      "inputs": [
        {
          "internalType": "uint256",
          "name": "tokenId",
          "type": "uint256"
        }
      ],
      "name": "tokenURI",
      "outputs": [
        {
          "internalType": "string",
          "name": "",
          "type": "string"
        }
      ],
      "stateMutability": "view",
      "type": "function",
      "constant": true
    },
    {
      "inputs": [
        {
          "internalType": "address",
          "name": "from",
          "type": "address"
        },
        {
          "internalType": "address",
          "name": "to",
          "type": "address"
        },
        {
          "internalType": "uint256",
          "name": "tokenId",
          "type": "uint256"
        }
      ],
      "name": "transferFrom",
      "outputs": [],
      "stateMutability": "nonpayable",
      "type": "function"
    },
    {
      "inputs": [
        {
          "internalType": "uint256",
          "name": "weight",
          "type": "uint256"
        },
        {
          "internalType": "uint256",
          "name": "flavor",
          "type": "uint256"
        },
        {
          "internalType": "uint256",
          "name": "qty",
          "type": "uint256"
        },
        {
          "internalType": "uint256",
          "name": "productType",
          "type": "uint256"
        }
      ],
      "name": "itemBySupplier",
      "outputs": [
        {
          "internalType": "uint256",
          "name": "",
          "type": "uint256"
        }
      ],
      "stateMutability": "nonpayable",
      "type": "function"
    },
    {
      "inputs": [
        {
          "internalType": "bytes32",
          "name": "_tokenId",
          "type": "bytes32"
        },
        {
          "internalType": "uint256",
          "name": "_price",
          "type": "uint256"
        }
      ],
      "name": "itemForSale",
      "outputs": [],
      "stateMutability": "nonpayable",
      "type": "function"
    },
    {
      "inputs": [
        {
          "internalType": "address",
          "name": "from",
          "type": "address"
        },
        {
          "internalType": "address",
          "name": "to",
          "type": "address"
        },
        {
          "internalType": "bytes32",
          "name": "_tokenId",
          "type": "bytes32"
        }
      ],
      "name": "purchasedByManufacturer",
      "outputs": [],
      "stateMutability": "nonpayable",
      "type": "function"
    },
    {
      "inputs": [
        {
          "internalType": "bytes32",
          "name": "_tokenId",
          "type": "bytes32"
        }
      ],
      "name": "shippedBySupplier",
      "outputs": [],
      "stateMutability": "nonpayable",
      "type": "function"
    },
    {
      "inputs": [
        {
          "internalType": "uint256",
          "name": "weight",
          "type": "uint256"
        },
        {
          "internalType": "uint256",
          "name": "flavor",
          "type": "uint256"
        },
        {
          "internalType": "uint256",
          "name": "qty",
          "type": "uint256"
        },
        {
          "internalType": "uint256",
          "name": "productType",
          "type": "uint256"
        },
        {
          "internalType": "bytes32",
          "name": "_rawTokenID",
          "type": "bytes32"
        }
      ],
      "name": "packagedByManufacturer",
      "outputs": [
        {
          "internalType": "uint256",
          "name": "",
          "type": "uint256"
        }
      ],
      "stateMutability": "nonpayable",
      "type": "function"
    },
    {
      "inputs": [
        {
          "internalType": "address",
          "name": "sender",
          "type": "address"
        },
        {
          "internalType": "address",
          "name": "receiver",
          "type": "address"
        },
        {
          "internalType": "uint256",
          "name": "date",
          "type": "uint256"
        },
        {
          "internalType": "uint256",
          "name": "txn",
          "type": "uint256"
        }
      ],
      "name": "validate",
      "outputs": [
        {
          "internalType": "bool",
          "name": "valid",
          "type": "bool"
        }
      ],
      "stateMutability": "view",
      "type": "function",
      "constant": true
    }
  ],
  "bytecode": "0x60806040523480156200001157600080fd5b506040518060400160405280600b81526020017f737570706c79636861696e0000000000000000000000000000000000000000008152506040518060400160405280600381526020017f5343500000000000000000000000000000000000000000000000000000000000815250816000908051906020019062000096929190620000f9565b508060019080519060200190620000af929190620000f9565b50505033600660006101000a81548173ffffffffffffffffffffffffffffffffffffffff021916908373ffffffffffffffffffffffffffffffffffffffff1602179055506200020e565b8280546200010790620001a9565b90600052602060002090601f0160209004810192826200012b576000855562000177565b82601f106200014657805160ff191683800117855562000177565b8280016001018555821562000177579182015b828111156200017657825182559160200191906001019062000159565b5b5090506200018691906200018a565b5090565b5b80821115620001a55760008160009055506001016200018b565b5090565b60006002820490506001821680620001c257607f821691505b60208210811415620001d957620001d8620001df565b5b50919050565b7f4e487b7100000000000000000000000000000000000000000000000000000000600052602260045260246000fd5b613582806200021e6000396000f3fe608060405234801561001057600080fd5b506004361061013e576000357c010000000000000000000000000000000000000000000000000000000090048063900a88f0116100ca578063c07268271161008e578063c072682714610333578063c7a1f74f14610363578063c87b56dd1461037f578063cd859165146103af578063e985e9c5146103df5761013e565b8063900a88f01461029157806395d89b41146102ad57806397ce40c6146102cb578063a22cb465146102fb578063b88d4fde146103175761013e565b806323b872dd1161011157806323b872dd146101dd57806342842e0e146101f95780636352211e1461021557806370a0823114610245578063762e24be146102755761013e565b806301ffc9a71461014357806306fdde0314610173578063081812fc14610191578063095ea7b3146101c1575b600080fd5b61015d60048036038101906101589190612416565b61040f565b60405161016a9190612e0c565b60405180910390f35b61017b6104f1565b6040516101889190612e50565b60405180910390f35b6101ab60048036038101906101a69190612468565b610583565b6040516101b89190612d83565b60405180910390f35b6101db60048036038101906101d6919061234c565b610608565b005b6101f760048036038101906101f291906121e3565b610720565b005b610213600480360381019061020e91906121e3565b610780565b005b61022f600480360381019061022a9190612468565b6107a0565b60405161023c9190612d83565b60405180910390f35b61025f600480360381019061025a919061212f565b610852565b60405161026c9190613052565b60405180910390f35b61028f600480360381019061028a9190612194565b61090a565b005b6102ab60048036038101906102a691906123da565b610a7d565b005b6102b5610b16565b6040516102c29190612e50565b60405180910390f35b6102e560048036038101906102e09190612491565b610ba8565b6040516102f29190613052565b60405180910390f35b61031560048036038101906103109190612310565b610dfe565b005b610331600480360381019061032c9190612232565b610e14565b005b61034d600480360381019061034891906124f4565b610e76565b60405161035a9190613052565b60405180910390f35b61037d60048036038101906103789190612388565b61113f565b005b61039960048036038101906103949190612468565b6111a7565b6040516103a69190612e50565b60405180910390f35b6103c960048036038101906103c491906122ad565b61124e565b6040516103d69190612e0c565b60405180910390f35b6103f960048036038101906103f49190612158565b611326565b6040516104069190612e0c565b60405180910390f35b60007f80ac58cd000000000000000000000000000000000000000000000000000000007bffffffffffffffffffffffffffffffffffffffffffffffffffffffff1916827bffffffffffffffffffffffffffffffffffffffffffffffffffffffff191614806104da57507f5b5e139f000000000000000000000000000000000000000000000000000000007bffffffffffffffffffffffffffffffffffffffffffffffffffffffff1916827bffffffffffffffffffffffffffffffffffffffffffffffffffffffff1916145b806104ea57506104e9826113ba565b5b9050919050565b606060008054610500906132df565b80601f016020809104026020016040519081016040528092919081815260200182805461052c906132df565b80156105795780601f1061054e57610100808354040283529160200191610579565b820191906000526020600020905b81548152906001019060200180831161055c57829003601f168201915b5050505050905090565b600061058e82611424565b6105cd576040517f08c379a00000000000000000000000000000000000000000000000000000000081526004016105c490612fb2565b60405180910390fd5b6004600083815260200190815260200160002060009054906101000a900473ffffffffffffffffffffffffffffffffffffffff169050919050565b6000610613826107a0565b90508073ffffffffffffffffffffffffffffffffffffffff168373ffffffffffffffffffffffffffffffffffffffff161415610684576040517f08c379a000000000000000000000000000000000000000000000000000000000815260040161067b90613012565b60405180910390fd5b8073ffffffffffffffffffffffffffffffffffffffff166106a3611490565b73ffffffffffffffffffffffffffffffffffffffff1614806106d257506106d1816106cc611490565b611326565b5b610711576040517f08c379a000000000000000000000000000000000000000000000000000000000815260040161070890612f32565b60405180910390fd5b61071b8383611498565b505050565b61073161072b611490565b82611551565b610770576040517f08c379a000000000000000000000000000000000000000000000000000000000815260040161076790613032565b60405180910390fd5b61077b83838361162f565b505050565b61079b83838360405180602001604052806000815250610e14565b505050565b6000806002600084815260200190815260200160002060009054906101000a900473ffffffffffffffffffffffffffffffffffffffff169050600073ffffffffffffffffffffffffffffffffffffffff168173ffffffffffffffffffffffffffffffffffffffff161415610849576040517f08c379a000000000000000000000000000000000000000000000000000000000815260040161084090612f72565b60405180910390fd5b80915050919050565b60008073ffffffffffffffffffffffffffffffffffffffff168273ffffffffffffffffffffffffffffffffffffffff1614156108c3576040517f08c379a00000000000000000000000000000000000000000000000000000000081526004016108ba90612f52565b60405180910390fd5b600360008373ffffffffffffffffffffffffffffffffffffffff1673ffffffffffffffffffffffffffffffffffffffff168152602001908152602001600020549050919050565b338242600283838360405160200161092493929190612cbd565b6040516020818303038152906040526040516109409190612cfa565b602060405180830381855afa15801561095d573d6000803e3d6000fd5b5050506040513d601f19601f8201168201806040525081019061098091906123b1565b600881905550600760085490806001815401808255809150506001900390600052602060002001600090919091909150556000600b600086815260200190815260200160002050506109d786868660019004610780565b6002600b600086815260200190815260200160002060010160146101000a81548160ff02191690836009811115610a37577f4e487b7100000000000000000000000000000000000000000000000000000000600052602160045260246000fd5b02179055507f31c5e122af3624f0499db1c59ba1ff1bd67d796b9e75f02bf96f7388eb7763318442604051610a6d929190612e27565b60405180910390a1505050505050565b3373ffffffffffffffffffffffffffffffffffffffff16610aa183600190046107a0565b73ffffffffffffffffffffffffffffffffffffffff1614610af7576040517f08c379a0000000000000000000000000000000000000000000000000000000008152600401610aee90612fd2565b60405180910390fd5b80600b6000848152602001908152602001600020600201819055505050565b606060018054610b25906132df565b80601f0160208091040260200160405190810160405280929190818152602001828054610b51906132df565b8015610b9e5780601f10610b7357610100808354040283529160200191610b9e565b820191906000526020600020905b815481529060010190602001808311610b8157829003601f168201915b5050505050905090565b60008033426002838383604051602001610bc493929190612cbd565b604051602081830303815290604052604051610be09190612cfa565b602060405180830381855afa158015610bfd573d6000803e3d6000fd5b5050506040513d601f19601f82011682018060405250810190610c2091906123b1565b60088190555060076008549080600181540180825580915050600190039060005260206000200160009091909190915055600288888888604051602001610c6a9493929190612d35565b604051602081830303815290604052604051610c869190612cfa565b602060405180830381855afa158015610ca3573d6000803e3d6000fd5b5050506040513d601f19601f82011682018060405250810190610cc691906123b1565b600a8190555060006040518060800160405280600a546001900481526020013373ffffffffffffffffffffffffffffffffffffffff16815260200160006009811115610d3b577f4e487b7100000000000000000000000000000000000000000000000000000000600052602160045260246000fd5b815260200160008152509050610d5733600a5460019004611896565b7f89bd922e92387c9cf67f5216a3a79c4a33ebb30c0af25507cebe7a2c6dd53861600a5442604051610d8a929190612e27565b60405180910390a1600b6000600a54815260200190815260200160002060010160149054906101000a900460ff166009811115610df0577f4e487b7100000000000000000000000000000000000000000000000000000000600052602160045260246000fd5b945050505050949350505050565b610e10610e09611490565b8383611a70565b5050565b610e25610e1f611490565b83611551565b610e64576040517f08c379a0000000000000000000000000000000000000000000000000000000008152600401610e5b90613032565b60405180910390fd5b610e7084848484611bdd565b50505050565b6000600286868686604051602001610e919493929190612d35565b604051602081830303815290604052604051610ead9190612cfa565b602060405180830381855afa158015610eca573d6000803e3d6000fd5b5050506040513d601f19601f82011682018060405250810190610eed91906123b1565b600a8190555060006040518060800160405280600a546001900481526020013373ffffffffffffffffffffffffffffffffffffffff16815260200160056009811115610f62577f4e487b7100000000000000000000000000000000000000000000000000000000600052602160045260246000fd5b81526020016009805480602002602001604051908101604052809291908181526020018280548015610fb357602002820191906000526020600020905b815481526020019060010190808311610f9f575b50505050508152509050600c6000600a54815260200190815260200160002060020183908060018154018082558091505060019003906000526020600020016000909190919091505561100c33600a5460019004611896565b7f73be8b927aaca2c3f69bd7a7f455956ecdef606de255bfeacbd88c0c0a10588a600a544260405161103f929190612e27565b60405180910390a17fdb790bb06312a8d4c00a4c9418c6923dd4b146260a7da8819e02cce770e77438600c6000600a54815260200190815260200160002060020160405161108d9190612dea565b60405180910390a16005600c6000600a54815260200190815260200160002060010160146101000a81548160ff021916908360098111156110f7577f4e487b7100000000000000000000000000000000000000000000000000000000600052602160045260246000fd5b021790556009811115611133577f4e487b7100000000000000000000000000000000000000000000000000000000600052602160045260246000fd5b91505095945050505050565b6003600b600083815260200190815260200160002060010160146101000a81548160ff0219169083600981111561119f577f4e487b7100000000000000000000000000000000000000000000000000000000600052602160045260246000fd5b021790555050565b60606111b282611424565b6111f1576040517f08c379a00000000000000000000000000000000000000000000000000000000081526004016111e890612ff2565b60405180910390fd5b60006111fb611c39565b9050600081511161121b5760405180602001604052806000815250611246565b8061122584611c50565b604051602001611236929190612d11565b6040516020818303038152906040525b915050919050565b600080600286868660405160200161126893929190612cbd565b6040516020818303038152906040526040516112849190612cfa565b602060405180830381855afa1580156112a1573d6000803e3d6000fd5b5050506040513d601f19601f820116820180604052508101906112c491906123b1565b90508060078481548110611301577f4e487b7100000000000000000000000000000000000000000000000000000000600052603260045260246000fd5b9060005260206000200154141561131c57600191505061131e565b505b949350505050565b6000600560008473ffffffffffffffffffffffffffffffffffffffff1673ffffffffffffffffffffffffffffffffffffffff16815260200190815260200160002060008373ffffffffffffffffffffffffffffffffffffffff1673ffffffffffffffffffffffffffffffffffffffff16815260200190815260200160002060009054906101000a900460ff16905092915050565b60007f01ffc9a7000000000000000000000000000000000000000000000000000000007bffffffffffffffffffffffffffffffffffffffffffffffffffffffff1916827bffffffffffffffffffffffffffffffffffffffffffffffffffffffff1916149050919050565b60008073ffffffffffffffffffffffffffffffffffffffff166002600084815260200190815260200160002060009054906101000a900473ffffffffffffffffffffffffffffffffffffffff1673ffffffffffffffffffffffffffffffffffffffff1614159050919050565b600033905090565b816004600083815260200190815260200160002060006101000a81548173ffffffffffffffffffffffffffffffffffffffff021916908373ffffffffffffffffffffffffffffffffffffffff160217905550808273ffffffffffffffffffffffffffffffffffffffff1661150b836107a0565b73ffffffffffffffffffffffffffffffffffffffff167f8c5be1e5ebec7d5bd14f71427d1e84f3dd0314c0f7b2291e5b200ac8c7c3b92560405160405180910390a45050565b600061155c82611424565b61159b576040517f08c379a000000000000000000000000000000000000000000000000000000000815260040161159290612f12565b60405180910390fd5b60006115a6836107a0565b90508073ffffffffffffffffffffffffffffffffffffffff168473ffffffffffffffffffffffffffffffffffffffff16148061161557508373ffffffffffffffffffffffffffffffffffffffff166115fd84610583565b73ffffffffffffffffffffffffffffffffffffffff16145b8061162657506116258185611326565b5b91505092915050565b8273ffffffffffffffffffffffffffffffffffffffff1661164f826107a0565b73ffffffffffffffffffffffffffffffffffffffff16146116a5576040517f08c379a000000000000000000000000000000000000000000000000000000000815260040161169c90612e92565b60405180910390fd5b600073ffffffffffffffffffffffffffffffffffffffff168273ffffffffffffffffffffffffffffffffffffffff161415611715576040517f08c379a000000000000000000000000000000000000000000000000000000000815260040161170c90612ed2565b60405180910390fd5b611720838383611e1c565b61172b600082611498565b6001600360008573ffffffffffffffffffffffffffffffffffffffff1673ffffffffffffffffffffffffffffffffffffffff168152602001908152602001600020600082825461177b91906131e1565b925050819055506001600360008473ffffffffffffffffffffffffffffffffffffffff1673ffffffffffffffffffffffffffffffffffffffff16815260200190815260200160002060008282546117d2919061315a565b92505081905550816002600083815260200190815260200160002060006101000a81548173ffffffffffffffffffffffffffffffffffffffff021916908373ffffffffffffffffffffffffffffffffffffffff160217905550808273ffffffffffffffffffffffffffffffffffffffff168473ffffffffffffffffffffffffffffffffffffffff167fddf252ad1be2c89b69c2b068fc378daa952ba7f163c4a11628f55a4df523b3ef60405160405180910390a4611891838383611e21565b505050565b600073ffffffffffffffffffffffffffffffffffffffff168273ffffffffffffffffffffffffffffffffffffffff161415611906576040517f08c379a00000000000000000000000000000000000000000000000000000000081526004016118fd90612f92565b60405180910390fd5b61190f81611424565b1561194f576040517f08c379a000000000000000000000000000000000000000000000000000000000815260040161194690612eb2565b60405180910390fd5b61195b60008383611e1c565b6001600360008473ffffffffffffffffffffffffffffffffffffffff1673ffffffffffffffffffffffffffffffffffffffff16815260200190815260200160002060008282546119ab919061315a565b92505081905550816002600083815260200190815260200160002060006101000a81548173ffffffffffffffffffffffffffffffffffffffff021916908373ffffffffffffffffffffffffffffffffffffffff160217905550808273ffffffffffffffffffffffffffffffffffffffff16600073ffffffffffffffffffffffffffffffffffffffff167fddf252ad1be2c89b69c2b068fc378daa952ba7f163c4a11628f55a4df523b3ef60405160405180910390a4611a6c60008383611e21565b5050565b8173ffffffffffffffffffffffffffffffffffffffff168373ffffffffffffffffffffffffffffffffffffffff161415611adf576040517f08c379a0000000000000000000000000000000000000000000000000000000008152600401611ad690612ef2565b60405180910390fd5b80600560008573ffffffffffffffffffffffffffffffffffffffff1673ffffffffffffffffffffffffffffffffffffffff16815260200190815260200160002060008473ffffffffffffffffffffffffffffffffffffffff1673ffffffffffffffffffffffffffffffffffffffff16815260200190815260200160002060006101000a81548160ff0219169083151502179055508173ffffffffffffffffffffffffffffffffffffffff168373ffffffffffffffffffffffffffffffffffffffff167f17307eab39ab6107e8899845ad3d59bd9653f200f220920489ca2b5937696c3183604051611bd09190612e0c565b60405180910390a3505050565b611be884848461162f565b611bf484848484611e26565b611c33576040517f08c379a0000000000000000000000000000000000000000000000000000000008152600401611c2a90612e72565b60405180910390fd5b50505050565b606060405180602001604052806000815250905090565b60606000821415611c98576040518060400160405280600181526020017f30000000000000000000000000000000000000000000000000000000000000008152509050611e17565b600082905060005b60008214611cca578080611cb39061332b565b915050600a82611cc391906131b0565b9150611ca0565b60008167ffffffffffffffff811115611d0c577f4e487b7100000000000000000000000000000000000000000000000000000000600052604160045260246000fd5b6040519080825280601f01601f191660200182016040528015611d3e5781602001600182028036833780820191505090505b5090505b60008514611e1057600182611d5791906131e1565b9150600a85611d6691906133a2565b6030611d72919061315a565b7f010000000000000000000000000000000000000000000000000000000000000002818381518110611dcd577f4e487b7100000000000000000000000000000000000000000000000000000000600052603260045260246000fd5b60200101907effffffffffffffffffffffffffffffffffffffffffffffffffffffffffffff1916908160001a905350600a85611e0991906131b0565b9450611d42565b8093505050505b919050565b505050565b505050565b6000611e478473ffffffffffffffffffffffffffffffffffffffff16611ff5565b15611fe8578373ffffffffffffffffffffffffffffffffffffffff1663150b7a02611e70611490565b8786866040518563ffffffff167c0100000000000000000000000000000000000000000000000000000000028152600401611eae9493929190612d9e565b602060405180830381600087803b158015611ec857600080fd5b505af1925050508015611ef957506040513d601f19601f82011682018060405250810190611ef6919061243f565b60015b611f7c573d8060008114611f29576040519150601f19603f3d011682016040523d82523d6000602084013e611f2e565b606091505b50600081511415611f74576040517f08c379a0000000000000000000000000000000000000000000000000000000008152600401611f6b90612e72565b60405180910390fd5b805181602001fd5b63150b7a027c0100000000000000000000000000000000000000000000000000000000027bffffffffffffffffffffffffffffffffffffffffffffffffffffffff1916817bffffffffffffffffffffffffffffffffffffffffffffffffffffffff191614915050611fed565b600190505b949350505050565b6000808273ffffffffffffffffffffffffffffffffffffffff16803b806020016040519081016040528181526000908060200190933c51119050919050565b60006120476120428461309e565b61306d565b90508281526020810184848401111561205f57600080fd5b61206a84828561329d565b509392505050565b600081359050612081816134d9565b92915050565b600081359050612096816134f0565b92915050565b6000813590506120ab81613507565b92915050565b6000815190506120c081613507565b92915050565b6000813590506120d58161351e565b92915050565b6000815190506120ea8161351e565b92915050565b600082601f83011261210157600080fd5b8135612111848260208601612034565b91505092915050565b60008135905061212981613535565b92915050565b60006020828403121561214157600080fd5b600061214f84828501612072565b91505092915050565b6000806040838503121561216b57600080fd5b600061217985828601612072565b925050602061218a85828601612072565b9150509250929050565b6000806000606084860312156121a957600080fd5b60006121b786828701612072565b93505060206121c886828701612072565b92505060406121d98682870161209c565b9150509250925092565b6000806000606084860312156121f857600080fd5b600061220686828701612072565b935050602061221786828701612072565b92505060406122288682870161211a565b9150509250925092565b6000806000806080858703121561224857600080fd5b600061225687828801612072565b945050602061226787828801612072565b93505060406122788782880161211a565b925050606085013567ffffffffffffffff81111561229557600080fd5b6122a1878288016120f0565b91505092959194509250565b600080600080608085870312156122c357600080fd5b60006122d187828801612072565b94505060206122e287828801612072565b93505060406122f38782880161211a565b92505060606123048782880161211a565b91505092959194509250565b6000806040838503121561232357600080fd5b600061233185828601612072565b925050602061234285828601612087565b9150509250929050565b6000806040838503121561235f57600080fd5b600061236d85828601612072565b925050602061237e8582860161211a565b9150509250929050565b60006020828403121561239a57600080fd5b60006123a88482850161209c565b91505092915050565b6000602082840312156123c357600080fd5b60006123d1848285016120b1565b91505092915050565b600080604083850312156123ed57600080fd5b60006123fb8582860161209c565b925050602061240c8582860161211a565b9150509250929050565b60006020828403121561242857600080fd5b6000612436848285016120c6565b91505092915050565b60006020828403121561245157600080fd5b600061245f848285016120db565b91505092915050565b60006020828403121561247a57600080fd5b60006124888482850161211a565b91505092915050565b600080600080608085870312156124a757600080fd5b60006124b58782880161211a565b94505060206124c68782880161211a565b93505060406124d78782880161211a565b92505060606124e88782880161211a565b91505092959194509250565b600080600080600060a0868803121561250c57600080fd5b600061251a8882890161211a565b955050602061252b8882890161211a565b945050604061253c8882890161211a565b935050606061254d8882890161211a565b925050608061255e8882890161209c565b9150509295509295909350565b6000612577838361261d565b60208301905092915050565b61258c8161321f565b82525050565b6125a361259e8261321f565b613374565b82525050565b60006125b4826130e3565b6125be8185613111565b93506125c9836130ce565b8060005b83811015612601576125de8261348f565b6125e8888261256b565b97506125f383613104565b9250506001810190506125cd565b5085935050505092915050565b61261781613231565b82525050565b6126268161323d565b82525050565b6126358161323d565b82525050565b6000612646826130ee565b6126508185613122565b93506126608185602086016132ac565b612669816134a2565b840191505092915050565b600061267f826130ee565b6126898185613133565b93506126998185602086016132ac565b80840191505092915050565b60006126b0826130f9565b6126ba818561313e565b93506126ca8185602086016132ac565b6126d3816134a2565b840191505092915050565b60006126e9826130f9565b6126f3818561314f565b93506127038185602086016132ac565b80840191505092915050565b600061271c60328361313e565b91507f4552433732313a207472616e7366657220746f206e6f6e20455243373231526560008301527f63656976657220696d706c656d656e74657200000000000000000000000000006020830152604082019050919050565b600061278260258361313e565b91507f4552433732313a207472616e736665722066726f6d20696e636f72726563742060008301527f6f776e65720000000000000000000000000000000000000000000000000000006020830152604082019050919050565b60006127e8601c8361313e565b91507f4552433732313a20746f6b656e20616c7265616479206d696e746564000000006000830152602082019050919050565b600061282860248361313e565b91507f4552433732313a207472616e7366657220746f20746865207a65726f2061646460008301527f72657373000000000000000000000000000000000000000000000000000000006020830152604082019050919050565b600061288e60198361313e565b91507f4552433732313a20617070726f766520746f2063616c6c6572000000000000006000830152602082019050919050565b60006128ce602c8361313e565b91507f4552433732313a206f70657261746f7220717565727920666f72206e6f6e657860008301527f697374656e7420746f6b656e00000000000000000000000000000000000000006020830152604082019050919050565b600061293460388361313e565b91507f4552433732313a20617070726f76652063616c6c6572206973206e6f74206f7760008301527f6e6572206e6f7220617070726f76656420666f7220616c6c00000000000000006020830152604082019050919050565b600061299a602a8361313e565b91507f4552433732313a2062616c616e636520717565727920666f7220746865207a6560008301527f726f2061646472657373000000000000000000000000000000000000000000006020830152604082019050919050565b6000612a0060298361313e565b91507f4552433732313a206f776e657220717565727920666f72206e6f6e657869737460008301527f656e7420746f6b656e00000000000000000000000000000000000000000000006020830152604082019050919050565b6000612a6660208361313e565b91507f4552433732313a206d696e7420746f20746865207a65726f20616464726573736000830152602082019050919050565b6000612aa6602c8361313e565b91507f4552433732313a20617070726f76656420717565727920666f72206e6f6e657860008301527f697374656e7420746f6b656e00000000000000000000000000000000000000006020830152604082019050919050565b6000612b0c60278361313e565b91507f596f752063616e27742073616c6520746865206974656d20796f7520646f6e2760008301527f74206f776e6564000000000000000000000000000000000000000000000000006020830152604082019050919050565b6000612b72602f8361313e565b91507f4552433732314d657461646174613a2055524920717565727920666f72206e6f60008301527f6e6578697374656e7420746f6b656e00000000000000000000000000000000006020830152604082019050919050565b6000612bd860218361313e565b91507f4552433732313a20617070726f76616c20746f2063757272656e74206f776e6560008301527f72000000000000000000000000000000000000000000000000000000000000006020830152604082019050919050565b6000612c3e60318361313e565b91507f4552433732313a207472616e736665722063616c6c6572206973206e6f74206f60008301527f776e6572206e6f7220617070726f7665640000000000000000000000000000006020830152604082019050919050565b612ca081613293565b82525050565b612cb7612cb282613293565b613398565b82525050565b6000612cc98286612592565b601482019150612cd98285612592565b601482019150612ce98284612ca6565b602082019150819050949350505050565b6000612d068284612674565b915081905092915050565b6000612d1d82856126de565b9150612d2982846126de565b91508190509392505050565b6000612d418287612ca6565b602082019150612d518286612ca6565b602082019150612d618285612ca6565b602082019150612d718284612ca6565b60208201915081905095945050505050565b6000602082019050612d986000830184612583565b92915050565b6000608082019050612db36000830187612583565b612dc06020830186612583565b612dcd6040830185612c97565b8181036060830152612ddf818461263b565b905095945050505050565b60006020820190508181036000830152612e0481846125a9565b905092915050565b6000602082019050612e21600083018461260e565b92915050565b6000604082019050612e3c600083018561262c565b612e496020830184612c97565b9392505050565b60006020820190508181036000830152612e6a81846126a5565b905092915050565b60006020820190508181036000830152612e8b8161270f565b9050919050565b60006020820190508181036000830152612eab81612775565b9050919050565b60006020820190508181036000830152612ecb816127db565b9050919050565b60006020820190508181036000830152612eeb8161281b565b9050919050565b60006020820190508181036000830152612f0b81612881565b9050919050565b60006020820190508181036000830152612f2b816128c1565b9050919050565b60006020820190508181036000830152612f4b81612927565b9050919050565b60006020820190508181036000830152612f6b8161298d565b9050919050565b60006020820190508181036000830152612f8b816129f3565b9050919050565b60006020820190508181036000830152612fab81612a59565b9050919050565b60006020820190508181036000830152612fcb81612a99565b9050919050565b60006020820190508181036000830152612feb81612aff565b9050919050565b6000602082019050818103600083015261300b81612b65565b9050919050565b6000602082019050818103600083015261302b81612bcb565b9050919050565b6000602082019050818103600083015261304b81612c31565b9050919050565b60006020820190506130676000830184612c97565b92915050565b6000604051905081810181811067ffffffffffffffff8211171561309457613093613460565b5b8060405250919050565b600067ffffffffffffffff8211156130b9576130b8613460565b5b601f19601f8301169050602081019050919050565b60008190508160005260206000209050919050565b600081549050919050565b600081519050919050565b600081519050919050565b6000600182019050919050565b600082825260208201905092915050565b600082825260208201905092915050565b600081905092915050565b600082825260208201905092915050565b600081905092915050565b600061316582613293565b915061317083613293565b9250827fffffffffffffffffffffffffffffffffffffffffffffffffffffffffffffffff038211156131a5576131a46133d3565b5b828201905092915050565b60006131bb82613293565b91506131c683613293565b9250826131d6576131d5613402565b5b828204905092915050565b60006131ec82613293565b91506131f783613293565b92508282101561320a576132096133d3565b5b828203905092915050565b6000819050919050565b600061322a82613273565b9050919050565b60008115159050919050565b6000819050919050565b60007fffffffff0000000000000000000000000000000000000000000000000000000082169050919050565b600073ffffffffffffffffffffffffffffffffffffffff82169050919050565b6000819050919050565b82818337600083830152505050565b60005b838110156132ca5780820151818401526020810190506132af565b838111156132d9576000848401525b50505050565b600060028204905060018216806132f757607f821691505b6020821081141561330b5761330a613431565b5b50919050565b600061332461331f836134cc565b613215565b9050919050565b600061333682613293565b91507fffffffffffffffffffffffffffffffffffffffffffffffffffffffffffffffff821415613369576133686133d3565b5b600182019050919050565b600061337f82613386565b9050919050565b6000613391826134b3565b9050919050565b6000819050919050565b60006133ad82613293565b91506133b883613293565b9250826133c8576133c7613402565b5b828206905092915050565b7f4e487b7100000000000000000000000000000000000000000000000000000000600052601160045260246000fd5b7f4e487b7100000000000000000000000000000000000000000000000000000000600052601260045260246000fd5b7f4e487b7100000000000000000000000000000000000000000000000000000000600052602260045260246000fd5b7f4e487b7100000000000000000000000000000000000000000000000000000000600052604160045260246000fd5b600061349b8254613311565b9050919050565b6000601f19601f8301169050919050565b60006c0100000000000000000000000082029050919050565b6000600182049050919050565b6134e28161321f565b81146134ed57600080fd5b50565b6134f981613231565b811461350457600080fd5b50565b6135108161323d565b811461351b57600080fd5b50565b61352781613247565b811461353257600080fd5b50565b61353e81613293565b811461354957600080fd5b5056fea264697066735822122039d5faced1fe8a8de001e4463f6c27e61ab6c7637c2b20e227e5d7ae4648113064736f6c63430008000033",
  "immutableReferences": {},
  "source": "// SPDX-License-Identifier: GPL-3.0\r\npragma solidity >=0.4.20;\r\nimport '@openzeppelin/contracts/token/ERC721/ERC721.sol';\r\n\r\n// import '@openzeppelin/contracts/token/ERC721/extensions/IERC721Metadata.sol';\r\n\r\ncontract token is ERC721 {\r\n  address contractOwner;\r\n  bytes32[] array_proof;\r\n  bytes32 hash;\r\n  bytes32[] rawItems;\r\n\r\n  constructor() public ERC721('supplychain', 'SCP') {\r\n    contractOwner = msg.sender;\r\n  }\r\n\r\n  bytes32 tokenID;\r\n  enum State {\r\n    producedBySupplier,\r\n    forSaleBySupplier,\r\n    purchasedByManufacturer,\r\n    shippedBySupplier,\r\n    receivedByManufacturer,\r\n    packagedByManufacturer,\r\n    forSaleByManufacturer,\r\n    purchasedByRetailer,\r\n    shippedByManufacturer,\r\n    receivedByRetailer\r\n  }\r\n  struct Item {\r\n    uint256 product_code;\r\n    address ownerID;\r\n    State itemState;\r\n    uint256 price;\r\n  }\r\n  struct Nugget {\r\n    uint256 product_code;\r\n    address ownerID;\r\n    State NuggetState;\r\n    bytes32[] items;\r\n  }\r\n\r\n  //hashtable----------------------------------\r\n  mapping(bytes32 => Item) itemInfo;\r\n\r\n  // mapping(uint => Item) itemforSale;\r\n  mapping(bytes32 => Nugget) nuggetInfo;\r\n  mapping(uint256 => uint256) nuggetMap;\r\n\r\n  //events--------------------------------\r\n  event lognewItem(bytes32 tokenID, uint256 createdAt); //create new item by supplier\r\n  event lognewNugget(bytes32 tokenID, uint256 createdAt);\r\n  event _purchasedByManufacturer(bytes32 tokenID, uint256 createdAt);\r\n  event newnugget(bytes32[] tokenId);\r\n  //modiifer --------------------\r\n  modifier arrayproof(\r\n    address sender,\r\n    address receiver,\r\n    uint256 createdAt\r\n  ) {\r\n    hash = sha256(abi.encodePacked(sender, receiver, createdAt));\r\n    array_proof.push(hash);\r\n    _;\r\n  }\r\n\r\n  function itemBySupplier(\r\n    uint256 weight,\r\n    uint256 flavor,\r\n    uint256 qty,\r\n    uint256 productType\r\n  )\r\n    public\r\n    arrayproof(address(0), msg.sender, block.timestamp)\r\n    returns (uint256)\r\n  {\r\n    // uint i;\r\n\r\n    tokenID = sha256(abi.encodePacked(weight, flavor, qty, productType));\r\n    Item memory newItem = Item(\r\n      uint256(tokenID),\r\n      msg.sender,\r\n      State.producedBySupplier,\r\n      uint256(0)\r\n    );\r\n    _mint(msg.sender, uint256(tokenID));\r\n    emit lognewItem(tokenID, block.timestamp);\r\n    return (uint256(itemInfo[tokenID].itemState));\r\n  }\r\n\r\n  function itemForSale(bytes32 _tokenId, uint256 _price) public {\r\n    require(\r\n      ownerOf(uint256(_tokenId)) == msg.sender,\r\n      \"You can't sale the item you don't owned\"\r\n    );\r\n\r\n    itemInfo[(_tokenId)].price = _price; //assigning price to that item\r\n  }\r\n\r\n  function purchasedByManufacturer(\r\n    address from,\r\n    address to,\r\n    bytes32 _tokenId\r\n  ) public arrayproof(msg.sender, to, block.timestamp) {\r\n    (itemInfo[_tokenId].price > 0, 'The item should be up for sale');\r\n    safeTransferFrom(from, to, uint256(_tokenId));\r\n    itemInfo[_tokenId].itemState = State.purchasedByManufacturer;\r\n    emit _purchasedByManufacturer(_tokenId, block.timestamp);\r\n  }\r\n\r\n  function shippedBySupplier(bytes32 _tokenId) public {\r\n    //to be seen again based on states\r\n    itemInfo[(_tokenId)].itemState = State.shippedBySupplier;\r\n  }\r\n\r\n  function packagedByManufacturer(\r\n    uint256 weight,\r\n    uint256 flavor,\r\n    uint256 qty,\r\n    uint256 productType,\r\n    bytes32 _rawTokenID\r\n  ) public returns (uint256) {\r\n    tokenID = sha256(abi.encodePacked(weight, flavor, qty, productType));\r\n    //  rawItems =items.push(itemInfo[_rawTokenID]);\r\n    Nugget memory newNugget = Nugget(\r\n      uint256(tokenID),\r\n      msg.sender,\r\n      State.packagedByManufacturer,\r\n      rawItems\r\n    );\r\n    nuggetInfo[tokenID].items.push(_rawTokenID);\r\n    _mint(msg.sender, uint256(tokenID));\r\n    emit lognewNugget(tokenID, block.timestamp);\r\n    emit newnugget(nuggetInfo[tokenID].items);\r\n    return (\r\n      uint256(nuggetInfo[tokenID].NuggetState = State.packagedByManufacturer)\r\n    );\r\n  }\r\n\r\n  function validate(\r\n    address sender,\r\n    address receiver,\r\n    uint256 date,\r\n    uint256 txn\r\n  ) public view returns (bool valid) {\r\n    bytes32 hash_new = (sha256(abi.encodePacked(sender, receiver, date)));\r\n    if (array_proof[txn] == hash_new) {\r\n      return (true);\r\n    }\r\n\r\n    // forsale by supplier will be used for sale by manufacturer\r\n  }\r\n}\r\n",
  "sourcePath": "C:\\Users\\dell\\OneDrive\\Documents\\fyp\\mealProof_contract\\contracts\\midyear.sol",
  "compiler": {
    "name": "solc",
    "version": "0.8.0+commit.c7dfd78e.Emscripten.clang"
  },
  "schemaVersion": "3.4.7",
  "updatedAt": "2022-07-01T19:58:27.072Z",
  "networkType": "ethereum",
  "devdoc": {
    "kind": "dev",
    "methods": {
      "approve(address,uint256)": {
        "details": "See {IERC721-approve}."
      },
      "balanceOf(address)": {
        "details": "See {IERC721-balanceOf}."
      },
      "getApproved(uint256)": {
        "details": "See {IERC721-getApproved}."
      },
      "isApprovedForAll(address,address)": {
        "details": "See {IERC721-isApprovedForAll}."
      },
      "name()": {
        "details": "See {IERC721Metadata-name}."
      },
      "ownerOf(uint256)": {
        "details": "See {IERC721-ownerOf}."
      },
      "safeTransferFrom(address,address,uint256)": {
        "details": "See {IERC721-safeTransferFrom}."
      },
      "safeTransferFrom(address,address,uint256,bytes)": {
        "details": "See {IERC721-safeTransferFrom}."
      },
      "setApprovalForAll(address,bool)": {
        "details": "See {IERC721-setApprovalForAll}."
      },
      "supportsInterface(bytes4)": {
        "details": "See {IERC165-supportsInterface}."
      },
      "symbol()": {
        "details": "See {IERC721Metadata-symbol}."
      },
      "tokenURI(uint256)": {
        "details": "See {IERC721Metadata-tokenURI}."
      },
      "transferFrom(address,address,uint256)": {
        "details": "See {IERC721-transferFrom}."
      }
    },
    "version": 1
  },
  "userdoc": {
    "kind": "user",
    "methods": {},
    "version": 1
  }
}